:100000000C949F010C9418130C9449130C947A13BC
:100010000C94AB130C94DC130C940D140C943E1440
:100020000C946F140C94D0010C94D0010C94D0015A
:100030000C94D0010C9406120C94D0010C94D001B5
:100040000C94D0010C94D0010C94D0010C94D001EC
:100050000C94D0010C94D0010C94D0010C94A014F9
:100060000C94D0010C94CF290C9450030C94D00123
:100070000C94D0010C94D0010C94D0010C94D001BC
:100080000C94D0010C94D0010C94D0010C94D001AC
:100090000C947B020C948F030C94D0010C94D0012F
:1000A0000C94D0010C94D0010C94D0010C94D0018C
:1000B0000C94D0010C94D0010C94D0010C94D0017C
:1000C0000C94D0010C94D0010C94D0010C94BA0281
:1000D0000C94CE030C94D0010C94F9020C940D04F2
:1000E0000C94D0010200002100240027002A002DDA
:1000F000003000330001010000040107010A010083
:10010000002200250028002B002E003100340002C0
:10011000010000050108010B01000020002300265A
:100120000029002C002F003200000100000301060E
:10013000010901050505050705080808080202026E
:10014000020A0A0808040404040101010101010172
:10015000010303030303030303040707070C0C0C49
:100160000C0C0C0C0C020202020606060606060621
:10017000060B0B0B0B0B0B0B0B01021020200808BE
:1001800010204010204080020102010804020101F9
:1001900002040810204080804020100804020180E2
:1001A0000402018040201008040201080402010139
:1001B0000204081020408001020408102040800042
:1001C00000090A02080B0C0D0706030401000000D9
:1001D000000000000000000000000000000000001F
:1001E000000000000000000000000011100F0000DF
:1001F00000000000000000000000000000000000FF
:100200000000000000494E46494E4954594E414EA7
:10021000CDCCCC3D0AD7233C17B7D13877CC2B3285
:100220009595E6241FB14F0A000020410000C84206
:1002300000401C4620BCBE4CCA1B0E5AAEC59D7465
:1002400000407A10F35A00A0724E18090010A5D48D
:10025000E80000E87648170000E40B54020000CAEA
:100260009A3B000000E1F505000080969800000030
:1002700040420F000000A08601000000102700008F
:100280000000E803000000006400000000000A0015
:10029000000000000100000000002C76D888DC6718
:1002A0004F0823DFC1DFAE59E1B1B796E5E3E45370
:1002B000C63AE651997696E8E6C28426EB898C9B8D
:1002C00062ED407C6FFCEFBC9C9F40F2BAA56FA52D
:1002D000F490055A2AF75C936B6CF9676DC11BFCAF
:1002E000E0E40D47FEF520E6B500D0ED902E0300CA
:1002F000943577050080841E080000204E0A000017
:1003000000C80C333333330F986E12831141EF8DD5
:100310002114893BE65516CFFEE6DB18D1844B3815
:100320001BF77C1D901DA4BBE424203284725E2246
:100330008100C9F124ECA1E53D275906E00711240D
:100340001FBECFEFD1E2DEBFCDBF00E00CBF12E099
:10035000A0E0B2E0E6E2F8E700E00BBF02C00790E1
:100360000D92AE36B107D9F716E0AEE6B2E001C0A5
:100370001D92A239B107E1F713E000E0CEE3D3E02C
:1003800040E006C022974109FE014BBF0E940E3695
:10039000CA33D1074007B1F70E94EF070C94113C14
:1003A0000C940000FC0124853585F901E05CFF4FC9
:1003B000808191812E5B3F4FF90120813181805CEA
:1003C0009F4F821B930B60E470E00E94AA35089552
:1003D000FC0184859585FC01E05CFF4F40815181E3
:1003E000FC01EE5BFF4F208131814217530759F02A
:1003F000FC01EE5BFF4F20813181820F931FFC01D6
:10040000208130E002C02FEF3FEF822F932F08951D
:10041000DC011C968D919C911D97FC01E05CFF4FC7
:1004200040815181FC01EE5BFF4F208131814217F9
:10043000530791F0FC01EE5BFF4F20813181820F69
:10044000931FDC012C918081918101968F739070B4
:100450009183808330E002C02FEF3FEF822F932FF4
:100460000895FC0181A1882329F0A489B5898C9184
:1004700086FFFBCF11A20895FC0146855785DA015E
:10048000A05CBF4F2D913C912F5F3F4F2F73307079
:10049000DA01AE5BBF4F8D919C91119728173907F8
:1004A000D1F3DA01A05CBF4F8D919C91480F591F89
:1004B000DA016C93A685B785A05CBF4F11963C937B
:1004C0002E93A689B7894C9121E030E0C901078CB1
:1004D00002C0880F991F0A94E2F7842B8C9381E065
:1004E00081A30488F589E02D80818064808381E088
:1004F00090E0089508951F920F920FB60F920BB6D9
:100500000F9211242F933F934F938F939F93EF93C9
:10051000FF938091C80082FD1CC04091CE00809165
:1005200036039091370301968F73907020913803B2
:10053000309139038217930771F0E0913603F091FF
:100540003703EA50FD4F408390933703809336037F
:1005500002C08091CE00FF91EF919F918F914F91BA
:100560003F912F910F900BBE0F900FBE0F901F90D9
:10057000189508951F920F920FB60F920BB60F9217
:1005800011242F933F934F938F939F93EF93FF9358
:100590008091D00082FD1CC04091D6008091BE03A6
:1005A0009091BF0301968F7390702091C00330919A
:1005B000C1038217930771F0E091BE03F091BF036E
:1005C000E258FC4F40839093BF038093BE0302C068
:1005D0008091D600FF91EF919F918F914F913F9124
:1005E0002F910F900BBE0F900FBE0F901F9018957C
:1005F00008951F920F920FB60F920BB60F9211240F
:100600002F933F934F938F939F93EF93FF938091FB
:10061000300182FD1CC040913601809146049091CA
:10062000470401968F7390702091480430914904DB
:100630008217930771F0E0914604F0914704EA5F56
:10064000FB4F4083909347048093460402C08091FF
:100650003601FF91EF919F918F914F913F912F9193
:100660000F900BBE0F900FBE0F901F90189580EB50
:1006700094E00E94D201009711F00E947A0282ED6C
:1006800094E00E94D201009711F00E94B90284EF19
:1006900094E00E94D201009711F00E94F8020895A0
:1006A0001F920F920FB60F920BB60F9211242F9339
:1006B0003F938F939F93EF93FF932091F20230919A
:1006C000F3028091F4029091F5022817390731F472
:1006D000E1ECF0E080818F7D808314C0E091F40232
:1006E000F091F502EE54FD4F20818091F40290913B
:1006F000F50201968F7390709093F5028093F40247
:100700002093C600FF91EF919F918F913F912F9180
:100710000F900BBE0F900FBE0F901F9018951F9259
:100720000F920FB60F920BB60F9211242F933F9397
:100730008F939F93EF93FF9320917A0330917B03E4
:1007400080917C0390917D032817390731F4E9ECFF
:10075000F0E080818F7D808314C0E0917C03F09174
:100760007D03E65CFC4F208180917C0390917D03AA
:1007700001968F73907090937D0380937C032093F8
:10078000CE00FF91EF919F918F913F912F910F900C
:100790000BBE0F900FBE0F901F9018951F920F92D7
:1007A0000FB60F920BB60F9211242F933F938F9396
:1007B0009F93EF93FF932091020430910304809163
:1007C0000404909105042817390731F4E1EDF0E0B5
:1007D00080818F7D808314C0E0910404F091050432
:1007E000EE53FC4F20818091040490910504019602
:1007F0008F73907090930504809304042093D60027
:10080000FF91EF919F918F913F912F910F900BBE90
:100810000F900FBE0F901F9018951F920F920FB65A
:100820000F920BB60F9211242F933F938F939F93A8
:10083000EF93FF9320918A0430918B0480918C0474
:1008400090918D042817390731F4E1E3F1E08081BC
:100850008F7D808314C0E0918C04F0918D04E65B61
:10086000FB4F208180918C0490918D0401968F73B1
:10087000907090938D0480938C0420933601FF91A7
:10088000EF919F918F913F912F910F900BBE0F9001
:100890000FBE0F901F9018958F929F92AF92BF92AC
:1008A000CF92DF92EF92FF920F931F93DF93CF933C
:1008B000CDB7DEB7FC011382128288EE93E0A0E090
:1008C000B0E084839583A683B7838AE092E0918326
:1008D00080837587648757874687318B208B138B7E
:1008E000028BF58AE48AD78AC68AB18EA08E938E4F
:1008F000828E8889848F8989858F8A89868F8B8962
:10090000878F8C8980A3CF91DF911F910F91FF90EA
:10091000EF90DF90CF90BF90AF909F908F90089511
:100920002F923F924F925F926F927F928F929F92FF
:10093000AF92BF92CF92DF92EF92FF920F931F93ED
:10094000CF93DF93EC016A017B0111E0403081EE2F
:10095000580780E0680780E0780721F410E002C0C3
:10096000102F18C02224332423940F2EF0E08F2E52
:10097000F9E09F2EFDE3AF2EF0E0BF2EF02D0F2EFD
:10098000F0E84F2EF4E85F2EFEE16F2EF0E07F2EB0
:10099000F02D00E01123C9F0EC89FD89C10108A008
:1009A00002C0880F991F0A94E2F78083C501B40141
:1009B000A70196010E94BD35215030404040504073
:1009C000569547953795279511C0EC89FD8910827A
:1009D000C301B201A70196010E94BD3521503040EC
:1009E00040405040569547953795279580E12030F7
:1009F000380718F0112309F0B3CFE889F98930835B
:100A0000EA89FB89208319A2EE89FF89408181E070
:100A100090E09C010C8C02C0220F331F0A94E2F775
:100A2000242B2083EE89FF8940819C010D8C02C01C
:100A3000220F331F0A94E2F7242B2083EE89FF89CB
:100A400040819C010E8C02C0220F331F0A94E2F7F2
:100A5000242B2083EE89FF8920810F8C02C0880F10
:100A6000991F0A94E2F7809582238083DF91CF91CA
:100A70001F910F91FF90EF90DF90CF90BF90AF90BC
:100A80009F908F907F906F905F904F903F902F90AE
:100A900008953F924F925F926F927F928F929F92B2
:100AA000AF92BF92CF92DF92EF92FF920F931F937C
:100AB000CF93DF93EC016A017B01322E11E04030CD
:100AC00081EE580780E0680780E0780721F410E0A5
:100AD00002C0102F15C00F2EF0E08F2EF9E09F2ED0
:100AE000FDE3AF2EF0E0BF2EF02D0F2EF0E84F2EDD
:100AF000F4E85F2EFEE16F2EF0E07F2EF02D00E097
:100B00001123D1F0EC89FD8981E090E008A002C0BA
:100B1000880F991F0A94E2F78083C501B401A701E9
:100B200096010E94BD3521503040404050405695BE
:100B300047953795279511C0EC89FD891082C3012F
:100B4000B201A70196010E94BD35215030404040BE
:100B50005040569547953795279580E120303807C6
:100B600018F0112309F0B5CFE889F9893083EA89B3
:100B7000FB892083E88DF98D3082EE89FF894081E1
:100B800081E090E09C010C8C02C0220F331F0A947C
:100B9000E2F7242B2083EE89FF8940819C010D8C94
:100BA00002C0220F331F0A94E2F7242B2083EE8920
:100BB000FF8940819C010E8C02C0220F331F0A94D2
:100BC000E2F7242B2083EE89FF8920810F8C02C05D
:100BD000880F991F0A94E2F7809582238083DF9122
:100BE000CF911F910F91FF90EF90DF90CF90BF902A
:100BF000AF909F908F907F906F905F904F903F90BD
:100C00000895CF93DF93FC01A685B785ED01C05C05
:100C1000DF4FAE5BBF4F488159812D913C911197B9
:100C200042175307C1F7A689B7894C9181E090E03C
:100C30009C01048C02C0220F331F0A94E2F7209516
:100C400024232C93A689B7894C919C01058C02C062
:100C5000220F331F0A94E2F7209524232C93A689B0
:100C6000B7894C919C01068C02C0220F331F0A9455
:100C7000E2F7209524232C93A689B7892C91078C21
:100C800002C0880F991F0A94E2F7809582238C9303
:100C900084859585FC01EE5BFF4F20813181805C6E
:100CA0009F4FFC0131832083DF91CF91089581E034
:100CB00008953F924F925F926F927F928F929F9290
:100CC000AF92BF92CF92DF92EF92FF920F931F935A
:100CD00000D00F920F92EDB7FEB73196772468944B
:100CE00072F8ADB7BEB711967C920F2EF3E06F2E5F
:100CF000F02D61820F2EF7E05F2EF02D52820F2E25
:100D0000F5E04F2EF02D43823324339434828EE865
:100D100094E06EE672E042EB52E025EC30E004EC49
:100D200010E00F2EF0ECEF2EFF24F02D0F2EF1EC43
:100D3000CF2EDD24F02D0F2EF2ECAF2EBB24F02DA4
:100D40000F2EF6EC8F2E9924F02D0E944C04EDB757
:100D5000FEB73196ADB7BEB711967C9261825282D2
:100D60004382348280EB94E066EF72E04AE353E022
:100D70002DEC30E00CEC10E00F2EF8ECEF2EFF2401
:100D8000F02D0F2EF9ECCF2EDD24F02D0F2EFAECE6
:100D9000AF2EBB24F02D0F2EFEEC8F2E9924F02DBC
:100DA0000E944C04EDB7FEB73196ADB7BEB71196B1
:100DB0007C92618252824382348282ED94E06EE7BB
:100DC00073E042EC53E025ED30E004ED10E00F2E2F
:100DD000F0EDEF2EFF24F02D0F2EF1EDCF2EDD24C0
:100DE000F02D0F2EF2EDAF2EBB24F02D0F2EF6EDD1
:100DF0008F2E9924F02D0E944C04EDB7FEB731964A
:100E0000ADB7BEB711967C92618252824382348222
:100E100084EF94E066E074E04AE454E025E331E0D6
:100E200004E311E00F2EF0E3EF2EF1E0FF2EF02DA2
:100E30000F2EF1E3CF2EF1E0DF2EF02D0F2EF2E397
:100E4000AF2EF1E0BF2EF02D0F2EF6E38F2EF1E046
:100E50009F2EF02D0E944C040F900F900F900F903A
:100E60000F901F910F91FF90EF90DF90CF90BF9068
:100E7000AF909F908F907F906F905F904F903F903A
:100E800008958F929F92AF92BF92CF92DF92EF928E
:100E9000FF920F931F93CF93DF934C017B01AA2402
:100EA000BB246894A1F8A80EB91E00E010E0CC2481
:100EB000DD24F50161915F01C7014AE050E00E9425
:100EC0001F0AEC01C7016EE20E94AB08C80FD91FD0
:100ED000CC0EDD1E0F5F1F4F0330110551F7C70108
:100EE000F40165814AE050E00E941F0AC80ED91E35
:100EF0008C2D9D2DDF91CF911F910F91FF90EF9041
:100F0000DF90CF90BF90AF909F908F900895FC019D
:100F10008AE292E091838083128213821482158286
:100F200008950F93FC018AE292E0918380836283AB
:100F30004383248305830F910895FC018AE292E0A4
:100F40009183808342835383648375830895FC0176
:100F50008AE292E091838083DB012D913D914D9156
:100F60005C91139722833383448355830895CF93F1
:100F7000DF93FC01EB0188819981AA81BB81828387
:100F80009383A483B5838E2F9F2FDF91CF910895F4
:100F9000FC0142835383648375839F2F08959B01D3
:100FA000BC016E5F7F4FC90144E050E00E94E6360D
:100FB000282F392F81E02115310509F080E00895AF
:100FC0000F9386E195E060E040E020E000E00E94C1
:100FD00091070F91089580E090E0089508950E9490
:100FE00053150E94EE070E9458300E94A23087E3FA
:100FF00093E0009729F00E9437030E94A230FBCFB4
:101000000E94A230FDCF0E94283108950E9428310D
:1010100008950E94D43108950E94D431089521E0AA
:1010200030E0FC018081882311F020E030E0822F45
:10103000932F089521E0FC012083089508950895D9
:10104000CF92DF92EF92FF920F931F93CF93DF9394
:101050006C017B01EA01209791F000E010E0D701DC
:101060006D917D01D601ED91FC910190F081E02D13
:10107000C6011995080F191F219789F702C000E0D2
:1010800010E0802F912FDF91CF911F910F91FF9052
:10109000EF90DF90CF900895CF92DF92EF92FF9282
:1010A0000F931F93CF93DF937C01C62EE6016E0151
:1010B000D72EE601F6016491662391F0219600E0B7
:1010C00010E0F701A081B181ED91FC91C701199564
:1010D000080F191FFE0121966491662391F702C043
:1010E00000E010E0802F912FDF91CF911F910F91A1
:1010F000FF90EF90DF90CF900895CF93DF93FB01A7
:10110000EC01A881B9816081718144815581129679
:10111000ED91FC9113971995DF91CF910895611589
:101120007105A1F0E62FF72FDF010D900020E9F700
:10113000AD01415050404E1B5F0BDC01ED91FC9125
:101140000280F381E02D19959C0102C020E030E07F
:10115000822F932F0895DC01ED91FC910190F08195
:10116000E02D199508959C01CB01DB01ED91FC91D7
:101170000190F081E02DB90119950895EF92FF9249
:101180000F931F93CF93DF938C016DE00E94AB0808
:10119000EC01C8016AE00E94AB08C80FD91F7E01AC
:1011A0008C2F9F2DDF91CF911F910F91FF90EF908A
:1011B0000895EF92FF920F931F93CF93DF938C01CB
:1011C0000E944C08EC01C8010E94BE08C80FD91F3C
:1011D0007E018C2F9F2DDF91CF911F910F91FF905A
:1011E000EF900895EF92FF920F931F93CF93DF93A9
:1011F0008C010E947D08EC01C8010E94BE08C80F46
:10120000D91F7E018C2F9F2DDF91CF911F910F91C0
:10121000FF90EF900895EF92FF920F931F93CF935B
:10122000DF938C010E948F08EC01C8010E94BE0868
:10123000C80FD91F7E018C2F9F2DDF91CF911F9159
:101240000F91FF90EF900895EF92FF920F931F93ED
:10125000CF93DF938C010E94AB08EC01C8010E9480
:10126000BE08C80FD91F7E018C2F9F2DDF91CF9113
:101270001F910F91FF90EF900895EF92FF920F93BF
:101280001F93CF93DF938C010E94B308EC01C80138
:101290000E94BE08C80FD91F7E018C2F9F2DDF91A1
:1012A000CF911F910F91FF90EF9008954F925F9211
:1012B0006F927F928F929F92AF92BF92CF92DF9266
:1012C000EF92FF920F931F93DF93CF93CDB7DEB7CB
:1012D000A1970FB6F894DEBF0FBECDBF2C01F42E40
:1012E000352F862F972FE22E19A2223020F40F2EB1
:1012F000FAE0EF2EF02D8E010F5D1F4F6E2C77243C
:101300008824992403C0F22E842F952F6F2D732FDC
:10131000A40193010E94BD35A22EB32EC42ED52E5A
:10132000E29E802D1124F81A8F2D015010408A3032
:1013300010F4805D01C0895CD8018C93A114B104C4
:10134000C104D10401F701151105B1F0E02FF12F0F
:10135000DF010D900020E9F7AD01415050404E1BD8
:101360005F0BD201ED91FC910280F381E02DC2016F
:10137000B80119959C0102C020E030E0822F932F24
:10138000A1960FB6F894DEBF0FBECDBFCF91DF910F
:101390001F910F91FF90EF90DF90CF90BF90AF9093
:1013A0009F908F907F906F905F904F900895211540
:1013B000310549F4DC01ED91FC910190F081E02DC3
:1013C000642F199508950E9456090895EF92FF928F
:1013D0000F931F93CF93DF938C010E94D709EC01E9
:1013E000C8010E94BE08C80FD91F7E018C2F9F2DF7
:1013F000DF91CF911F910F91FF90EF9008959A0187
:10140000AB0160E070E00E94D7090895EF92FF926F
:101410000F931F93CF93DF938C010E94FF09EC0180
:10142000C8010E94BE08C80FD91F7E018C2F9F2DB6
:10143000DF91CF911F910F91FF90EF9008959A0146
:10144000462F50E060E070E00E94D7090895EF92C7
:10145000FF920F931F93CF93DF938C010E941F0A7B
:10146000EC01C8010E94BE08C80FD91F7E018C2F55
:101470009F2DDF91CF911F910F91FF90EF900895D5
:10148000CF92DF92EF92FF920F931F93CF93DF9350
:10149000EC017A018B012115310549F4E881F981CC
:1014A0000190F081E02D642F19956C011FC02A3046
:1014B0003105C9F4772394F46DE20E94AB086C0106
:1014C00044275527BA014E195F09600B710BCE01F5
:1014D0002AE00E945609C80ED91E08C02AE00E94C0
:1014E00056096C0103C00E9456096C018C2D9D2D7C
:1014F000DF91CF911F910F91FF90EF90DF90CF90F0
:101500000895EF92FF920F931F93CF93DF938C0177
:101510000E94400AEC01C8010E94BE08C80FD91FF2
:101520007E018C2F9F2DDF91CF911F910F91FF9006
:10153000EF9008959A01FB01AF01662757FD609572
:10154000762F0E94400A0895EF92FF920F931F9307
:10155000CF93DF938C010E949A0AEC01C8010E948C
:10156000BE08C80FD91F7E018C2F9F2DDF91CF9110
:101570001F910F91FF90EF9008954F925F926F929D
:101580007F928F929F92AF92BF92CF92DF92EF9213
:10159000FF920F931F93CF93DF934C015A016B017E
:1015A000F22ECB01BA01A60195010E94873588234E
:1015B00039F0C40162E372E00E948F085C01D9C077
:1015C00025013601E89477F811E0C301B2012FEF4D
:1015D0003FEF4FE75FE70E948735882359F4C30147
:1015E000B2012FEF3FEF4FE75FE70E94D1331816AC
:1015F0000CF410E0112339F4C40166E372E00E9498
:101600008F085C01B6C0C601B5012FEF3FEF4FE771
:101610005FE40E94203518163CF4C4016AE372E0CE
:101620000E948F085C01A5C0C601B5012FEF3FEFF6
:101630004FE75FEC0E94D13388233CF4C4016AE396
:1016400072E00E948F085C0194C0C601B50120E0E1
:1016500030E0A9010E94D133882354F4C4016DE223
:101660000E94AB083C01D7FAD094D7F8D09402C0BE
:1016700066247724FF2009F48FC010E050E040E09A
:1016800030E02FE3652F742F832F922F20E030E07E
:1016900040E251E40E94D533562F472F382F292F8F
:1016A0001F5F1F1578F3C601B501F32FE22F252F19
:1016B000342F4F2F5E2F0E946D33162F072FE82EE9
:1016C000D92E0E944234A62E472EC82EB92E0E9433
:1016D0006E349B01AC01612F702F8E2D9D2D0E94C9
:1016E0006C33E62ED72E082F192FC4014A2D542D06
:1016F0006C2D7B2D2AE030E00E94D709EC01C4015B
:101700006EE372E00E948F08C80FD91F5E01A60C1D
:10171000B71C6E2D7D2D802F912F20E030E040E210
:1017200051E40E942435162F072FE82ED92E0E944F
:101730003D349B01AC01EB01C401B9014AE050E02A
:101740000E949A0AA80EB91EBE01882777FD8095CF
:10175000982F0E9470349B01AC01612F702F8E2D49
:101760009D2D0E946C33E62ED72E082F192FFA9448
:1017700081F68A2D9B2DDF91CF911F910F91FF90C4
:10178000EF90DF90CF90BF90AF909F908F907F9021
:101790006F905F904F900895C601B50120E030E052
:1017A00040E05FE30E946D330E944234AB01BC0114
:1017B000C4012AE030E00E94D7095C01A60CB71CE6
:1017C000D8CF0E94BD0A0895EF92FF920F931F9306
:1017D000CF93DF938C010E94E10BEC01C8010E94C2
:1017E000BE08C80FD91F7E018C2F9F2DDF91CF918E
:1017F0001F910F91FF90EF900895CF93DF93EC012D
:101800000E94E514688779878A879B87E881F98138
:101810000680F781E02DCE0119959C019923BCF437
:101820000E94E5149B01AC0188859985AA85BB853A
:10183000281B390B4A0B5B0B8C819D81AE81BF81CC
:10184000281739074A075B0708F32FEF3FEF822F6E
:10185000932FDF91CF910895CF93DF93EC010E94F6
:10186000E514688779878A879B87E881F9810084F6
:10187000F185E02DCE0119959C019923BCF40E94BD
:10188000E5149B01AC0188859985AA85BB85281B39
:10189000390B4A0B5B0B8C819D81AE81BF81281770
:1018A00039074A075B0708F32FEF3FEF822F932F8B
:1018B000DF91CF910895CF93DF93EC01CE010E9489
:1018C0002C0C9C0199237CF08D32910561F0C0971E
:1018D0008A30910540F0E881F9810680F781E02D9A
:1018E000CE011995EBCF822F932FDF91CF910895E1
:1018F000FC01448355836683778308954F925F92FA
:101900006F927F928F929F92AF92BF92CF92DF920F
:10191000EF92FF920F931F93CF93DF934C017B01C4
:101920002A0139015801FB0180818823C1F100E0BF
:1019300010E0C0E0D0E0CC24DD2429C0F701EC0F9A
:10194000FD1F208130E02817390739F0F701208189
:1019500030E02817390731F4E6012196C415D50582
:1019600010F01FC0E601A114B10471F0F301E00F03
:10197000F11F208130E02817390741F40F5F1F4F16
:101980000A151B0520F00FC0860101C08601C401A5
:101990000E94FD0B181619068CF280E005C081E04C
:1019A00003C081E001C080E0DF91CF911F910F91D2
:1019B000FF90EF90DF90CF90BF90AF909F908F906F
:1019C0007F906F905F904F9008950F931F93242FF7
:1019D000352FE62FF72FDF010D900020E9F7119743
:1019E000AD014E1B5F0BE22FF32FDF010D900020A6
:1019F000E9F711978D010E1B1F0B0E947E0C1F91A2
:101A00000F91089540E050E00E94E50C08950F9377
:101A10001F9320E030E000E010E00E947E0C1F9158
:101A20000F9108958F929F92AF92BF92CF92DF92C3
:101A3000EF92FF920F931F93CF93DF938C01E62ECB
:101A40000E945B0CEC0199230CF44BC0AA24BB242C
:101A500065019924FF2488248394EC16FD0619F16E
:101A6000CD32D105F9F0CE01C0978A309105D8F476
:101A7000C601B5012AE030E040E050E00E948B351D
:101A80005E01CC24B7FCC094DC2CA60EB71EC81E89
:101A9000D91E80ED9FEFAFEFBFEFA80EB91ECA1E93
:101AA000DB1E01C0982CD801ED91FC910680F781D6
:101AB000E02DC8011995C8010E942C0CEC01C097BB
:101AC0008A30910550F2EC16FD0639F2992061F04A
:101AD000D094C094B094A094A11CB11CC11CD11C82
:101AE00003C0AA24BB2465016A2D7B2D8C2D9D2D5E
:101AF000DF91CF911F910F91FF90EF90DF90CF90EA
:101B0000BF90AF909F908F90089561E00E94120D5A
:101B100008955F926F927F928F929F92AF92BF9241
:101B2000CF92DF92EF92FF920F931F93CF93DF93A9
:101B3000EC01062F0E945B0C182F882477240F2EAF
:101B4000F0E86F2EF02D0F2EFFE35F2EF02DCC244A
:101B5000DD247601BB249924AA24A3941017B1F1A3
:101B60001D3289F11E3289F1812F80538A3070F540
:101B7000C701B6012AE030E040E050E00E948B351A
:101B8000610F711D811D911D0F2EF0EDCF2EFFEF06
:101B9000DF2EFFEFEF2EFFEFFF2EF02DC60ED71E2C
:101BA000E81EF91EBB2091F0682D772D862D952D0E
:101BB0002DEC3CEC4CEC5DE30E942435862E772E18
:101BC000682E592E03C09A2C01C0BA2CE881F981E5
:101BD0000680F781E02DCE011995CE010E942C0CD4
:101BE000182F80538A3008F4B9CF1E3209F4B6CFCB
:101BF000011709F4B3CF992041F0F094E094D09408
:101C0000C094C11CD11CE11CF11CBB2059F0C701C0
:101C1000B6010E947034282D372D462D552D0E9477
:101C2000243504C0C701B6010E947034DF91CF9102
:101C30001F910F91FF90EF90DF90CF90BF90AF90EA
:101C40009F908F907F906F905F90089561E00E94C9
:101C5000890D0895CF92DF92EF92FF920F931F9319
:101C6000CF93DF936C017A014115510589F0062F5E
:101C7000172FC0E0D0E0C6010E94FD0B992354F05D
:101C8000F80181938F012196CE15DF05A0F302C0E4
:101C9000C0E0D0E07E018C2F9F2DDF91CF911F916E
:101CA0000F91FF90EF90DF90CF900895AF92BF9289
:101CB000CF92DF92EF92FF920F931F93CF93DF9318
:101CC0006C01790121153105B1F0042F152FC0E009
:101CD000D0E0A62EBB24C6010E94FD0B99236CF018
:101CE000A816B90651F0F80181938F012196CE15FF
:101CF000DF0588F302C0C0E0D0E07E018C2F9F2D6D
:101D0000DF91CF911F910F91FF90EF90DF90CF90D7
:101D1000BF90AF900895EF92FF920F931F93CF93D0
:101D2000DF93F82EE92EEB01082F192F68E472E0FB
:101D30000E94611ACE010E94FD0BBC01992354F050
:101D4000802F912F0E94BB1CCE010E94FD0BBC0175
:101D50009923B4F78F2D9E2DDF91CF911F910F9175
:101D6000FF90EF900895BF92CF92DF92EF92FF9293
:101D70000F931F93CF93DF93082F192F7B01B42E5E
:101D8000D82EC92E68E472E00E94611AC7010E9431
:101D9000FD0BBC01CB2DD0E0772364F0C617D7072D
:101DA00049F08D2D9C2D0E94BB1CC7010E94FD0B8C
:101DB000BC01F2CF802F912FDF91CF911F910F9116
:101DC000FF90EF90DF90CF90BF9008952F923F92B9
:101DD0004F925F926F927F928F929F92AF92BF923B
:101DE000CF92DF92EF92FF921F93DF93CF9300D0B9
:101DF0000F92CDB7DEB71B0149015A0190914902FC
:101E0000891721F4E4EEF0E01491F0C09F3F09F04F
:101E10009EC280934902E4EEF0E014911F3F09F462
:101E200096C2123009F455C0133034F4112371F006
:101E3000113009F0DBC02AC0143009F491C014300D
:101E40000CF46BC0153009F0D1C0ADC014BC15BC8A
:101E500094B5926094BD95B5916095BD282F30E002
:101E6000F901ED5CFE4FE491F0E0EE0FFF1FE15051
:101E7000FF4F4591549140932005509321052758D9
:101E80003E4FF901249120932205B3C010928000A7
:101E9000E1E8F0E0108290819860908390819160F9
:101EA0009083282F30E0F901ED5CFE4FE491F0E0E3
:101EB000EE0FFF1FE150FF4F4591549140932705CE
:101EC0005093280527583E4FF90124912093290566
:101ED00090C0A0EBB0E01C92E1EBF0E010829C918E
:101EE00092609C93908191609083282F30E0F9015B
:101EF000ED5CFE4FE491F0E0EE0FFF1FE150FF4F6D
:101F00004591549140932E0550932F0527583E4FED
:101F1000F9012491209330056CC010929000E1E902
:101F2000F0E010829081986090839081916090831E
:101F3000282F30E0F901ED5CFE4FE491F0E0EE0F68
:101F4000FF1FE150FF4F4591549140933505509349
:101F5000360527583E4FF90124912093370549C093
:101F60001092A000E1EAF0E01082908198609083E6
:101F7000908191609083282F30E0F901ED5CFE4F55
:101F8000E491F0E0EE0FFF1FE150FF4F45915491B7
:101F900040933C0550933D0527583E4FF90124914D
:101FA00020933E0526C010922001E1E2F1E010826C
:101FB000908198609083908191609083282F30E089
:101FC000F901ED5CFE4FE491F0E0EE0FFF1FE150F0
:101FD000FF4F459154914093430550934405275832
:101FE0003E4FF90124912093450503C011230CF4C1
:101FF000AEC161E00E945917112319F0123009F0A7
:10200000C5C021016624772460E072E18AE790E090
:10201000A30192010E94BD3529833A834B835C83DF
:1020200069017A010894C108D108E108F108FFEFBD
:10203000CF16D104E104F10409F008F49AC060E479
:1020400072E48FE090E0A30192010E94BD35690126
:102050007A010894C108D108E108F1081230C9F4E6
:102060008FEFC816D104E104F10409F008F483C02D
:1020700060E970ED83E090E0A30192010E94BD351C
:1020800069017A010894C108D108E108F10883E0E8
:1020900001C082E09FEFC916D104E104F10409F008
:1020A00008F46AC068E478EE81E090E0A301920150
:1020B0000E94BD3569017A010894C108D108E10880
:1020C000F1081123D9F01230D9F4EFEFCE16D10474
:1020D000E104F10409F008F455C064E274EF80E013
:1020E00090E0A30192010E94BD3569017A01089434
:1020F000C108D108E108F10885E003C083E001C010
:1021000084E0FFEFCF16D104E104F104A9F1A0F1BE
:1021100062E17AE780E090E0A30192010E94BD3580
:1021200069017A010894C108D108E108F108112376
:1021300011F484E001C086E09FEFC916D104E104E8
:10214000F104D1F0C8F0C980DA80EB80FC800B2E5E
:10215000BAE0F694E794D794C794BA95D1F7B02D26
:102160000894C108D108E108F108112341F087E083
:102170000AC081E001C082E0112311F004C085E0B3
:1021800085BD54C084E08093B10050C02101662415
:10219000772460E072E18AE790E0A30192010E9457
:1021A000BD3569017A010894C108D108E108F10838
:1021B000E0E0CE16E0E0DE06E1E0EE06E0E0FE065E
:1021C00088F068E478EE81E090E0A30192010E943B
:1021D000BD3569017A010894C108D108E108F10808
:1021E00083E001C081E0113039F4E1E8F0E0908152
:1021F000987F892B80831AC0133039F4E1E9F0E02D
:102200009081987F892B808311C0143039F4E1EAE2
:10221000F0E09081987F892B808308C0153031F4DD
:10222000E1E2F1E09081987F892B80838114910411
:10223000A104B10481F0B101660F771F80E090E046
:10224000A50194010E948B3528EE33E040E050E078
:102250000E94BD3503C02FEF3FEFA901123091F16D
:10226000133034F4112369F0113009F070C018C034
:10227000143009F449C01430ACF1153009F067C0CE
:1022800055C0C7BC20931C0530931D0540931E0507
:1022900050931F05EEE6F0E080818260808357C096
:1022A000D0928900C09288002093230530932405A2
:1022B0004093250550932605EFE6F0E0808182608B
:1022C000808345C0C092B30020932A0530932B052C
:1022D00040932C0550932D05E0E7F0E0808182606B
:1022E000808335C0D0929900C09298002093310528
:1022F000309332054093330550933405E1E7F0E025
:1023000080818260808323C0D092A900C092A800FF
:10231000209338053093390540933A0550933B0597
:10232000E2E7F0E080818260808311C0D0922901D1
:10233000C092280120933F0530934005409341050A
:1023400050934205E3E7F0E08081826080830F9044
:102350000F900F900F90CF91DF911F91FF90EF9012
:10236000DF90CF90BF90AF909F908F907F906F90B5
:102370005F904F903F902F9008958230B9F0833056
:1023800028F4882351F0813051F50AC0843011F1CE
:102390008430E8F0853019F520C010926E00089561
:1023A000EFE6F0E080818D7F80830895E0E7F0E044
:1023B00080818D7F808381E08093B000E1EBF0E04D
:1023C0008081887F846080831092B300089510928A
:1023D000710008951092720008951092730008958C
:1023E0001F93182F80914902811739F4E4EEF0E031
:1023F00084919FEF9093490201C08FEF0E94BD111D
:10240000812F60E00E949F171F9108951F920F92E5
:102410000FB60F920BB60F9211242F933F934F9349
:102420005F936F937F938F939F93AF93BF93EF933C
:10243000FF9380912A0590912B05A0912C05B091D6
:102440002D050097A105B10551F1E0912E05F09100
:102450002F059081809130058927808380912A05FE
:1024600090912B05A0912C05B0912D0518161906F9
:102470001A061B06C4F480912A0590912B05A091A1
:102480002C05B0912D050197A109B10980932A056A
:1024900090932B05A0932C05B0932D0504C080913B
:1024A00049020E94F011FF91EF91BF91AF919F916E
:1024B0008F917F916F915F914F913F912F910F90ED
:1024C0000BBE0F900FBE0F901F901895883008F02C
:1024D00082C0E82FF0E0EE0FFF1FEA5BFA4F718336
:1024E00060838330D9F0843030F4813009F449C0FE
:1024F000823060F43EC0853059F18530D8F08630A6
:1025000009F44BC0873009F066C055C0E9E6F0E039
:1025100080818C7F482B4083E89A0895E9E6F0E0BB
:102520008081440F551F440F551F837F482B4083E4
:10253000E99A0895E9E6F0E0808142955295507F4E
:102540005427407F54278F7C482B4083EA9A089574
:10255000E9E6F0E08081002456954795079456956A
:1025600047950794542F402D8F73482B4083EB9A47
:102570000895EAE6F0E080818C7F482B4083EC9A56
:102580000895EAE6F0E08081440F551F440F551F7F
:10259000837F482B4083ED9A0895EAE6F0E080813E
:1025A00042955295507F5427407F54278F7C482B6B
:1025B0004083EE9A0895EAE6F0E080810024569583
:1025C00047950794569547950794542F402D8F7340
:1025D000482B4083EF9A0895883048F5833091F076
:1025E000843028F48130B1F0823050F411C085304D
:1025F00069F0853048F0863079F0873081F40EC07C
:10260000E8980DC0E9980BC0EA9809C0EB9807C09C
:10261000EC9805C0ED9803C0EE9801C0EF98E82F44
:10262000F0E0EE0FFF1FEA5BFA4F1182108208956F
:102630001F920F920FB60F920BB60F9211242F9389
:102640003F934F935F936F937F938F939F93AF933A
:10265000BF93EF93FF9380914A0590914B050097AC
:1026600029F0E0914A05F0914B051995FF91EF9102
:10267000BF91AF919F918F917F916F915F914F919A
:102680003F912F910F900BBE0F900FBE0F901F9098
:1026900018951F920F920FB60F920BB60F9211243E
:1026A0002F933F934F935F936F937F938F939F935A
:1026B000AF93BF93EF93FF9380914C0590914D059D
:1026C000009729F0E0914C05F0914D051995FF9187
:1026D000EF91BF91AF919F918F917F916F915F919A
:1026E0004F913F912F910F900BBE0F900FBE0F9007
:1026F0001F9018951F920F920FB60F920BB60F9264
:1027000011242F933F934F935F936F937F938F93F6
:102710009F93AF93BF93EF93FF9380914E0590915A
:102720004F05009729F0E0914E05F0914F0519955E
:10273000FF91EF91BF91AF919F918F917F916F9199
:102740005F914F913F912F910F900BBE0F900FBE55
:102750000F901F9018951F920F920FB60F920BB605
:102760000F9211242F933F934F935F936F937F9317
:102770008F939F93AF93BF93EF93FF9380915005F7
:1027800090915105009729F0E0915005F091510585
:102790001995FF91EF91BF91AF919F918F917F918B
:1027A0006F915F914F913F912F910F900BBE0F90C2
:1027B0000FBE0F901F9018951F920F920FB60F9299
:1027C0000BB60F9211242F933F934F935F936F9308
:1027D0007F938F939F93AF93BF93EF93FF938091DA
:1027E000460590914705009729F0E0914605F09144
:1027F00047051995FF91EF91BF91AF919F918F91EF
:102800007F916F915F914F913F912F910F900BBEF0
:102810000F900FBE0F901F9018951F920F920FB63A
:102820000F920BB60F9211242F933F934F935F9308
:102830006F937F938F939F93AF93BF93EF93FF9388
:102840008091480590914905009729F0E09148054D
:10285000F09149051995FF91EF91BF91AF919F912B
:102860008F917F916F915F914F913F912F910F9039
:102870000BBE0F900FBE0F901F9018951F920F92D6
:102880000FB60F920BB60F9211242F933F934F93D5
:102890005F936F937F938F939F93AF93BF93EF93C8
:1028A000FF938091520590915305009729F0E09194
:1028B0005205F09153051995FF91EF91BF91AF919A
:1028C0009F918F917F916F915F914F913F912F9148
:1028D0000F900BBE0F900FBE0F901F9018951F9278
:1028E0000F920FB60F920BB60F9211242F933F93B6
:1028F0004F935F936F937F938F939F93AF93BF9308
:10290000EF93FF938091540590915505009729F01E
:10291000E0915405F09155051995FF91EF91BF9104
:10292000AF919F918F917F916F915F914F913F9167
:102930002F910F900BBE0F900FBE0F901F90189508
:102940001F920F920FB60F9211242F938F939F9384
:10295000AF93BF9380915A0590915B05A0915C0560
:10296000B0915D0520915E050196A11DB11D2D5F01
:102970002D3720F02D570196A11DB11D20935E0526
:1029800080935A0590935B05A0935C05B0935D0519
:102990008091560590915705A0915805B091590521
:1029A0000196A11DB11D8093560590935705A093E4
:1029B0005805B0935905BF91AF919F918F912F9179
:1029C0000F900FBE0F901F9018958FB7F89420911D
:1029D0005A0530915B0540915C0550915D058FBFB4
:1029E000622F732F842F952F08959FB7F89420910D
:1029F000560530915705409158055091590586B5B7
:102A0000A89B06C08F3F21F02F5F3F4F4F4F5F4F76
:102A10009FBF542F432F322F2227280F311D411DD6
:102A2000511D220F331F441F551F220F331F441FF8
:102A3000551F622F732F842F952F0895EF92FF92C9
:102A40000F931F93CF93DF937B018C010E94F514AA
:102A5000E114F10401051105A9F0EB010E94F51440
:102A60006C1B7D0B83E0683E780738F00894E10822
:102A7000F10801091109C851DC4FE114F104010505
:102A8000110561F7DF91CF911F910F91FF90EF90AA
:102A90000895019739F0880F991F880F991F0297A1
:102AA0000197F1F70895789484B5826084BD84B568
:102AB000816084BD85B5826085BD85B5816085BD39
:102AC000EEE6F0E0808181608083E1E8F0E0108252
:102AD000808182608083808181608083E0E8F0E093
:102AE000808181608083E1EBF0E08081846080837D
:102AF000E0EBF0E0808181608083E1E9F0E08081BB
:102B000082608083808181608083E0E9F0E0808161
:102B100081608083E1EAF0E080818260808380814F
:102B200081608083E0EAF0E0808181608083E1E27F
:102B3000F1E0808182608083808181608083E0E237
:102B4000F1E0808181608083EAE7F0E08081846049
:102B500080838081826080838081816080838081A6
:102B6000806880831092C100089580934A0208957E
:102B7000863308F08653EBE7F0E09081282F269506
:102B80002695269530E021703070220F331F220FDA
:102B9000331F220F331F977F292B2083877090913B
:102BA0004A029295990F990F907C892B80937C0013
:102BB000EAE7F0E0808180648083808186FDFDCF3C
:102BC0002091780030917900932F80E030E0282B1D
:102BD000392B822F932F08951F93CF93DF93182FB4
:102BE000EB0161E00E945917209729F4812F60E0E2
:102BF0000E949F17D5C0CF3FD10529F4812F61E0F6
:102C00000E949F17CDC0E12FF0E0E154FE4FE49108
:102C1000E93009F466C0EA30B0F4E430F1F1E530AF
:102C200040F4E23059F1E33070F5E13009F0ACC026
:102C300020C0E73009F443C0E83008F048C0E6306F
:102C400009F0A2C034C0ED3009F476C0EE3038F49B
:102C5000EB3009F45AC0EC3008F064C04CC0E031ED
:102C600009F47EC0E13109F485C0EF3009F08CC071
:102C70006DC084B5806884BDC7BD92C084B58062D4
:102C800084BDC8BD8DC0E0E8F0E0808180688083AD
:102C9000D0938900C093880083C0E0E8F0E0808191
:102CA00080628083D0938B00C0938A0079C0E0EB70
:102CB000F0E0808180688083C093B30071C0E0EB56
:102CC000F0E0808180628083C093B40069C0E0E955
:102CD000F0E0808180688083D0939900C093980051
:102CE0005FC0E0E9F0E0808180628083D0939B0048
:102CF000C0939A0055C0E0E9F0E08081886080834D
:102D0000D0939D00C0939C004BC0E0EAF0E080812E
:102D10008068808380818F7B8083D093A900C0935B
:102D2000A8003EC0E0EAF0E0808180628083D0931A
:102D3000AB00C093AA0034C0E0EAF0E08081886074
:102D40008083D093AD00C093AC002AC0E0E2F1E0F4
:102D5000808180688083D0932901C093280120C09E
:102D6000E0E2F1E0808180628083D0932B01C09308
:102D70002A0116C0E0E2F1E0808188608083D09370
:102D80002D01C0932C010CC0C038D1052CF4812F2B
:102D900060E00E949F1704C0812F61E00E949F178E
:102DA000DF91CF911F910895893009F452C08A3084
:102DB000A0F4843071F1853040F48230A1F1833089
:102DC00010F5813009F074C02AC08730B1F1883025
:102DD000D0F5863009F06CC02AC08D3009F451C09E
:102DE0008E3038F48B3009F440C08C3008F043C08A
:102DF00036C0803109F451C0813109F454C08F309C
:102E000009F056C044C0E0E8F0E080818F7780830D
:102E10000895E0E8F0E080818F7D8083089584B597
:102E20008F7784BD089584B58F7D84BD0895E0EBD0
:102E3000F0E080818F7780830895E0EBF0E080817F
:102E40008F7D80830895E0E9F0E080818F77808333
:102E50000895E0E9F0E080818F7D80830895E0E9C6
:102E6000F0E08081877F80830895E0EAF0E0808150
:102E70008F7780830895E0EAF0E080818F7D808302
:102E80000895E0EAF0E08081877F80830895E0E2A2
:102E9000F1E080818F7780830895E0E2F1E0808126
:102EA0008F7D80830895E0E2F1E08081877F8083D9
:102EB0000895CF93DF9390E0FC01E758FE4F4491D3
:102EC0008D5C9E4FFC018491882309F435C090E00D
:102ED000880F991FFC01EB51FF4F25913491A22FD0
:102EE000B32FED0181509F4FFC0125913491E22FCA
:102EF000F32FCF01662359F48FB7F8949C91409536
:102F000094239C939081492340838FBF15C06230E6
:102F100069F42FB7F8945881342F309535233883CE
:102F2000DC01EC914E2B4C932FBF06C08FB7F89469
:102F3000E8814E2B48838FBFDF91CF910895FF9298
:102F40000F931F93062F282F30E0F901E154FE4F15
:102F50008491F901E758FE4F14912D5C3E4FF90121
:102F6000F490FF20D9F0882311F00E94D416EF2DA1
:102F7000F0E0EE0FFF1FE150FF4F85919491E82F95
:102F8000F92F8FB7F894002329F490811095192315
:102F9000108303C09081192B10838FBF1F910F9155
:102FA000FF9008950F931F93282F30E0F901E1540B
:102FB000FE4F8491F901E758FE4F14912D5C3E4F6E
:102FC000F90104910023B1F0882311F00E94D41676
:102FD000E02FF0E0EE0FFF1FE75EFE4F859194912A
:102FE000E82FF92F8081182321E030E029F420E038
:102FF00030E002C020E030E0822F932F1F910F912C
:1030000008957F928F929F92AF92BF92CF92DF925C
:10301000EF92FF920F931F93CF93DF9390E0FC0109
:10302000E758FE4FD4908D5C9E4FFC01749166234F
:1030300011F4CC2401C0CD2C5F7080E090E0DC0165
:10304000672F70E0660F771F675E7E4FFB01062FCC
:103050001F2FC591D49109C082179307A407B50704
:1030600009F468C00196A11DB11D5B01E02EF12E8F
:103070004E01EC2FF92DE081ED21CE1669F30AC047
:1030800082179307A407B50709F458C00196A11D3C
:10309000B11D03C0F70165917491E62FF72FE08110
:1030A000ED21CE1669F7F50165917491E62FF72FA2
:1030B00060816D21C61621F5281739074A075B077D
:1030C00009F440C0882499245401F7016591749152
:1030D0000BC085017401E80EF91E0A1F1B1F2E1577
:1030E0003F054007510791F10894811C911CA11CD8
:1030F000B11CE62FF72FE081ED21CE1651F303C06E
:10310000882499245401C501B40125E130E040E050
:1031100050E00E948B359B01AC01205F3F4F4F4F29
:103120005F4F689413F856954795379527951694F1
:10313000D1F70FC020E030E0A9010BC020E030E063
:10314000A90107C020E030E0A90103C020E030E081
:10315000A901622F732F842F952FDF91CF911F919B
:103160000F91FF90EF90DF90CF90BF90AF909F9026
:103170008F907F900895CF92DF92EF92FF920F93FE
:103180001F93CF93DF93F82E062FE42EC7E0D0E0F5
:1031900010E00F2EF7E0CF2EDD24F02D802F61E020
:1031A0000E949F17EE2071F48F2D0E94D217960176
:1031B0002C1B3D0BAC0102C0440F551F2A95E2F7B2
:1031C000142B0AC08F2D0E94D2170C2E02C0880F1C
:1031D000991F0A94E2F7182B802F60E00E949F1736
:1031E00021973FEFCF3FD307C9F6812FDF91CF91D2
:1031F0001F910F91FF90EF90DF90CF900895AF92C5
:10320000BF92DF92EF92FF920F931F93CF93DF93C2
:10321000082F162FD42EC7E0D0E0E22EFF240F2E69
:10322000F7E0AF2EBB24F02DDD2079F4B5016C1B47
:103230007D0BC70102C0959587956A95E2F7BC01A1
:103240006170802F0E949F170BC0B7010C2E02C027
:10325000759567950A94E2F76170802F0E949F1719
:10326000812F61E00E949F17812F60E00E949F17CD
:1032700021979FEFCF3FD907B9F6DF91CF911F91EB
:103280000F91FF90EF90DF90BF90AF90089500975F
:1032900029F0BC0180E090E00E948A360895EF9208
:1032A000FF920F931F937B018C01611571058105BE
:1032B000910549F00E948536A80197010E94DF35EB
:1032C0009B01AC0103C020E030E0A901622F732F05
:1032D000842F952F1F910F91FF90EF900895EF92FB
:1032E000FF920F931F937B018C0162177307840772
:1032F000950764F4CA01B9016E197F09800B910B1F
:103300000E944F19E60EF71E081F191F6E2D7F2D04
:10331000802F912F1F910F91FF90EF9008952F9282
:103320003F924F925F926F927F928F929F92AF9255
:10333000BF92CF92DF92EF92FF920F931F93DF9392
:10334000CF93CDB7DEB7DC01CB0139014A011701BC
:103350002801EE88FF88088D198DEA18FB080C09F2
:103360001D099C01AD012619370948095909C801F1
:10337000B7010E948B35A20191012619370948092E
:1033800059090E94DF352A0D3B1D4C1D5D1D622F22
:10339000732F842F952FCF91DF911F910F91FF9065
:1033A000EF90DF90CF90BF90AF909F908F907F90E5
:1033B0006F905F904F903F902F900895089570E028
:1033C000382F20E0262B372B822F932F0895FC01D6
:1033D000808191810E94D4310895CF93DF93EC01D5
:1033E00088819981009711F00E94D4311982188246
:1033F0001D821C821B821A82DF91CF9108950F9348
:103400001F93CF93DF93EC018B016F5F7F4F888118
:1034100099810E947432282F392F2115310531F0FE
:10342000398328831B830A8381E001C080E0DF9118
:10343000CF911F910F910895CF93DF93EC01888175
:103440009981009729F08A819B818617970770F4EC
:10345000CE010E94FF19882359F08C819D8100972D
:1034600049F4E881F981108281E005C081E003C060
:1034700080E001C081E0DF91CF910895EF92FF924B
:103480000F931F93CF93DF93EC017B018A01BA0165
:103490000E941C1A882321F4CE010E94ED1907C056
:1034A0001D830C8388819981B7010E9422377E0198
:1034B0008C2F9F2DDF91CF911F910F91FF90EF9057
:1034C0000895CF93DF93FC01118210821382128240
:1034D000158214826115710569F0A62FB72FED01D1
:1034E00009900020E9F7AE01415050404A1B5B0BA8
:1034F0000E943E1ADF91CF910895EF92FF920F93B1
:103500001F93CF93DF93EC017B018A01BA010E94E4
:103510001C1A882321F4CE010E94ED1907C01D83D7
:103520000C8388819981B7010E94D6367E018C2F49
:103530009F2DDF91CF911F910F91FF90EF900895F4
:10354000EF92FF92CF93DF93EC01FB018617970771
:1035500061F0608171816115710529F044815581A7
:103560000E943E1A02C00E94ED197E018C2F9F2DF1
:10357000DF91CF91FF90EF900895FC0111821082AE
:1035800013821282158214820E94A01A08950F934A
:103590001F93082F192F6115710571F0E62FF72F72
:1035A000DF010D900020E9F7AD01415050404E1B66
:1035B0005F0B0E943E1A02C00E94ED19802F912FCE
:1035C0001F910F910895EF92FF920F931F93DF9336
:1035D000CF93CDB7DEB7A1970FB6F894DEBF0FBE7D
:1035E000CDBF7C01CB01BA01F70111821082138299
:1035F000128215821482422F4E5F8E010F5F1F4F81
:103600000E941236BC01C7010E94C71AA1960FB6CC
:10361000F894DEBF0FBECDBFCF91DF911F910F9108
:10362000FF90EF900895EF92FF920F931F93DF9317
:10363000CF93CDB7DEB7A1970FB6F894DEBF0FBE1C
:10364000CDBF7C01CB01BA01F70111821082138238
:10365000128215821482422F4E5F8E010F5F1F4F20
:103660000E941236BC01C7010E94C71AA1960FB66C
:10367000F894DEBF0FBECDBFCF91DF911F910F91A8
:10368000FF90EF900895EF92FF920F931F93DF93B7
:10369000CF93CDB7DEB7A1970FB6F894DEBF0FBEBC
:1036A000CDBF7C01CB01BA01F701118210821382D8
:1036B0001282158214828E010F5F1F4FA80130E025
:1036C0000E94D537C701B8010E94C71AA1960FB64C
:1036D000F894DEBF0FBECDBFCF91DF911F910F9148
:1036E000FF90EF900895EF92FF920F931F93DF9357
:1036F000CF93CDB7DEB7A2970FB6F894DEBF0FBE5B
:10370000CDBF7C01CB01BA01F70111821082138277
:103710001282158214828E010F5F1F4FA80130E0C4
:103720000E948C37C701B8010E94C71AA2960FB633
:10373000F894DEBF0FBECDBFCF91DF911F910F91E7
:10374000FF90EF900895EF92FF920F931F93DF93F6
:10375000CF93CDB7DEB761970FB6F894DEBF0FBE3B
:10376000CDBF7C01CB01F70111821082138212823E
:10377000158214828E010F5F1F4FB80150E00E9426
:10378000FA37C701B8010E94C71A61960FB6F894BC
:10379000DEBF0FBECDBFCF91DF911F910F91FF9084
:1037A000EF900895EF92FF920F931F93DF93CF93C3
:1037B000CDB7DEB762970FB6F894DEBF0FBECDBFB0
:1037C0007C01CB01F70111821082138212821582D3
:1037D00014828E010F5F1F4FB80150E00E946B37BB
:1037E000C701B8010E94C71A62960FB6F894DEBFEF
:1037F0000FBECDBFCF91DF911F910F91FF90EF9042
:103800000895EF92FF920F931F93DF93CF93CDB75D
:10381000DEB729970FB6F894DEBF0FBECDBF7C018F
:10382000862FF70111821082138212821582148270
:1038300090E08E010F5F1F4FB80150E00E94FA37F1
:10384000C701B8010E94C71A29960FB6F894DEBFC7
:103850000FBECDBFCF91DF911F910F91FF90EF90E1
:103860000895DF93CF930F920F92CDB7DEB7FC018F
:1038700011821082138212821582148269831A8245
:10388000BE016F5F7F4F0E94C71A0F900F90CF91BC
:10389000DF9108950F931F93CF93DF93082F192F74
:1038A000EB01209751F0CB010E94DD36AC01802F57
:1038B000912FBE010E947D1A02C00E94ED19802F37
:1038C000912FDF91CF911F910F910895FC011182EB
:1038D000108213821282158214820E944A1C08955B
:1038E000EF92FF920F931F93CF93DF93EC018B0125
:1038F000EC80FD8061157105B9F041155105B1F0FD
:10390000E40EF51EB7010E941C1A882389F0288155
:1039100039818C819D81820F931FB8010E942237CB
:10392000FD82EC8281E005C080E003C081E001C03F
:1039300080E0DF91CF911F910F91FF90EF9008955C
:10394000FB0160817181448155810E94701C089542
:103950006115710571F0E62FF72FDF010D90002042
:10396000E9F7AD01415050404E1B5F0B0E94701CA7
:10397000089580E00895DF93CF930F920F92CDB713
:10398000DEB769831A82BE016F5F7F4F41E050E06E
:103990000E94701C0F900F90CF91DF910895EF92CD
:1039A000FF920F931F93DF93CF9300D00F92CDB769
:1039B000DEB77C01862F90E08E010F5F1F4FB801AC
:1039C0004AE050E00E946B37F80101900020E9F7CF
:1039D000AF0141505040401B510BC701B8010E943C
:1039E000701C0F900F900F900F90CF91DF911F914F
:1039F0000F91FF90EF900895EF92FF920F931F9316
:103A0000DF93CF93CDB7DEB728970FB6F894DEBF1C
:103A10000FBECDBF7C01CB018E010F5F1F4FB801E0
:103A20004AE050E00E946B37F80101900020E9F76E
:103A3000AF0141505040401B510BC701B8010E94DB
:103A4000701C28960FB6F894DEBF0FBECDBFCF9185
:103A5000DF911F910F91FF90EF900895EF92FF92E9
:103A60000F931F93DF93CF93CDB7DEB727970FB692
:103A7000F894DEBF0FBECDBF7C01CB018E010F5F7E
:103A80001F4FB8014AE050E00E94FA37F801019058
:103A90000020E9F7AF0141505040401B510BC701D6
:103AA000B8010E94701C27960FB6F894DEBF0FBEB7
:103AB000CDBFCF91DF911F910F91FF90EF900895AF
:103AC000EF92FF920F931F93DF93CF93CDB7DEB7A3
:103AD0002E970FB6F894DEBF0FBECDBF7C01CB0191
:103AE000BA018E010F5F1F4FA8012AE030E00E944B
:103AF0008C37F80101900020E9F7AF0141505040A8
:103B0000401B510BC701B8010E94701C2E960FB6C6
:103B1000F894DEBF0FBECDBFCF91DF911F910F9103
:103B2000FF90EF900895EF92FF920F931F93DF9312
:103B3000CF93CDB7DEB72D970FB6F894DEBF0FBE8B
:103B4000CDBF7C01CB01BA018E010F5F1F4FA801D1
:103B50002AE030E00E94D537F80101900020E9F713
:103B6000AF0141505040401B510BC701B8010E94AA
:103B7000701C2D960FB6F894DEBF0FBECDBFCF914F
:103B8000DF911F910F91FF90EF900895EF92FF92B8
:103B90000F931F93DF93CF93CDB7DEB764970FB624
:103BA000F894DEBF0FBECDBF7C01CB01BA0144E06B
:103BB00022E08E010F5F1F4F0E941236682F792F6F
:103BC000E82FF92FDF010D900020E9F7AD014150FA
:103BD00050404E1B5F0BC7010E94701C64960FB6CD
:103BE000F894DEBF0FBECDBFCF91DF911F910F9133
:103BF000FF90EF900895EF92FF920F931F93DF9342
:103C0000CF93CDB7DEB764970FB6F894DEBF0FBE83
:103C1000CDBF7C01CB01BA0144E022E08E010F5FF1
:103C20001F4F0E941236682F792FE82FF92FDF01DE
:103C30000D900020E9F7AD01415050404E1B5F0B45
:103C4000C7010E94701C64960FB6F894DEBF0FBEC9
:103C5000CDBFCF91DF911F910F91FF90EF9008950D
:103C6000EF92FF920F931F93CF93DF93EC016115B7
:103C7000710501F1062F172F862F972F0E94DD3631
:103C80000097D1F0EC80FD80E80EF91ECE01B7015F
:103C90000E941C1A882391F0288139818C819D8192
:103CA000820F931F602F712F0E94D636FD82EC8207
:103CB00081E005C080E003C081E001C080E0DF91C9
:103CC000CF911F910F91FF90EF9008950F931F9345
:103CD000082F192FFB0160817181448155810E9459
:103CE000701C882321F4802F912F0E94ED19802FC2
:103CF000912F1F910F9108950F931F93082F192F44
:103D00006115710579F0E62FF72FDF010D90002086
:103D1000E9F7AD01415050404E1B5F0B0E94701CF3
:103D2000882321F4802F912F0E94ED19802F912F4D
:103D30001F910F9108950F931F93082F192F0E9421
:103D4000BB1C882321F4802F912F0E94ED19802F16
:103D5000912F1F910F9108950F931F93082F192FE3
:103D60000E94CF1C882321F4802F912F0E94ED19EF
:103D7000802F912F1F910F9108950F931F93082F5C
:103D8000192F0E94FC1C882321F4802F912F0E9460
:103D9000ED19802F912F1F910F9108950F931F936D
:103DA000082F192F0E942E1D882321F4802F912F78
:103DB0000E94ED19802F912F1F910F9108950F935D
:103DC0001F93082F192F0E94601D882321F4802F34
:103DD000912F0E94ED19802F912F1F910F9108951F
:103DE0000F931F93082F192F0E94931D882321F4EE
:103DF000802F912F0E94ED19802F912F1F910F91ED
:103E000008950F931F93082F192F0E94C61D882312
:103E100021F4802F912F0E94ED19802F912F1F9157
:103E20000F9108950F931F93082F192F0E94FB1DC8
:103E3000882321F4802F912F0E94ED19802F912F3C
:103E40001F910F9108950F931F93082F192F0E9410
:103E5000301E882321F4802F912F0E94ED19802F8E
:103E6000912F1F910F910895FC01DB0180819181B9
:103E7000009739F06D917C91119761157105D9F416
:103E800011C0ED91FC9111973097D1F014968D915E
:103E90009C9115970097B9F0208130E030952195DD
:103EA0003F4F16C0248135812115310579F0FC0181
:103EB000208130E00DC00E941937282F392F08C00B
:103EC00020E030E005C020E030E002C020E030E03B
:103ED000822F932F0895FC0144815581FB01248199
:103EE00035814217530739F40E94341F21E00097AF
:103EF00019F020E001C020E0822F0895FC018481A8
:103F00009581009761F46115710539F081E0FB013D
:103F100090819923D9F080E0089581E0089561159A
:103F2000710549F40190F081E02D81E090819923A1
:103F300069F080E00895808191810E941937282FCF
:103F4000392F81E02115310509F080E008950E94A4
:103F5000341F892F881F8827881F08950E94341FC7
:103F600021E0181619060CF020E0822F08950E9417
:103F7000341F21E0181619060CF420E0822F089552
:103F80000E94341F892F8095881F8827881F0895D5
:103F9000EF92FF920F931F93CF93DF93FC01DB010E
:103FA0008617970729F18481958114962D913C916C
:103FB000159782179307F1F40097F1F000811181B2
:103FC000ED90FC9011970DC090E00E94C636EC0178
:103FD000F70181917F0190E00E94C636C817D9078A
:103FE00069F4F80181918F01882371F781E007C09E
:103FF00081E005C080E003C081E001C080E0DF9186
:10400000CF911F910F91FF90EF900895FC01DB017C
:1040100014962D913C91159784819581821B930B69
:1040200084179507B8F0808191810097A9F06D9170
:104030007C9111976115710589F0840F951FA90175
:104040000E942937282F392F81E02115310539F0B9
:1040500080E0089580E0089580E0089580E008956C
:10406000FC0144815581FB012481358142175307AE
:1040700028F040E050E00E940620089580E0089576
:10408000FC01DB014481558114962D913C911597DB
:1040900042175307C0F0808191810097B1F06D9174
:1040A0007C9111976115710591F0421B530B840FA0
:1040B000951F0E941937282F392F81E021153105CE
:1040C00039F080E0089580E0089580E0089580E070
:1040D0000895FC01848195816817790730F4808107
:1040E0009181680F791FFB0140830895FC01848151
:1040F00095816817790720F480819181009729F4D0
:1041000010925F056FE575E002C0680F791F862F7A
:10411000972F0895FC01848195816817790748F4E9
:1041200080819181009739F0680F791FFB018081B0
:10413000089580E0089580E008950E948A200895FF
:104140000F931F93CF93DF93EB0141155105F1F0CE
:104150002097E1F0FC01048115812017310710F050
:10416000188214C041505040021B130B40175107D6
:1041700008F48A01FC0160817181620F731FCE0116
:10418000A8010E943737C00FD11F1882DF91CF914D
:104190001F910F910895CF93DF93FC018481958146
:1041A0004817590770F4C081D181CE01840F951F43
:1041B00070E00E940E37009739F09C012C1B3D0BDC
:1041C00005C02FEF3FEF02C02FEF3FEF822F932F5D
:1041D000DF91CF91089540E050E00E94CB200895F8
:1041E000CF93DF93FC01848195814817590780F4B0
:1041F000C081D181FB0160817181CE01840F951F47
:104200000E945137009739F09C012C1B3D0B05C0D3
:104210002FEF3FEF02C02FEF3FEF822F932FDF9161
:10422000CF91089540E050E00E94F0200895DF9281
:10423000EF92FF920F931F93CF93DF93EC018C814A
:104240009D8148175907E8F47A010894E11CF11C94
:10425000E881F981EE0DFF1DD0801082088119815F
:10426000C80170E00E9446370E0D1F1DF801D08274
:10427000009751F028813981AC01421B530B9A0100
:1042800005C02FEF3FEF02C02FEF3FEF822F932F9C
:10429000DF91CF911F910F91FF90EF90DF900895E4
:1042A000FC0144815581415050400E9417210895DE
:1042B000AF92BF92CF92DF92EF92FF920F931F9334
:1042C000CF93DF938B017A01FB0124813581211586
:1042D000310579F1FC01448155814115510561F1A8
:1042E0004217530760F1E416F50620F07A010894AE
:1042F000E108F108FC01C080D1805601AE0CBF1C62
:10430000AC14BD04F8F0C601CFEFDFEFF801608117
:1043100071810E9451370097B9F09C012C193D0919
:10432000E216F30608F0E9010196A816B90670F73F
:104330000BC0CFEFDFEF08C0CFEFDFEF05C0CFEF4F
:10434000DFEF02C0CFEFDFEF7E018C2F9F2DDF91DB
:10435000CF911F910F91FF90EF90DF90CF90BF9082
:10436000AF900895FC0144815581FB012481358182
:10437000421B530B0E9458210895AF92BF92CF92D7
:10438000DF92EF92FF920F931F93CF93DF93082F4B
:10439000192F7B01EA0169012417350720F45A011E
:1043A000E601C42EDB2C802F912F6BE472E00E947B
:1043B000611AD70114968D919C9115978C179D07C2
:1043C000D8F08C159D0508F46C01D701ED91FC9196
:1043D0001197EC0DFD1DB08010826D917C916C0FDA
:1043E0007D1F802F912F0E94C71AF7018081918134
:1043F000C80ED91ED601BC92802F912FDF91CF918C
:104400001F910F91FF90EF90DF90CF90BF90AF90F2
:104410000895DC01ED91FC911197309751F0808166
:10442000882339F0861709F44083319680818823E8
:10443000C9F708952F923F924F925F926F927F92A9
:104440008F929F92AF92BF92CF92DF92EF92FF92A4
:104450000F931F93CF93DF935C016B017A01FC01F3
:10446000448055804114510409F4CFC0FB0184807D
:1044700095808114910409F4C8C0FA0164807580A4
:1044800068187908C301F501008111816114710474
:1044900081F019C0F70160817181448155811E014D
:1044A0008C2F932D0E94F336F701048115810C0F98
:1044B0001D1FF60160817181C8010E945137EC0116
:1044C000009741F7A2C0992364F1E2013EC0E401E4
:1044D000C01BD10B842D952D602F712F1E014C2FE9
:1044E000532D0E94F336C40DD51DF70160817181F3
:1044F000448155811E018C2F932D0E94F336F701C4
:10450000448055804C0E5D1EF60104811581080D16
:10451000191DF50184819581860D971D95838483EE
:1045200001C02801F60160817181C8010E945137E4
:104530004C01009761F6C201B8010E94223765C0A4
:104540008C01080D191DC60DD71DF6016081718102
:10455000C8010E945137009799F7C415D50509F491
:1045600054C0F501828193818C179D0708F047C0E4
:10457000C501BE010E94FF19882309F446C03FC04F
:1045800033230CF442C0C501B601422F532F0E94C1
:104590005821EC019923CCF1F50160817181F6017C
:1045A000848195818C0F9D1F680F791FF5014481CF
:1045B0005581481B590BCB01860D971D0E94FC3677
:1045C000F50184819581860D971D958384832081D3
:1045D0003181820F931FFC011082F501208131810E
:1045E0002C0F3D1FF7016081718144815581822F1D
:1045F000932F0E94F3369E0121503040C1CFF50128
:104600002481358121503040BBCFDF91CF911F9164
:104610000F91FF90EF90DF90CF90BF90AF909F9061
:104620008F907F906F905F904F903F902F90089564
:10463000CF93DF93EC01EC81FD816E177F0730F59E
:104640004115510519F1CA01860F971FE817F9079F
:1046500018F4AF01461B570B88819981E41BF50BB9
:10466000FD83EC839A01260F371F280F391FAF01F6
:10467000461B570B860F971FB9010E943737E881F9
:10468000F9818C819D81E80FF91F1082DF91CF9114
:104690000895FC01448155816417750720F4461B79
:1046A000570B0E9418230895CF93DF93FC01C0811C
:1046B000D181209751F08881882339F090E00E94C1
:1046C000C636899388818823C9F7DF91CF910895F1
:1046D000CF93DF93FC01C081D181209751F0888175
:1046E000882339F090E00E94CE3689938881882310
:1046F000C9F7DF91CF910895AF92BF92CF92DF9229
:10470000EF92FF920F931F93CF93DF937C01DC0115
:10471000CD90DC901197C114D104E9F11496AD90BD
:10472000BC901597A114B104B1F1E6018E018991F5
:1047300090E00E94BE360097C9F7E5012197CC0DA5
:10474000DD1D888190E00E94BE360097D1F0C01731
:10475000D107B8F02197F5CF8C2D9D2D602F712FAB
:10476000FE014C2F5F2F0E94F336D701ED91FC9193
:10477000119714968D919C911597E80FF91F10824F
:104780000AC02196C01BD10BF701D583C483C01684
:10479000D10658F7E1CFDF91CF911F910F91FF9094
:1047A000EF90DF90CF90BF90AF900895FC01808193
:1047B0009181009729F00E9497369B01AC0103C0BC
:1047C00020E030E0A901622F732F842F952F0895E8
:1047D000FC0180819181009719F00E94933604C0FA
:1047E00060E070E080E090E0089580916D05909128
:1047F0006E05019690936E0580936D050895259A38
:104800002D9A269A2E9A279A2F9AE1E0F1E080813C
:1048100088608083E2E0F1E0808188608083089591
:1048200087B1876F87B988B1807888B90895E0E843
:10483000F0E010828FEF93E09093870080938600E2
:104840002CEF2093850021E0209384009093890031
:104850008093880090938B0080938A0090938D00C2
:1048600080938C008BEA80838CE080938100089594
:10487000E0EAF0E010828FEF93E09093A70080933E
:10488000A6002CEF2093A50021E02093A400909394
:10489000A9008093A8009093AB008093AA00909306
:1048A000AD008093AC008BEA80838CE08093A10004
:1048B0000895682F70E080E090E00E946E342FE64B
:1048C00032E143E05FE30E94243521E73DE34AE023
:1048D00052E40E946D330E944234709389006093C9
:1048E00088000895682F70E080E090E00E946E34A8
:1048F0002FE632E143E05FE30E94243521E73DE308
:104900004AE052E40E946D330E94423470938B005F
:1049100060938A000895682F70E080E090E00E9424
:104920006E342FE632E143E05FE30E94243521E755
:104930003DE34AE052E40E946D330E94423470939A
:104940008D0060938C000895682F70E080E090E007
:104950000E946E342FE632E143E05FE30E9424358B
:1049600021E73DE34AE052E40E946D330E94423465
:104970007093A9006093A80008958FEF93E090933F
:1049800089008093880008958FEF93E090938B00C7
:1049900080938A0008958FEF93E090938D00809329
:1049A0008C0008958FEF93E09093A9008093A80066
:1049B000089510926E0510926D05E2E0F1E021E09D
:1049C000208380916D0590916E058F319105C4F320
:1049D000089510926E0510926D05E2E0F1E022E07C
:1049E000208380916D0590916E0580329105C4F30E
:1049F0000895109202019C01B901882777FD8095E6
:104A0000982F0E941E1508950F931F93CF93DF9345
:104A10008B01EB01C81BD90B1C161D069CF41092D0
:104A20007E0610927D060E94D92480917D06909189
:104A30007E06019690937E0680937D068C179D07D7
:104A400094F324C0DD23F4F410927E0610927D06C8
:104A5000CE01DD2324F4882799278C1B9D0BEC01C4
:104A6000181619069CF40E94E92480917D06909105
:104A70007E06019690937E0680937D068C179D0797
:104A800094F304C088E893E10E94F924802F912FC9
:104A9000DF91CF911F910F91089583E190E0909362
:104AA0006805809367050E94592465E070E080E006
:104AB00090E00E941E15809167059091680503970C
:104AC00090936805809367058A30910564F768E5DF
:104AD00072E080E090E00E941E158AE090E09093E2
:104AE0006805809367050E94592465E070E080E0C6
:104AF00090E00E941E1580916705909168050396CD
:104B000090936805809367058431910564F3089557
:104B1000CF92DF92EF92FF920F931F93CF93DF9389
:104B20008130910509F08AC06115710509F086C0D0
:104B30004115510509F082C080916402909165028F
:104B40009093680580936705209166023091670213
:104B50002817390774F100E512E0CCE4D2E00F2EFB
:104B6000FEE4EF2EF2E0FF2EF02D0E947224F801F9
:104B700080819881891B0E948B248881F701908114
:104B8000891B0E94A4246AE070E080E090E00E940B
:104B90001E158091670590916805029690936805AF
:104BA00080936705209166023091670228173907C4
:104BB000E4F66EE571E080E090E00E941E158091C1
:104BC0006602909167029093680580936705209133
:104BD000640230916502821793070CF4BBC300E5B1
:104BE00012E0CCE4D2E00F2EFEE4EF2EF2E0FF2E36
:104BF000F02D0E947224F80180819881891B0E9407
:104C00008B248881F7019081891B0E94A4246AE08B
:104C100070E080E090E00E941E1580916705909101
:104C20006805029790936805809367052091640258
:104C30003091650282179307E4F68CC3009709F060
:104C400034C16130710509F096C04115510509F074
:104C500092C0809164029091650290936805809360
:104C60006705209166023091670228173907B4F171
:104C7000CCE4D2E000E512E00F2EF7E6EF2EF5E0EF
:104C8000FF2EF02D0F2EFEE4CF2EF2E0DF2EF02DC2
:104C900088810E947224F8018081F7019081891B2C
:104CA0000E948B248881F6019081891B0E94A42494
:104CB0006AE070E080E090E00E941E158091670538
:104CC00090916805029690936805809367052091FE
:104CD00066023091670228173907D4F660E971E05F
:104CE00080E090E00E941E1580916602909167021C
:104CF0009093680580936705209164023091650266
:104D0000821793070CF426C3CCE4D2E000E512E04E
:104D10000F2EF7E6EF2EF5E0FF2EF02D0F2EFEE41E
:104D2000CF2EF2E0DF2EF02D88810E947224F80150
:104D30008081F7019081891B0E948B248881F60174
:104D40009081891B0E94A4246AE070E080E090E0DA
:104D50000E941E15809167059091680502979093B7
:104D6000680580936705209164023091650282177F
:104D70009307D4F6EFC26115710509F096C0413072
:104D8000510509F092C08091640290916502909360
:104D900068058093670520916602309167022817A5
:104DA0003907B4F1CCE4D2E000E512E00F2EF7E6CB
:104DB000EF2EF5E0FF2EF02D0F2EFEE4CF2EF2E0C9
:104DC000DF2EF02D88810E947224F8018081988165
:104DD000891B0E948B24F7018081F6019081891B39
:104DE0000E94A4246AE070E080E090E00E941E151A
:104DF000809167059091680502969093680580936D
:104E00006705209166023091670228173907D4F6AA
:104E10006EE571E080E090E00E941E1580916602D0
:104E200090916702909368058093670520916402D2
:104E300030916502821793070CF48CC2CCE4D2E067
:104E400000E512E00F2EF7E6EF2EF5E0FF2EF02D35
:104E50000F2EFEE4CF2EF2E0DF2EF02D88810E948F
:104E60007224F80180819881891B0E948B24F701AC
:104E70008081F6019081891B0E94A4246AE070E081
:104E800080E090E00E941E15809167059091680572
:104E90000297909368058093670520916402309192
:104EA000650282179307D4F655C28130910509F047
:104EB00098C06130710509F094C04115510509F0A1
:104EC00090C08091640290916502909368058093F0
:104ED0006705209166023091670228173907ACF107
:104EE000C0E5D2E007E615E00F2EFCE4EF2EF2E07D
:104EF000FF2EF02D0F2EFEE4CF2EF2E0DF2EF02D50
:104F00000E9472248881F8019081891B0E948B2461
:104F1000F7018081F6019081891B0E94A4246AE038
:104F200070E080E090E00E941E15809167059091EE
:104F30006805029690936805809367052091660244
:104F40003091670228173907DCF66EE571E080E0E2
:104F500090E00E941E1580916602909167029093E6
:104F6000680580936705209164023091650282177D
:104F700093070CF4EFC1C0E5D2E007E615E00F2E71
:104F8000FCE4EF2EF2E0FF2EF02D0F2EFEE4CF2EEC
:104F9000F2E0DF2EF02D0E9472248881F8019081CA
:104FA000891B0E948B24F7018081F6019081891B67
:104FB0000E94A4246AE070E080E090E00E941E1548
:104FC000809167059091680502979093680580939A
:104FD0006705209164023091650282179307DCF621
:104FE000B9C1009709F09AC06130710509F096C007
:104FF0004130510509F092C08091640290916502A0
:10500000909368058093670520916602309167024E
:1050100028173907B4F10CE412E00F2EF0E5EF2E5B
:10502000F2E0FF2EF02DC7E6D5E00F2EFEE4CF2EE6
:10503000F2E0DF2EF02DF80180810E947224F7014A
:1050400080819881891B0E948B248881F601908140
:10505000891B0E94A4246AE070E080E090E00E9436
:105060001E158091670590916805029690936805DA
:1050700080936705209166023091670228173907EF
:10508000D4F66EE571E080E090E00E941E158091FC
:10509000660290916702909368058093670520915E
:1050A000640230916502821793070CF453C10CE43B
:1050B00012E00F2EF0E5EF2EF2E0FF2EF02DC7E606
:1050C000D5E00F2EFEE4CF2EF2E0DF2EF02DF8011A
:1050D00080810E947224F70180819881891B0E943F
:1050E0008B248881F6019081891B0E94A4246AE0A8
:1050F00070E080E090E00E941E158091670590911D
:105100006805029790936805809367052091640273
:105110003091650282179307D4F61CC18130910546
:1051200009F018C16115710509F094C041305105AD
:1051300009F090C080916402909165029093680597
:10514000809367052091660230916702281739071E
:10515000ACF1C0E5D2E00CE412E00F2EF7E6EF2E42
:10516000F5E0FF2EF02D0F2EFEE4CF2EF2E0DF2E25
:10517000F02D0E9472248881F8019081891B0E9481
:105180008B24F7018081F6019081891B0E94A42461
:105190006AE070E080E090E00E941E158091670553
:1051A0009091680502969093680580936705209119
:1051B00066023091670228173907DCF66EE571E068
:1051C00080E090E00E941E15809166029091670237
:1051D0009093680580936705209164023091650281
:1051E000821793070CF4B6C0C0E5D2E00CE412E0DD
:1051F0000F2EF7E6EF2EF5E0FF2EF02D0F2EFEE43A
:10520000CF2EF2E0DF2EF02D0E9472248881F8016B
:105210009081891B0E948B24F7018081F601908187
:10522000891B0E94A4246AE070E080E090E00E9464
:105230001E15809167059091680502979093680507
:10524000809367052091640230916502821793076D
:10525000DCF680C06130710509F07CC04130510539
:1052600009F078C08091640290916502909368057E
:1052700080936705209166023091670228173907ED
:1052800074F100E512E0C7E6D5E00F2EFEE4EF2E44
:10529000F2E0FF2EF02D0E947224F80180819881A7
:1052A000891B0E948B248881F7019081891B0E94B1
:1052B000A4246AE070E080E090E00E941E158091D6
:1052C000670590916805029690936805809367053D
:1052D000209166023091670228173907E4F66EE5DF
:1052E00071E080E090E00E941E158091660290912E
:1052F000670290936805809367052091640230915E
:1053000065028217930734F100E512E0C7E6D5E0A5
:105310000E947224F80180819881891B0E948B244D
:10532000888186500E94A4246AE070E080E090E0CA
:105330000E941E15809167059091680502979093D1
:105340006805809367052091640230916502821799
:105350009307F4F6DF91CF911F910F91FF90EF909B
:10536000DF90CF900895E1ECF0E010821092C00041
:10537000A2ECB0E086E08C939FE59093C40010927D
:10538000C50098E990838C9388E180830895E0ECD0
:10539000F0E0908195FFFDCF8093C60008951F92A5
:1053A0000F920FB60F9211248F938091C6008093B5
:1053B00060058F910F900FBE0F901F901895E0EC35
:1053C000F0E080818823ECF78091C6000895EF9289
:1053D000FF920F931F93CF93DF930E94B3290FE99E
:1053E00015E0E801609678010E94DF29F7018193BA
:1053F0007F01EC17FD07C1F7F80181918F010E9431
:10540000C7290C171D07C1F70FEB15E0E801A89697
:1054100078010E94DF29F70181937F01EC17FD07D6
:10542000C1F7F80181918F010E94C7290C171D0750
:10543000C1F70FEA15E0E801609678010E94DF29C4
:10544000F70181937F01EC17FD07C1F7F801819106
:105450008F010E94C7290C171D07C1F712B881E000
:1054600090E09093640580936305DF91CF911F9145
:105470000F91FF90EF9008952F923F924F925F927D
:105480006F927F928F929F92AF92BF92CF92DF9254
:10549000EF92FF920F931F93DF93CF9300D00F9261
:1054A0000F92CDB7DEB70F2EFFE9CF2EF5E0DF2E3E
:1054B000F02DAA24BB2400E010E076010F2EFFE6B9
:1054C0008F2EF5E09F2EF02D10C0D6018D916D012D
:1054D0008C3249F0F401EA0DFB1D80830E94C7293C
:1054E0000894A11CB11C0F5F1F4FC801F701019068
:1054F0000020E9F73197EE19FF090E171F0728F36F
:1055000005C0F8014081F901408307C0AFE6B5E06E
:10551000980121573A4F0A0F1B1FFD0101900020EF
:10552000E9F73197EA1BFB0B8E179F0750F34FEA01
:1055300055E020E030E080E090E0DA016FE775E0D0
:105540000CC0FA010191AF010C3231F0FB01E20F06
:10555000F31F00832F5F3F4F0196FD010190002054
:10556000E9F73197EA1BFB0B8E179F0750F319C021
:10557000D801A154BA4FC5012D912C3209F4D4C0E1
:10558000F70101900020E9F73197EE19FF090E1796
:105590001F0708F0C9C0FC012193CF010F5F1F4F07
:1055A000EBCF0F2EF1EF8F2EF5E09F2EF02D640143
:1055B00000E010E00F2EFFEBEF2EF5E0FF2EF02DB8
:1055C0005E010894A11CB11CF70101900020E9F7CD
:1055D0003197EE19FF090E171F0750F20FE815E07B
:1055E000EE24FF246894E3F8E00EF11ED8018D91BB
:1055F0008D010E94C7290E151F05C1F70FE615E0A2
:105600000F2EFFE7EF2EF5E0FF2EF02DAA24BB248E
:105610006894A4F8A00EB11E44245524662477246F
:105620000F2EF1E12F2EF6E03F2EF02D6801F8014C
:1056300080818035F1F480E70E94C729F101E60DF1
:10564000F71DD7018C918083C301880F991F880FA4
:10565000991F9C01255E394FF40180819181A281BF
:10566000B381F90180839183A283B3830894611C81
:10567000711C0F5F1F4FD6018C918435F1F484E7C4
:105680000E94C729F201ED5BF94FD7018C9180830D
:10569000F201EE0FFF1FEE0FFF1F9F01235B394F3B
:1056A000F40180819181A281B381F901808391838A
:1056B000A283B3830894411C511C0894E11CF11C83
:1056C00084E090E0880E991E0A151B0509F0AECF04
:1056D000F301EE0FFF1FEE0FFF1FE55EF94F80E0B5
:1056E00090E0A0E4B1E480839183A283B383F301CB
:1056F000EF5EF94F81E380830F900F900F900F9032
:105700000F90CF91DF911F910F91FF90EF90DF905D
:10571000CF90BF90AF909F908F907F906F905F9051
:105720004F903F902F9008950F5F1F4FC5010E942B
:105730009336D6016D937D938D939D936D0144CFE8
:10574000AF92BF92CF92DF92EF92FF920F931F938F
:105750005B016C01609184067091850680918606DC
:105760009091870628EE33E040E050E00E94BD357E
:10577000CA01B9010E946E347B018C01A60195011A
:105780000E94D13388230CF043C0C601B501A801A3
:1057900097010E946C33E62EF72E082F192F20E078
:1057A00030E0A9010E94203518168CF4C801B70119
:1057B00020E030E04AE754E40E94243520E030E85D
:1057C0004BEB54E40E946C330E943D3411C0C8017D
:1057D000B701905820E030E04AE754E40E942435B5
:1057E00020E030E84BEB54E40E946C330E943D34DF
:1057F00070937A0660937906772324F410927A06E0
:10580000109279068091790690917A060E94F92487
:105810001F910F91FF90EF90DF90CF90BF90AF90CE
:105820000895CF92DF92EF92FF920F931F93062F6E
:10583000172F833409F4B0C0843448F48134A1F0C4
:10584000823408F05DC0813309F06EC221C2853414
:1058500009F43AC1853408F4EBC0863409F480C1F8
:10586000873409F061C2C8C160915C0270915D0229
:105870007093780660937706802F912F0E940425FD
:10588000082F192F0E94E5149B01AC018091880616
:1058900090918906A0918A06B0918B0669017A01E0
:1058A000C81AD90AEA0AFB0AC0928406D092850671
:1058B000E0928606F092870682E390E00E94F92447
:1058C000E0917F06F0918006EE0FFF1FEE0FFF1FA5
:1058D000E55EF94F60817181828193810E94A02BE6
:1058E0000E944D2580917F069091800601969093AD
:1058F000800680937F0682E390E00E94F92416C21E
:1059000060915E0270915F027093780660937706F3
:10591000802F912F0E940425082F192F0E94E51433
:105920009B01AC018091880690918906A0918A061E
:10593000B0918B0669017A01C81AD90AEA0AFB0AF2
:10594000C0928406D0928506E0928606F092870681
:1059500082E390E00E94F924E0917F06F0918006B6
:10596000EE0FFF1FEE0FFF1FE55EF94F60817181A3
:10597000828193810E94A02B0E944D2580917F06F9
:105980009091800601969093800680937F0682E333
:1059900090E00E94F924CAC16091520270915302B2
:1059A0007093780660937706802F912F0E940425CC
:1059B000082F192F0E94E5149B01AC0180918806E5
:1059C00090918906A0918A06B0918B0669017A01AF
:1059D000C81AD90AEA0AFB0AC0928406D092850640
:1059E000E0928606F092870682E390E00E94F92416
:1059F000E0917F06F0918006EE0FFF1FEE0FFF1F74
:105A0000E55EF94F60817181828193810E94A02BB4
:105A10000E944D2580917F0690918006019690937B
:105A2000800680937F0682E390E00E94F9247EC185
:105A300060915402709155027093780660937706D6
:105A4000802F912F0E940425082F192F0E94E51402
:105A50009B01AC018091880690918906A0918A06ED
:105A6000B0918B0669017A01C81AD90AEA0AFB0AC1
:105A7000C0928406D0928506E0928606F092870650
:105A800082E390E00E94F924E0917F06F091800685
:105A9000EE0FFF1FEE0FFF1FE55EF94F6081718172
:105AA000828193810E94A02B0E944D2580917F06C8
:105AB0009091800601969093800680937F0682E302
:105AC00090E00E94F92432C1609156027091570211
:105AD0007093780660937706802F912F0E9404259B
