S00B0000426F742E73726563F4
S11300000C949F010C941A130C944B130C947C13B2
S11300100C94AD130C94DE130C940F140C94401434
S11300200C9471140C94D2010C94D2010C94D2014E
S11300300C94D2010C9408120C94D2010C94D201A9
S11300400C94D2010C94D2010C94D2010C94D201E0
S11300500C94D2010C94D2010C94D2010C94A214ED
S11300600C94D2010C94D2250C9458030C94D20114
S11300700C94D2010C94D2010C94D2010C94D201B0
S11300800C94D2010C94D2010C94D2010C94D201A0
S11300900C9483020C9497030C94D2010C94D20117
S11300A00C94D2010C94D2010C94D2010C94D20180
S11300B00C94D2010C94D2010C94D2010C94D20170
S11300C00C94D2010C94D2010C94D2010C94C2026F
S11300D00C94D6030C94D2010C9401030C941504D3
S11300E00C94D201020000090A02080B0C0D070649
S11300F003040100000000000000000000000000F4
S113010000000000000000000000000000000000EB
S11301100011100F000000000000000000000000AB
S11301200000000000000000000000010210202078
S11301300808102040102040800201020108040237
S113014001010204081020408080402010080402AD
S11301500180040201804020100804020108040206
S1130160010102040810204080010204081020400C
S11301708005050505070508080808020202020AA9
S11301800A08080404040401010101010101010336
S113019003030303030303040707070C0C0C0C0CF1
S11301A00C0C0C0202020206060606060606060BE4
S11301B00B0B0B0B0B0B0B0000200023002600295C
S11301C0002C002F00320000010000030106010989
S11301D00100002200250028002B002E00310034ED
S11301E00002010000050108010B010000210024A8
S11301F00027002A002D0030003300010100000414
S11302000107010A01494E46494E4954594E414E8F
S1130210000020410000C84200401C4620BCBE4CE7
S1130220CA1B0E5AAEC59D74CDCCCC3D0AD7233C17
S113023017B7D13877CC2B329595E6241FB14F0AE6
S113024000407A10F35A00A0724E18090010A5D489
S1130250E80000E87648170000E40B54020000CAE6
S11302609A3B000000E1F50500008096980000002C
S113027040420F000000A08601000000102700008B
S11302800000E803000000006400000000000A0011
S1130290000000000100000000002C76D888DC6714
S11302A04F0823DFC1DFAE59E1B1B796E5E3E4536C
S11302B0C63AE651997696E8E6C28426EB898C9B89
S11302C062ED407C6FFCEFBC9C9F40F2BAA56FA529
S11302D0F490055A2AF75C936B6CF9676DC11BFCAB
S11302E0E0E40D47FEF520E6B500D0ED902E0300C6
S11302F0943577050080841E080000204E0A000013
S113030000C80C333333330F986E12831141EF8DD1
S11303102114893BE65516CFFEE6DB18D1844B3811
S11303201BF77C1D901DA4BBE424203284725E2242
S11303308100C9F124ECA1E53D27A1061D08112483
S11303401FBECFEFD1E2DEBFCDBF00E00CBF12E095
S1130350A0E0B2E0EEE7F8E700E00BBF02C00790D0
S11303600D92AE36B107D9F71BBE16E0AEE6B2E089
S113037001C01D92A239B107E1F713E0CEE3D3E047
S113038000E006C022970109FE010BBF0E94363629
S1130390CA33D10780E00807A9F71BBE0E942C08C6
S11303A00C943D3C0C940000FC0124853585F90136
S11303B0E05CFF4F808191812E5B3F4FF9012081EA
S11303C03181805C9F4F821B930B60E470E00E943C
S11303D0D2350895FC0184859585FC01E05CFF4FCE
S11303E020813181FC01EE5BFF4F40815181241754
S11303F0350759F0FC01EE5BFF4F20813181820FFC
S1130400931FFC01808190E008958FEF9FEF089582
S1130410DC011C968D919C911D97FC01E05CFF4FC3
S113042020813181FC01EE5BFF4F40815181241713
S1130430350799F0FC01EE5BFF4F20813181820F7B
S1130440931FDC018C91208131812F5F3F4F2F73EB
S113045030703183208390E008958FEF9FEF0895EB
S1130460FC0181A1882329F0A489B5898C9186FF98
S1130470FBCF11A20895DC011E964D915C911F974C
S1130480FA01E05CFF4F208131812F5F3F4F2F73D2
S11304903070FA01EE5BFF4F808191812817390794
S11304A0D9F3FA01E05CFF4F80819181840F951F9D
S11304B0FC0160831E96ED91FC911F97E05CFF4F59
S11304C0318320835696ED91FC915797408121E02A
S11304D030E0C9015F960C905F9702C0880F991FA6
S11304E00A94E2F7842B808381E091968C93919710
S11304F05496ED91FC91559780818064808381E0CE
S113050090E0089508951F920F920FB60F920BB6C4
S11305100F9211242F933F934F938F939F93EF93B5
S1130520FF938091C80082FD1CC04091CE00809151
S11305308A0490918B0401968F73907020918C049F
S113054030918D048217930771F0E0918A04F09141
S11305508B04E65BFB4F408390938B0480938A0467
S113056002C08091CE00FF91EF919F918F914F91A6
S11305703F912F910F900BBE0F900FBE0F901F90C5
S1130580189508951F920F920FB60F920BB60F9203
S113059011242F933F934F938F939F93EF93FF9344
S11305A08091D00082FD1CC04091D600809102044D
S11305B09091030401968F739070209104043091FC
S11305C005048217930771F0E0910204F09103048B
S11305D0EE53FC4F4083909303048093020402C0C3
S11305E08091D600FF91EF919F918F914F913F9110
S11305F02F910F900BBE0F900FBE0F901F90189568
S113060008951F920F920FB60F920BB60F921124FA
S11306102F933F934F938F939F93EF93FF938091E7
S1130620300182FD1CC04091360180917A03909183
S11306307B0301968F73907020917C0330917D032E
S11306408217930771F0E0917A03F0917B03E65CE3
S1130650FC4F408390937B0380937A0302C0809184
S11306603601FF91EF919F918F914F913F912F917F
S11306700F900BBE0F900FBE0F901F90189582EB3A
S113068092E00E94D401009711F00E94820280E956
S113069092E00E94D401009711F00E94C1028EE6FC
S11306A092E00E94D401009711F00E940003089583
S11306B01F920F920FB60F920BB60F9211242F9325
S11306C03F938F939F93EF93FF932091CE043091A8
S11306D0CF048091D0049091D1042817390731F4C4
S11306E0E1ECF0E080818F7D808314C0E091D00440
S11306F0F091D104E257FB4F20818091D004909176
S1130700D10401968F7390709093D1048093D00498
S11307102093C600FF91EF919F918F913F912F916C
S11307200F900BBE0F900FBE0F901F9018951F9245
S11307300F920FB60F920BB60F9211242F933F9383
S11307408F939F93EF93FF93209146043091470436
S113075080914804909149042817390731F4E9EC51
S1130760F0E080818F7D808314C0E0914804F09193
S11307704904EA5FFB4F2081809148049091490429
S113078001968F739070909349048093480420934A
S1130790CE00FF91EF919F918F913F912F910F90F8
S11307A00BBE0F900FBE0F901F9018951F920F92C3
S11307B00FB60F920BB60F9211242F933F938F9382
S11307C09F93EF93FF932091BE033091BF038091D9
S11307D0C0039091C1032817390731F4E1EDF0E02B
S11307E080818F7D808314C0E091C003F091C103A8
S11307F0E258FC4F20818091C0039091C10301967F
S11308008F7390709093C1038093C0032093D6009C
S1130810FF91EF919F918F913F912F910F900BBE7C
S11308200F900FBE0F901F9018951F920F920FB646
S11308300F920BB60F9211242F933F938F939F9394
S1130840EF93FF932091360330913703809138035F
S1130850909139032817390731F4E1E3F1E08081FD
S11308608F7D808314C0E0913803F0913903EA50FE
S1130870FD4F2081809138039091390301968F7345
S11308809070909339038093380320933601FF913D
S1130890EF919F918F913F912F910F900BBE0F90ED
S11308A00FBE0F901F9018958F929F92AF92BF9298
S11308B0CF92DF92EF92FF920F931F93CF93DF9328
S11308C0CDB7DEB7FC011382128288EE93E0A0E07C
S11308D0B0E084839583A683B7838AE092E0918312
S11308E080837587648757874687318B208B138B6A
S11308F0028BF58AE48AD78AC68AB18EA08E938E3B
S1130900828E8889848F8989858F8A89868F8B894D
S1130910878F8C8980A3DF91CF911F910F91FF90D6
S1130920EF90DF90CF90BF90AF909F908F900895FD
S11309302F923F924F925F926F927F928F929F92EB
S1130940AF92BF92CF92DF92EF92FF920F931F93D9
S1130950CF93DF938C016A017B01C1E0403021EE2B
S1130960520720E0620720E0720721F4C0E002C0D1
S1130970CD2F18C02224332423940F2EF0E08F2E81
S1130980F9E09F2EFDE3AF2EF0E0BF2EF02D0F2EE9
S1130990F0E84F2EF4E85F2EFEE16F2EF0E07F2E9C
S11309A0F02DD0E0CC23F1F0D8015496ED91FC91D8
S11309B05597C10190960C9002C0880F991F0A9414
S11309C0E2F78083C501B401A70196010E94E535D1
S11309D0DA01C9010197A109B109B695A7959795BF
S11309E0879515C0D8015496ED91FC9155971082C6
S11309F0C301B201A70196010E94E535DA01C901DC
S1130A000197A109B109B695A79597958795B0E186
S1130A1080309B0718F0CC2309F0AACFD801509658
S1130A20ED91FC91519790835296ED91FC915397DF
S1130A30808391961C9291975696ED91FC915797CD
S1130A40408121E030E0C9015C960C905C9702C0C3
S1130A50880F991F0A94E2F7842B80835696ED91B0
S1130A60FC9157974081C9015D960C905D9702C037
S1130A70880F991F0A94E2F7842B80835696ED9190
S1130A80FC9157974081C9015E960C905E9702C015
S1130A90880F991F0A94E2F7842B80835696ED9170
S1130AA0FC91579780815F960C905F9702C0220F4C
S1130AB0331F0A94E2F7209528232083DF91CF91F6
S1130AC01F910F91FF90EF90DF90CF90BF90AF9068
S1130AD09F908F907F906F905F904F903F902F905A
S1130AE008953F924F925F926F927F928F929F925E
S1130AF0AF92BF92CF92DF92EF92FF920F931F9328
S1130B00CF93DF938C016A017B01322EC1E0403028
S1130B1021EE520720E0620720E0720721F4C0E0D2
S1130B2002C0CD2F15C00F2EF0E08F2EF9E09F2EBE
S1130B30FDE3AF2EF0E0BF2EF02D0F2EF0E84F2E88
S1130B40F4E85F2EFEE16F2EF0E07F2EF02DD0E072
S1130B50CC23F9F0D8015496ED91FC91559781E09E
S1130B6090E090960C9002C0880F991F0A94E2F7C7
S1130B708083C501B401A70196010E94E535DA011D
S1130B80C9010197A109B109B695A79597958795CC
S1130B9015C0D8015496ED91FC9155971082C3016C
S1130BA0B201A70196010E94E535DA01C901019756
S1130BB0A109B109B695A79597958795B0E18030BD
S1130BC09B0718F0CC2309F0ACCFD8015096ED91D7
S1130BD0FC91519790835296ED91FC9153978083A9
S1130BE05896ED91FC91599730825696ED91FC916F
S1130BF05797408121E030E0C9015C960C905C97E6
S1130C0002C0880F991F0A94E2F7842B80835696BA
S1130C10ED91FC9157974081C9015D960C905D97C9
S1130C2002C0880F991F0A94E2F7842B808356969A
S1130C30ED91FC9157974081C9015E960C905E97A7
S1130C4002C0880F991F0A94E2F7842B808356967A
S1130C50ED91FC91579780815F960C905F9702C04D
S1130C60220F331F0A94E2F7209528232083DF9173
S1130C70CF911F910F91FF90EF90DF90CF90BF9095
S1130C80AF909F908F907F906F905F904F903F9028
S1130C900895CF93DF93EC01EE85FF85DF01A05C1F
S1130CA0BF4FEE5BFF4F8D919C9111972081318155
S1130CB082179307C1F7EE89FF89408121E030E074
S1130CC0C9010C8C02C0880F991F0A94E2F7809521
S1130CD084238083EE89FF894081C9010D8C02C081
S1130CE0880F991F0A94E2F7809584238083EE8904
S1130CF0FF894081C9010E8C02C0880F991F0A9494
S1130D00E2F7809584238083EE89FF8980810F8CAC
S1130D1002C0220F331F0A94E2F720952823208370
S1130D208C859D85FC01EE5BFF4F20813181805CC9
S1130D309F4FFC0131832083DF91CF91089581E09F
S1130D4008955F926F927F928F929F92AF92BF921B
S1130D50CF92DF92EF92FF920F931F93CF93DF9383
S1130D6000D00F920F92EDB7FEB73196C4E0ADB745
S1130D70BEB71196CC93D3E0D1830F2EF7E07F2E2C
S1130D80F02D72820F2EF5E06F2EF02D6382552424
S1130D905394548284ED92E062ED74E04EE854E0A2
S1130DA025EC30E004EC10E00F2EF0ECEF2EFF24E5
S1130DB0F02D0F2EF1ECCF2EDD24F02D0F2EF2ECC2
S1130DC0AF2EBB24F02D0F2EF6EC8F2E9924F02D90
S1130DD00E945404EDB7FEB73196ADB7BEB7119675
S1130DE0CC93D18372826382548282EB92E06AE470
S1130DF074E046E054E02DEC30E00CEC10E00F2EF3
S1130E00F8ECEF2EFF24F02D0F2EF9ECCF2EDD247D
S1130E10F02D0F2EFAECAF2EBB24F02D0F2EFEEC8E
S1130E208F2E9924F02D0E945404EDB7FEB731960D
S1130E30ADB7BEB71196CC93D183728263825482CC
S1130E4080E992E062EC73E04EE753E025ED30E098
S1130E5004ED10E00F2EF0EDEF2EFF24F02D0F2EF9
S1130E60F1EDCF2EDD24F02D0F2EF2EDAF2EBB24AD
S1130E70F02D0F2EF6ED8F2E9924F02D0E945404A0
S1130E80EDB7FEB73196ADB7BEB71196CC93D1830B
S1130E907282638254828EE692E06AE373E046EFE4
S1130EA052E025E331E004E311E00F2EF0E3EF2EEE
S1130EB0F1E0FF2EF02D0F2EF1E3CF2EF1E0DF2E27
S1130EC0F02D0F2EF2E3AF2EF1E0BF2EF02D0F2EFA
S1130ED0F6E38F2EF1E09F2EF02D0E9454040F9024
S1130EE00F900F900F900F90DF91CF911F910F9162
S1130EF0FF90EF90DF90CF90BF90AF909F908F9036
S1130F007F906F905F9008958F929F92AF92BF925F
S1130F10CF92DF92EF92FF920F931F93CF93DF93C1
S1130F204C017B01AA24BB246894A1F8A80EB91E25
S1130F3000E010E0CC24DD24F50161915F01C701DC
S1130F404AE050E00E94150AEC01C7016EE20E94DB
S1130F50DC088C0F9D1FC80ED91E0F5F1F4F033076
S1130F60110551F7C701F40165814AE050E00E9480
S1130F70150A8C0D9D1DDF91CF911F910F91FF904C
S1130F80EF90DF90CF90BF90AF909F908F90089597
S1130F90FC018AE292E0918380831282138214829C
S1130FA0158208950F93FC018AE292E09183808375
S1130FB062834383248305830F910895FC018AE2AD
S1130FC092E091838083428353836483758308957D
S1130FD0CF93DF93FC018AE292E091838083EB015B
S1130FE088819981AA81BB8182839383A483B583F9
S1130FF0DF91CF910895FB0140815181628173811A
S1131000FC0142835383648375830895FC01428306
S113101053836483758308959C012E5F3F4FCB01F6
S1131020B90144E050E00E941B37282F392F81E09A
S11310302115310509F080E008950F9386E195E0CC
S113104060E040E020E000E00E94D2070F910895A4
S113105080E090E0089508950E9462150E942B0894
S11310600E9480300E94CA308FE393E0009729F0F9
S11310700E943F030E94CA30FBCF0E94CA30FDCFBA
S11310800E94593108950E94593108950E940632F0
S113109008950E940632089521E030E0FC01808129
S11310A0882311F020E030E0822F932F089521E06F
S11310B0FC012083089508950895CF92DF92EF9262
S11310C0FF920F931F93CF93DF936C017B01EA018F
S11310D0209791F000E010E0D7016D917D01D601D9
S11310E0ED91FC910190F081E02DC6011995080F56
S11310F0191F219789F702C000E010E0802F912F7B
S1131100DF91CF911F910F91FF90EF90DF90CF90DF
S11311100895EF92FF920F931F93CF93DF937C0177
S1131120EB01FB016491662391F0219600E010E04D
S1131130F701A081B181ED91FC91C7011995080FC8
S1131140191FFE0121966491662391F702C000E005
S113115010E0802F912FDF91CF911F910F91FF907D
S1131160EF900895CF93DF93FB01EC01A881B9813F
S113117060817181448155811296ED91FC911397A0
S11311801995DF91CF9108956115710591F0E62FBE
S1131190F72FDF010D900020E9F71197AD014E1BE9
S11311A05F0BDC01ED91FC910280F381E02D199538
S11311B0089580E090E00895DC01ED91FC910190A8
S11311C0F081E02D199508959C01CB01DB01ED918F
S11311D0FC910190F081E02DB901199508950F93C8
S11311E01F93CF93DF938C016DE00E94DC08EC0128
S11311F0C8016AE00E94DC088C0F9D1FDF91CF912B
S11312001F910F9108950F931F93CF93DF938C0138
S11312100E948908EC01C8010E94EF088C0F9D1FF1
S1131220DF91CF911F910F9108950F931F93CF9347
S1131230DF938C010E94B208EC01C8010E94EF0800
S11312408C0F9D1FDF91CF911F910F9108950F93E4
S11312501F93CF93DF938C010E94C408EC01C80153
S11312600E94EF088C0F9D1FDF91CF911F910F916A
S113127008950F931F93CF93DF938C010E94DC0892
S1131280EC01C8010E94EF088C0F9D1FDF91CF91E4
S11312901F910F9108950F931F93CF93DF938C01A8
S11312A00E94E408EC01C8010E94EF088C0F9D1F06
S11312B0DF91CF911F910F9108954F925F926F929A
S11312C07F928F929F92AF92BF92CF92DF92EF92D2
S11312D0FF920F931F93CF93DF93CDB7DEB7A19700
S11312E00FB6F894DEBF0FBECDBF4C01142F352FBF
S11312F0862F972F022F19A2223008F40AE00F2E0E
S1131300F1E2AF2EBB24F02DAC0EBD1E402E5524B1
S11313106624772403C0122F842F952F612F732FF7
S1131320A30192010E94E535C22ED32EE42EF52EA0
S1131330029F802D1124181B0894A108B1081A30AB
S113134010F4105D01C0195CD5011C93C114D104C3
S1131350E104F10401F7A114B104A1F0EA2DFB2D7D
S1131360DF010D900020E9F71197AD014E1B5F0BD3
S1131370D401ED91FC910280F381E02DC401B5010B
S1131380199502C080E090E0A1960FB6F894DEBFF4
S11313900FBECDBFDF91CF911F910F91FF90EF90C2
S11313A0DF90CF90BF90AF909F908F907F906F9081
S11313B05F904F9008952115310549F4DC01ED91BA
S11313C0FC910190F081E02D642F199508950E94FD
S11313D05D0908950F931F93CF93DF938C010E94AF
S11313E0DB09EC01C8010E94EF088C0F9D1FDF91FF
S11313F0CF911F910F9108959A01AB0160E070E0C5
S11314000E94DB0908950F931F93CF93DF938C0100
S11314100E94FC09EC01C8010E94EF088C0F9D1F7B
S1131420DF91CF911F910F9108959A01462F50E0BB
S113143060E070E00E94DB0908950F931F93CF933F
S1131440DF938C010E94150AEC01C8010E94EF0889
S11314508C0F9D1FDF91CF911F910F910895CF9213
S1131460DF92EF92FF920F931F93CF93DF93EC01E0
S11314706A017B012115310541F4E881F98101906C
S1131480F081E02D642F19951DC02A303105C1F477
S1131490772394F46DE20E94DC088C0144275527DD
S11314A0BA014C195D096E097F09CE012AE00E9438
S11314B05D09800F911F06C02AE00E945D0902C0E9
S11314C00E945D09DF91CF911F910F91FF90EF90E2
S11314D0DF90CF9008950F931F93CF93DF938C01E8
S11314E00E942F0AEC01C8010E94EF088C0F9D1F77
S11314F0DF91CF911F910F9108959A01FB01AF01E4
S1131500662757FD6095762F0E942F0A08950F9342
S11315101F93CF93DF938C010E947D0AEC01C801D5
S11315200E94EF088C0F9D1FDF91CF911F910F91A7
S113153008952F923F924F925F926F927F928F9273
S11315409F92BF92CF92DF92EF92FF920F931F93DD
S1131550CF93DF934C012A013B01B22ECB01BA0198
S1131560A30192010E94AF35882339F0C40162E3DC
S113157072E00E94C4082C01EEC073016201E89479
S1131580F7F8C1E0C701B6012FEF3FEF4FE75FE780
S11315900E94AF35882359F4C701B6012FEF3FEFFE
S11315A04FE75FE70E94F93318160CF4C0E0CC2330
S11315B039F4C40166E372E00E94C4082C01CBC074
S11315C0C301B2012FEF3FEF4FE75FE40E944835BC
S11315D018163CF4C4016AE372E00E94C4082C01AA
S11315E0BAC0C301B2012FEF3FEF4FE75FEC0E9497
S11315F0F93388233CF4C4016AE372E00E94C4080E
S11316002C01A9C0C301B20120E030E0A9010E946D
S1131610F933882354F4C4016DE20E94DC081C01F0
S113162077FA709477F8709402C022243324BB2094
S113163009F4A5C0C0E050E040E030E02FE3852F7E
S1131640942FA32FB22FBC01CD0120E030E040E263
S113165051E40E94FD33562F472F382F292FCF5F97
S1131660CB1569F7C301B201E22F052F142F232FE5
S11316703E2FA90198010E949533162F072FF82EAB
S1131680C92E862F902FAF2DBC2DBC01CD010E94F9
S11316906A34C62F472ED82FE92E0E9496349B0118
S11316A0AC01812F902FAF2DBC2DBC01CD010E9428
S11316B09433062FF72EC82E192FC4014C2F542D06
S11316C06D2F7E2D2AE030E00E94DB09EC01C4017D
S11316D06EE372E00E94C408C80FD91F2E01420CA9
S11316E0531C802F9F2DAC2DB12FBC01CD0120E0C8
S11316F030E040E251E40E944C35162FC72E082FEB
S1131700F92E862F9C2DA02FBF2DBC01CD010E9448
S11317106534AB01BC01EA01C401BA014AE050E0FE
S11317200E947D0A480E591EBE01882777FD8095C8
S1131730982F0E9498349B01AC01812F9C2DA02FDF
S1131740BF2DBC01CD010E949433062FF72EC82E65
S1131750192FBA9431F6842D952DDF91CF911F91D5
S11317600F91FF90EF90DF90CF90BF909F908F905C
S11317707F906F905F904F903F902F900895C3019A
S1131780B20120E030E040E05FE30E9495330E9424
S11317906A34AB01BC01C4012AE030E00E94DB09D9
S11317A02C01420C531CD7CF0E94990A08950F9321
S11317B01F93CF93DF938C010E94D40BEC01C801DB
S11317C00E94EF088C0F9D1FDF91CF911F910F9105
S11317D00895CF93DF93EC010E94EC14DC01CB015C
S11317E088879987AA87BB87E881F9810680F78172
S11317F0E02DCE0119959923BCF40E94EC14AB01A1
S1131800BC0188859985AA85BB85481B590B6A0B41
S11318107B0B8C819D81AE81BF81481759076A0774
S11318207B0710F38FEF9FEFDF91CF910895CF9354
S1131830DF93EC010E94EC14DC01CB0188879987CB
S1131840AA87BB87E881F9810084F185E02DCE0168
S113185019959923BCF40E94EC14AB01BC01888552
S11318609985AA85BB85481B590B6A0B7B0B8C8118
S11318709D81AE81BF81481759076A077B0710F322
S11318808FEF9FEFDF91CF910895CF93DF93EC011A
S1131890CE010E94170C99238CF08D32910571F0C2
S11318A09C01205330402A30310540F0E881F98111
S11318B00680F781E02DCE011995EACFDF91CF9113
S11318C00895FC01448355836683778308954F927A
S11318D05F926F927F928F929F92AF92BF92CF92BC
S11318E0DF92EF92FF920F931F93CF93DF934C01FC
S11318F07B012A0139015801FB0180818823C9F148
S113190000E010E0C0E0D0E0CC24DD2429C0F701E1
S1131910EC0FFD1F808190E08217930739F0F701E7
S1131920808190E08217930731F4E6012196C41573
S1131930D50510F020C0E601A114B10471F0F30143
S1131940E00FF11F808190E08217930741F40F5F4D
S11319501F4F0A151B0520F010C0860101C0860127
S1131960C4010E94E90B9C011816190684F280E058
S113197005C081E003C081E001C080E0DF91CF9128
S11319801F910F91FF90EF90DF90CF90BF90AF9099
S11319909F908F907F906F905F904F9008950F93DA
S11319A01F93242F352FE62FF72FDF010D900020F2
S11319B0E9F71197AD014E1B5F0BE22FF32FDF0107
S11319C00D900020E9F711978D010E1B1F0B0E944B
S11319D0670C1F910F91089540E050E00E94CF0CD6
S11319E008950F931F9320E030E000E010E00E9480
S11319F0670C1F910F9108958F929F92AF92BF929F
S1131A00CF92DF92EF92FF920F931F93CF93DF93C6
S1131A107C01C62F0E94450C8C0199230CF453C001
S1131A20882499245401DD24D0E0CC24C394C01725
S1131A30D10751F10D32110531F1C801C0978A3037
S1131A40910510F5C501B4012AE030E040E050E012
S1131A500E94B335DC01CB01222717FD2095322FDC
S1131A60080F191F2A1F3B1F0F2EF0ED8F2EFFEFBB
S1131A709F2EFFEFAF2EFFEFBF2EF02D800E911E95
S1131A80A21EB31E01C0DC2CD701ED91FC9106808F
S1131A90F781E02DC7011995C7010E94170C8C012D
S1131AA0C0978A30910518F2C017D10709F4BFCF47
S1131AB0DD2061F0B094A09490948094811C911CDA
S1131AC0A11CB11C03C0882499245401682D792DCC
S1131AD08A2D9B2DDF91CF911F910F91FF90EF9055
S1131AE0DF90CF90BF90AF909F908F90089561E06A
S1131AF00E94FC0C08955F926F927F928F929F9246
S1131B00AF92BF92CF92DF92EF92FF920F931F9307
S1131B10CF93DF93EC01162F0E94450C082F8824E5
S1131B2077240F2EF0E86F2EF02D0F2EFFE35F2E9B
S1131B30F02DCC24DD247601BB249924AA24A3947B
S1131B400117A1F10D3279F10E3279F1802F805312
S1131B508A3060F5C701B6012AE030E040E050E089
S1131B600E94B3356B017C01C00ED11CE11CF11C39
S1131B7080ED9FEFAFEFBFEFC80ED91EEA1EFB1E2C
S1131B80BB20A1F0882D972DA62DB52DBC01CD012C
S1131B902DEC3CEC4CEC5DE30E944C35862E772E0C
S1131BA0682E592E03C09A2C01C0BA2CE881F98101
S1131BB00680F781E02DCE011995CE010E94170C05
S1131BC0082F80538A3008F4BBCF0E3209F4B8CF03
S1131BD0101709F4B5CF992041F0F094E094D09413
S1131BE0C094C11CD11CE11CF11CBB2069F0C701CD
S1131BF0B6010E949834082D172D262D352DA901E4
S1131C0098010E944C3504C0C701B6010E94983463
S1131C10382F292F862F972FA32FB22FBC01CD0148
S1131C20DF91CF911F910F91FF90EF90DF90CF90B4
S1131C30BF90AF909F908F907F906F905F9008952A
S1131C4061E00E947B0D462F572F682F792FCB011F
S1131C50BA010895CF92DF92EF92FF920F931F93F0
S1131C60CF93DF936C017B01EA01209781F000E0C0
S1131C7010E0C6010E94E90B99235CF0F7018193FF
S1131C807F010F5F1F4F0C171D0799F702C000E07B
S1131C9010E0802F912FDF91CF911F910F91FF9032
S1131CA0EF90DF90CF900895AF92BF92CF92DF92E2
S1131CB0EF92FF920F931F93CF93DF935C016A011E
S1131CC0E9012097B1F0EE24FF24062F10E0C501AE
S1131CD00E94E90B99237CF00817190761F0F601BB
S1131CE081936F010894E11CF11CEC16FD0679F751
S1131CF002C0EE24FF248E2D9F2DDF91CF911F91E2
S1131D000F91FF90EF90DF90CF90BF90AF90089528
S1131D100F931F93CF93DF93EC018B0168E472E080
S1131D200E947E1AC8010E94E90BBC0199234CF061
S1131D30CE010E94CD1CC8010E94E90BBC0199236D
S1131D40BCF7CE01DF91CF911F910F910895EF92CF
S1131D50FF920F931F93CF93DF938C017B01C42FCA
S1131D6068E472E00E947E1AC7010E94E90BBC017C
S1131D70D0E077235CF0C617D70741F0C8010E9472
S1131D80CD1CC7010E94E90BBC01F3CFC801DF9150
S1131D90CF911F910F91FF90EF9008953F924F9232
S1131DA05F926F927F928F929F92AF92BF92CF92E7
S1131DB0DF92EF92FF920F931F93CF93DF9300D0A4
S1131DC00F92CDB7DEB7A82F8B0129833A834B83BB
S1131DD05C8380914902A81721F4E4EEF0E034908A
S1131DE0F8C08F3F09F0B5C2A0934902E4EEF0E0D9
S1131DF03490381609F4ADC292E0391609F458C08B
S1131E0093153CF0332089F0B1E03B1609F0E1C0B2
S1131E102CC0E4E03E1609F496C03E160CF470C0E3
S1131E20F5E03F1609F0D5C0B1C014BC15BC84B5AB
S1131E30826084BD85B5816085BD2A2F30E0F901BB
S1131E40EF58FE4FE491F0E0EE0FFF1FEF52FE4F0C
S1131E50859194918093400590934105F901E55D46
S1131E60FE4FE491E0933F05B7C010928000E1E893
S1131E70F0E010828081886080838081816080832B
S1131E802A2F30E0F901EF58FE4FE491F0E0EE0F15
S1131E90FF1FEF52FE4F85919491809339059093E3
S1131EA03A05F901E55DFE4FE491E093380594C0ED
S1131EB080EB90E0FC01108241EB50E0FA011082CB
S1131EC0FC01208122602083FA018081816080836B
S1131ED02A2F30E0F901EF58FE4FE491F0E0EE0FC5
S1131EE0FF1FEF52FE4F859194918093320590939A
S1131EF03305F901E55DFE4FE491E09331056CC0D3
S1131F0010929000E1E9F0E0108280818860808383
S1131F108081816080832A2F30E0F901EF58FE4FE1
S1131F20E491F0E0EE0FFF1FEF52FE4F8591949184
S1131F3080932B0590932C05F901E55DFE4FE49108
S1131F40E0932A0549C01092A000E1EAF0E0108273
S1131F508081886080838081816080832A2F30E043
S1131F60F901EF58FE4FE491F0E0EE0FFF1FEF523E
S1131F70FE4F859194918093240590932505F90152
S1131F80E55DFE4FE491E093230526C01092200105
S1131F90E1E2F1E010828081886080838081816049
S1131FA080832A2F30E0F901EF58FE4FE491F0E0EE
S1131FB0EE0FFF1FEF52FE4F8591949180931D0504
S1131FC090931E05F901E55DFE4FE491E0931C0535
S1131FD003C033200CF4BDC18A2F61E00E9467174F
S1131FE0332021F0F2E03F1609F0C3C06801EE246B
S1131FF0FF2460E072E18AE790E0A70196010E9465
S1132000E53529013A0149015A01089481089108EA
S1132010A108B1088FEF88169104A104B10409F056
S113202008F49AC060E472E48FE090E0A70196019E
S11320300E94E53549015A01089481089108A108D4
S1132040B10892E03916C9F4AFEF8A169104A104DD
S1132050B10409F008F482C060E970ED83E090E017
S1132060A70196010E94E53549015A0108948108A7
S11320709108A108B10883E001C082E0BFEF8B168C
S11320809104A104B10409F008F469C068E478EE8D
S113209081E090E0A70196010E94E53549015A01CB
S11320A0089481089108A108B1083320E1F0E2E026
S11320B03E16D9F4FFEF8F169104A104B10409F080
S11320C008F453C064E274EF80E090E0A701960145
S11320D00E94E53549015A01089481089108A10834
S11320E0B10885E003C083E001C084E09FEF891656
S11320F09104A104B10499F190F162E17AE780E0DE
S113210090E0A70196010E94E53549015A0108941F
S113211081089108A108B108332011F484E001C0BA
S113212086E0AFEF8A169104A104B104C1F0B8F0BF
S113213053014201072E7AE0B694A79497948794AA
S11321407A95D1F7702D089481089108A108B108F7
S1132150332041F087E00AC081E001C082E03320EF
S113216011F004C085E085BD58C084E08093B100BF
S113217054C06801EE24FF2460E072E18AE790E035
S1132180A70196010E94E53549015A010894810886
S11321909108A108B108B0E08B16B0E09B06B1E04D
S11321A0AB06B0E0BB0688F068E478EE81E090E02E
S11321B0A70196010E94E53549015A010894810856
S11321C09108A108B10883E001C081E0E1E03E1676
S11321D039F4E1E8F0E09081987F892B80831DC079
S11321E0F3E03F1639F4E1E9F0E09081987F892B20
S11321F0808313C094E0391639F4E1EAF0E0908169
S1132200987F892B808309C0A5E03A1631F4E1E276
S1132210F1E09081987F892B808389819A81AB81B9
S1132220BC810097A105B105A1F0B801660F771F25
S113223080E090E029813A814B815C810E94B33532
S113224028EE33E040E050E00E94E53589019A0130
S113225003C00FEF1FEF980192E03916A9F193150F
S11322603CF0332081F0A1E03A1609F072C01AC0A4
S1132270B4E03B1609F44AC03B16B4F1E5E03E165F
S113228009F067C055C087BC00934205109343050D
S11322902093440530934505EEE6F0E080818260AA
S11322A0808357C0909289008092880000933B05F8
S11322B010933C0520933D0530933E05EFE6F0E096
S11322C080818260808345C08092B300009334058E
S11322D0109335052093360530933705E0E7F0E099
S11322E080818260808335C09092990080929800AA
S11322F000932D0510932E0520932F053093300560
S1132300E1E7F0E080818260808323C09092A9009D
S11323108092A80000932605109327052093280592
S113232030932905E2E7F0E080818260808311C068
S1132330909229018092280100931F051093200593
S11323402093210530932205E3E7F0E08081826049
S113235080830F900F900F900F90DF91CF911F917A
S11323600F91FF90EF90DF90CF90BF90AF909F9030
S11323708F907F906F905F904F903F900895823040
S1132380B9F0833028F4882351F0813051F50AC024
S1132390843011F18430E8F0853019F520C01092B2
S11323A06E000895EFE6F0E080818D7F80830895CC
S11323B0E0E7F0E080818D7F808381E08093B0004E
S11323C0E1EBF0E08081887F846080831092B30029
S11323D00895109271000895109272000895109259
S11323E073000895CF93C82F809149028C1739F454
S11323F0E4EEF0E084919FEF9093490201C08FEFE7
S11324000E94BF118C2F60E00E94A517CF91089500
S11324101F920F920FB60F920BB60F9211242F93A7
S11324203F934F935F936F937F938F939F93AF9358
S1132430BF93EF93FF938091340590913505A0915C
S11324403605B09137050097A105B10551F1E0912A
S11324503205F0913305908180913105892780837D
S11324608091340590913505A0913605B0913705DA
S1132470181619061A061B06C4F4809134059091A7
S11324803505A0913605B09137050197A109B10929
S11324908093340590933505A0933605B0933705A2
S11324A004C0809149020E94F211FF91EF91BF9103
S11324B0AF919F918F917F916F915F914F913F91D8
S11324C02F910F900BBE0F900FBE0F901F90189579
S11324D0883008F082C0E82FF0E0EE0FFF1FEA5BBF
S11324E0FA4F718360838330D9F0843030F48130C3
S11324F009F449C0823060F43EC0853059F185301A
S1132500D8F0863009F44BC0873009F066C055C056
S1132510E9E6F0E080818C7F482B4083E89A0895B7
S1132520E9E6F0E08081440F551F440F551F837F77
S1132530482B4083E99A0895E9E6F0E080814295CA
S11325405295507F5427407F54278F7C482B4083DB
S1132550EA9A0895E9E6F0E08081002456954795CB
S11325600794569547950794542F402D8F73482B05
S11325704083EB9A0895EAE6F0E080818C7F482B53
S11325804083EC9A0895EAE6F0E08081440F551FF9
S1132590440F551F837F482B4083ED9A0895EAE644
S11325A0F0E0808142955295507F5427407F542714
S11325B08F7C482B4083EE9A0895EAE6F0E0808110
S11325C00024569547950794569547950794542F9C
S11325D0402D8F73482B4083EF9A0895883048F537
S11325E0833091F0843028F48130B1F0823050F49B
S11325F011C0853069F0853048F0863079F0873035
S113260081F40EC0E8980DC0E9980BC0EA9809C09F
S1132610EB9807C0EC9805C0ED9803C0EE9801C094
S1132620EF98E82FF0E0EE0FFF1FEA5BFA4F1182FC
S1132630108208951F920F920FB60F920BB60F924D
S113264011242F933F934F935F936F937F938F93B3
S11326509F93AF93BF93EF93FF9380914A0590911B
S11326604B05009729F0E0914A05F0914B05199527
S1132670FF91EF91BF91AF919F918F917F916F9156
S11326805F914F913F912F910F900BBE0F900FBE12
S11326900F901F9018951F920F920FB60F920BB6C2
S11326A00F9211242F933F934F935F936F937F93D4
S11326B08F939F93AF93BF93EF93FF9380914C05B8
S11326C090914D05009729F0E0914C05F0914D054E
S11326D01995FF91EF91BF91AF919F918F917F9148
S11326E06F915F914F913F912F910F900BBE0F907F
S11326F00FBE0F901F9018951F920F920FB60F9256
S11327000BB60F9211242F933F934F935F936F93C4
S11327107F938F939F93AF93BF93EF93FF93809196
S11327204E0590914F05009729F0E0914E05F091E8
S11327304F051995FF91EF91BF91AF919F918F91A3
S11327407F916F915F914F913F912F910F900BBEAD
S11327500F900FBE0F901F9018951F920F920FB6F7
S11327600F920BB60F9211242F933F934F935F93C5
S11327706F937F938F939F93AF93BF93EF93FF9345
S11327808091500590915105009729F0E0915005F2
S1132790F09151051995FF91EF91BF91AF919F91E0
S11327A08F917F916F915F914F913F912F910F90F6
S11327B00BBE0F900FBE0F901F9018951F920F9293
S11327C00FB60F920BB60F9211242F933F934F9392
S11327D05F936F937F938F939F93AF93BF93EF9385
S11327E0FF938091460590914705009729F0E09169
S11327F04605F09147051995FF91EF91BF91AF916F
S11328009F918F917F916F915F914F913F912F9104
S11328100F900BBE0F900FBE0F901F9018951F9234
S11328200F920FB60F920BB60F9211242F933F9372
S11328304F935F936F937F938F939F93AF93BF93C4
S1132840EF93FF938091480590914905009729F0F3
S1132850E0914805F09149051995FF91EF91BF91D9
S1132860AF919F918F917F916F915F914F913F9124
S11328702F910F900BBE0F900FBE0F901F901895C5
S11328801F920F920FB60F920BB60F9211242F9333
S11328903F934F935F936F937F938F939F93AF93E4
S11328A0BF93EF93FF938091520590915305009746
S11328B029F0E0915205F09153051995FF91EF919C
S11328C0BF91AF919F918F917F916F915F914F9144
S11328D03F912F910F900BBE0F900FBE0F901F9042
S11328E018951F920F920FB60F920BB60F921124E8
S11328F02F933F934F935F936F937F938F939F9304
S1132900AF93BF93EF93FF93809154059091550536
S1132910009729F0E0915405F09155051995FF9120
S1132920EF91BF91AF919F918F917F916F915F9143
S11329304F913F912F910F900BBE0F900FBE0F90B0
S11329401F9018951F920F920FB60F9211242F9378
S11329503F938F939F93AF93BF938091560590912C
S11329605705A0915805B091590530915E05232F64
S11329702D5F2D3720F40196A11DB11D05C0232F15
S11329802A570296A11DB11D20935E05809356051A
S113299090935705A0935805B093590580915A0513
S11329A090915B05A0915C05B0915D050196A11D18
S11329B0B11D80935A0590935B05A0935C05B09379
S11329C05D05BF91AF919F918F913F912F910F9092
S11329D00FBE0F901F9018950F931F938FB7F89405
S11329E000915605109157052091580530915905CD
S11329F08FBF602F712F822F932F1F910F910895F6
S1132A000F931F939FB7F89400915A0510915B059B
S1132A1020915C0530915D0586B5A89B06C08F3F6B
S1132A2021F00F5F1F4F2F4F3F4F9FBF322F212F9A
S1132A30102F0027080F111D211D311D000F111F1C
S1132A40221F331F000F111F221F331F602F712FEE
S1132A50822F932F1F910F910895CF92DF92EF92BF
S1132A60FF92CF93DF936B017C010E940015C11488
S1132A70D104E104F104A9F0EB010E9400156C1BE0
S1132A807D0B83E0683E780738F00894C108D108CC
S1132A90E108F108C851DC4FC114D104E104F10488
S1132AA061F7DF91CF91FF90EF90DF90CF90089581
S1132AB0019739F0880F991F880F991F0297019782
S1132AC0F1F70895789484B5826084BD84B58160FB
S1132AD084BD85B5826085BD85B5816085BDEEE622
S1132AE0F0E0808181608083E1E8F0E01082808101
S1132AF082608083808181608083E0E8F0E080816F
S1132B0081608083E1EBF0E0808184608083E0EB8E
S1132B10F0E0808181608083E1E9F0E0808182607F
S1132B208083808181608083E0E9F0E0808181603E
S1132B308083E1EAF0E0808182608083808181602B
S1132B408083E0EAF0E0808181608083E1E2F1E06B
S1132B50808182608083808181608083E0E2F1E013
S1132B60808181608083EAE7F0E0808184608083F3
S1132B70808182608083808181608083808180689D
S1132B8080831092C100089580934A020895863389
S1132B9008F08653EBE7F0E09081282F26952695E0
S1132BA0269530E021703070220F331F220F331F1F
S1132BB0220F331F977F292B2083877090914A021D
S1132BC09295990F990F907C892B80937C00EAE76A
S1132BD0F0E0808180648083808186FDFDCF8091D8
S1132BE0780090917900392F20E090E0822B932B8C
S1132BF008950F931F93CF93C82F8B0161E00E9418
S1132C0067170115110529F48C2F60E00E94A517A0
S1132C10D5C00F3F110529F48C2F61E00E94A51740
S1132C20CDC0EC2FF0E0EB51FF4FE491E93009F413
S1132C3066C0EA30B0F4E430F1F1E53040F4E2305B
S1132C4059F1E33070F5E13009F0ACC020C0E73051
S1132C5009F443C0E83008F048C0E63009F0A2C0E7
S1132C6034C0ED3009F476C0EE3038F4EB3009F4BA
S1132C705AC0EC3008F064C04CC0E03109F47EC0A6
S1132C80E13109F485C0EF3009F08CC06DC084B522
S1132C90806884BD07BD92C084B5806284BD08BDD0
S1132CA08DC0E0E8F0E08081806880831093890023
S1132CB00093880083C0E0E8F0E080818062808334
S1132CC010938B0000938A0079C0E0EBF0E08081E0
S1132CD0806880830093B30071C0E0EBF0E08081F2
S1132CE0806280830093B40069C0E0E9F0E08081F1
S1132CF08068808310939900009398005FC0E0E996
S1132D00F0E080818062808310939B0000939A009E
S1132D1055C0E0E9F0E080818860808310939D00D5
S1132D2000939C004BC0E0EAF0E0808180688083DF
S1132D3080818F7B80831093A9000093A8003EC0FC
S1132D40E0EAF0E08081806280831093AB0000931E
S1132D50AA0034C0E0EAF0E08081886080831093A8
S1132D60AD000093AC002AC0E0E2F1E0808180680D
S1132D708083109329010093280120C0E0E2F1E050
S1132D8080818062808310932B0100932A0116C0F6
S1132D90E0E2F1E080818860808310932D0100934C
S1132DA02C010CC0003811052CF48C2F60E00E941B
S1132DB0A51704C08C2F61E00E94A517CF911F9125
S1132DC00F910895893009F452C08A30A0F48430F8
S1132DD071F1853040F48230A1F1833010F58130F7
S1132DE009F074C02AC08730B1F18830D0F586303C
S1132DF009F06CC02AC08D3009F451C08E3038F40B
S1132E008B3009F440C08C3008F043C036C08031A8
S1132E1009F451C0813109F454C08F3009F056C00F
S1132E2044C0E0E8F0E080818F7780830895E0E893
S1132E30F0E080818F7D8083089584B58F7784BD91
S1132E40089584B58F7D84BD0895E0EBF0E0808122
S1132E508F7780830895E0EBF0E080818F7D80831D
S1132E600895E0E9F0E080818F7780830895E0E9B8
S1132E70F0E080818F7D80830895E0E9F0E0808137
S1132E80877F80830895E0EAF0E080818F778083F4
S1132E900895E0EAF0E080818F7D80830895E0EA80
S1132EA0F0E08081877F80830895E0E2F1E0808113
S1132EB08F7780830895E0E2F1E080818F7D8083C5
S1132EC00895E0E2F1E08081877F8083089590E0B7
S1132ED0FC01E55DFE4F44918F589E4FFC018491A7
S1132EE0882391F190E0880F991FFC01E551FE4F72
S1132EF025913491A22FB32F8F529E4FFC0125911F
S1132F003491E22FF32F662359F48FB7F8949C91F0
S1132F10409594239C939081492340838FBF0895C7
S1132F20623061F48FB7F8942C91942F909592238A
S1132F309C939081492B40838FBF08958FB7F89459
S1132F409C91492B4C938FBF08951F93CF93DF938C
S1132F50C62F282F30E0F901EB51FF4F8491F9017E
S1132F60E55DFE4FD4912F583E4FF9011491112382
S1132F70D9F0882311F00E94E216E12FF0E0EE0F61
S1132F80FF1FEF52FE4F85919491E82FF92F8FB7D1
S1132F90F894CC2329F49081D095D923D08303C00D
S1132FA09081D92BD0838FBFDF91CF911F9108954A
S1132FB0CF93DF93282F30E0F901EB51FF4F849139
S1132FC0F901E55DFE4FC4912F583E4FF901D491AC
S1132FD0DD23B1F0882311F00E94E216ED2FF0E01A
S1132FE0EE0FFF1FE954FE4F85919491E82FF92FBE
S1132FF08081C82381E090E029F480E090E002C061
S113300080E090E0DF91CF9108956F927F928F924C
S11330109F92AF92BF92CF92DF92EF92FF920F9363
S11330201F93CF93DF9390E0FC01E55DFE4FB490D6
S11330308F589E4FFC01C491662311F4AA2401C049
S1133040AB2C0F2EFFEFCF2EFFEFDF2EFFEFEF2E77
S1133050FFE0FF2EF02DC222D322E422F52240E02D
S113306050E0BA01D0E0CC0FDD1FC954DE4F3C2F35
S11330702D2FFE01059114910DC0DB01CA010196AB
S1133080A11DB11D4C155D056E057F0509F469C0D0
S1133090AC01BD014E01632E722EE02FF12F808111
S11330A08B21A81651F30EC0DB01CA010196A11DA4
S11330B0B11D4C155D056E057F0509F456C0AC01C4
S11330C0BD0103C0F30125913491E22FF32F8081D8
S11330D08B21A81649F7F40185919491E82FF92FD3
S11330E080818B21A81619F5C416D506E606F706C5
S11330F009F43FC000E010E09801F301C591D491B8
S11331000BC0D901C801840F951FA61FB71FC8168D
S1133110D906EA06FB0689F10F5F1F4F2F4F3F4F79
S1133120EC2FFD2F80818B21A81659F303C000E0FA
S113313010E09801C901B80125E130E040E050E019
S11331400E94B3358B019C01005F1F4F2F4F3F4FEF
S1133150689413F836952795179507951694D1F723
S11331600FC000E010E098010BC000E010E09801EF
S113317007C000E010E0980103C000E010E09801EF
S1133180602F712F822F932FDF91CF911F910F9179
S1133190FF90EF90DF90CF90BF90AF909F908F9073
S11331A07F906F900895CF92DF92EF92FF920F93EA
S11331B01F93CF93DF93F82E062FE42EC7E0D0E0C1
S11331C010E00F2EF7E0CF2EDD24F02D802F61E0EC
S11331D00E94A517EE2071F48F2D0E94D817960136
S11331E02C1B3D0BAC0102C0440F551F2A95E2F77E
S11331F0142B0AC08F2D0E94D8170C2E02C0880FE2
S1133200991F0A94E2F7182B802F60E00E94A517FB
S113321021978FEFCF3FD807C9F6812FDF91CF9148
S11332201F910F91FF90EF90DF90CF900895AF9290
S1133230BF92CF92DF92FF920F931F93CF93DF93AE
S1133240082F162FF42EC7E0D0E0C22EDD240F2E57
S1133250F7E0AF2EBB24F02DFF2079F4B5016C1BF1
S11332607D0BC60102C0959587956A95E2F7BC016E
S11332706170802F0E94A5170BC0B6010C2E02C0EE
S1133280759567950A94E2F76170802F0E94A517DF
S1133290812F61E00E94A517812F60E00E94A5178D
S11332A021978FEFCF3FD807B9F6DF91CF911F91C8
S11332B00F91FF90DF90CF90BF90AF90089500974B
S11332C029F0BC0180E090E00E94BD360895CF92C1
S11332D0DF92EF92FF920F931F936B017C016115B4
S11332E071058105910549F00E94B836A701960140
S11332F00E9407368B019C0103C000E010E0980196
S1133300602F712F822F932F1F910F91FF90EF90B9
S1133310DF90CF900895CF92DF92EF92FF926B01EE
S11333207C01DA01C901C216D306E406F50674F479
S11333308C199D09AE09BF09BC01CD010E94671912
S1133340DC01CB01C80ED91EEA1EFB1E6C2D7D2D9F
S11333508E2D9F2DFF90EF90DF90CF9008954F9288
S11333605F926F927F92AF92BF92CF92DF92EF9271
S1133370FF920F931F93CF93DF9300D00F92CDB79B
S1133380DEB729013A01E982FA820B831C837601B4
S11333906501621B730B840B950B2E893F89488D45
S11333A0598D2C193D094E095F090E94B3352981B5
S11333B03A814B815C8124193509460957090E94D9
S11333C00736C20ED31EE41EF51E6C2D7D2D8E2DE8
S11333D09F2D0F900F900F900F90DF91CF911F9121
S11333E00F91FF90EF90DF90CF90BF90AF907F90C0
S11333F06F905F904F900895089570E0382F20E00B
S1133400262B372B822F932F0895FC0180819181E5
S11334100E9406320895CF93DF93EC01888199814D
S1133420009711F00E940632198218821D821C82B4
S11334301B821A82DF91CF9108950F931F93CF932C
S1133440DF93EC018B016F5F7F4F888199810E942C
S1133450AC32282F392F2115310531F039832883D7
S11334601B830A8381E001C080E0DF91CF911F912B
S11334700F910895CF93DF93EC0188819981009790
S113348029F08A819B818617970770F4CE010E94E8
S11334901D1A882359F08C819D81009749F4E88195
S11334A0F981108281E005C081E003C080E001C0A1
S11334B081E0DF91CF910895EF92FF920F931F93D4
S11334C0CF93DF93EC017B018A01BA010E943A1A7F
S11334D0882321F4CE010E940B1A07C01D830C839C
S11334E088819981B7010E9457378C2F9D2FDF91D6
S11334F0CF911F910F91FF90EF900895CF93DF9399
S1133500DC0111961C921E9213961C921E92129725
S113351015961C921E9214976115710569F0E62F99
S1133520F72FEF0109900020E9F7AE014150504018
S11335304E1B5F0B0E945C1ADF91CF910895EF92AE
S1133540FF920F931F93CF93DF93EC017B018A01CA
S1133550BA010E943A1A882321F4CE010E940B1A60
S113356007C01D830C8388819981B7010E940B37A2
S11335708C2F9D2FDF91CF911F910F91FF90EF9092
S11335800895CF93DF93EC01FB018617970769F049
S1133590208131812115310531F044815581B901F2
S11335A00E945C1A02C00E940B1A8C2F9D2FDF917F
S11335B0CF910895FC011182108213821282158228
S11335C014820E94C11A0895CF93DF93C82FD92F74
S11335D06115710571F0E62FF72FDF010D900020C2
S11335E0E9F7AD01415050404E1B5F0B0E945C1A3D
S11335F002C00E940B1A8C2F9D2FDF91CF9108954A
S1133600EF92FF920F931F93CF93DF93CDB7DEB763
S1133610A1970FB6F894DEBF0FBECDBF7C01CB01DE
S1133620BA01F70111821082138212821582148268
S1133630422F4E5F8E010F5F1F4F0E943A36BC012E
S1133640C7010E94E41AA1960FB6F894DEBF0FBE1C
S1133650CDBFDF91CF911F910F91FF90EF9008950F
S1133660EF92FF920F931F93CF93DF93CDB7DEB703
S1133670A1970FB6F894DEBF0FBECDBF7C01CB017E
S1133680BA01F70111821082138212821582148208
S1133690422F4E5F8E010F5F1F4F0E943A36BC01CE
S11336A0C7010E94E41AA1960FB6F894DEBF0FBEBC
S11336B0CDBFDF91CF911F910F91FF90EF900895AF
S11336C00F931F93CF93DF93CDB7DEB7A1970FB6B8
S11336D0F894DEBF0FBECDBF8C01FC0111821082B5
S11336E01382128215821482CB01BA01AE014F5F9C
S11336F05F4F30E00E940A38C801BE016F5F7F4F00
S11337000E94E41AA1960FB6F894DEBF0FBECDBF97
S1133710DF91CF911F910F9108950F931F93CF9332
S1133720DF93CDB7DEB7A2970FB6F894DEBF0FBE16
S1133730CDBF8C01FC01118210821382128215828A
S11337401482CB01BA01AE014F5F5F4F30E00E949B
S1133750C137C801BE016F5F7F4F0E94E41AA29671
S11337600FB6F894DEBF0FBECDBFDF91CF911F918E
S11337700F9108950F931F93CF93DF93CDB7DEB7C7
S113378061970FB6F894DEBF0FBECDBF8C01CB019D
S1133790F801118210821382128215821482BE01F2
S11337A06F5F7F4F50E00E942F38C801BE016F5FEA
S11337B07F4F0E94E41A61960FB6F894DEBF0FBEE5
S11337C0CDBFDF91CF911F910F9108950F931F9358
S11337D0CF93DF93CDB7DEB762970FB6F894DEBF11
S11337E00FBECDBF8C01CB01F80111821082138270
S11337F0128215821482BE016F5F7F4F50E00E94D7
S1133800A037C801BE016F5F7F4F0E94E41A629621
S11338100FB6F894DEBF0FBECDBFDF91CF911F91DD
S11338200F9108950F931F93CF93DF93CDB7DEB716
S113383029970FB6F894DEBF0FBECDBF8C01862F3B
S1133840F80111821082138212821582148290E090
S1133850BE016F5F7F4F50E00E942F38C801BE0148
S11338606F5F7F4F0E94E41A29960FB6F894DEBF6B
S11338700FBECDBFDF91CF911F910F910895CF93CC
S1133880DF930F920F92CDB7DEB7FC011182108245
S1133890138212821582148269831A82BE016F5FB9
S11338A07F4F0E94E41A0F900F90DF91CF910895FB
S11338B00F931F93CF93DF93182F092FEB012097BA
S11338C051F0CB010E941237AC01812F902FBE0121
S11338D00E949F1A02C00E940B1A812F902FDF9121
S11338E0CF911F910F910895FC01118210821382D0
S11338F01282158214820E94581C0895EF92FF923E
S11339000F931F93CF93DF938C017B01FC01C48140
S1133910D58161157105C9F041155105C1F0C40F78
S1133920D51FBE010E943A1A882399F0F8018081BC
S1133930918124813581820F931FB7010E945737EB
S1133940F801D583C48381E005C080E003C081E031
S113395001C080E0DF91CF911F910F91FF90EF9014
S11339600895FB012081318144815581B9010E9470
S11339707E1C08956115710571F0E62FF72FDF01A4
S11339800D900020E9F7AD01415050404E1B5F0BF4
S11339900E947E1C089580E00895CF93DF930F92D8
S11339A00F92CDB7DEB769831A82BE016F5F7F4F76
S11339B041E050E00E947E1C0F900F90DF91CF9168
S11339C00895EF92FF920F931F93CF93DF9300D04C
S11339D00F92CDB7DEB77C01862F90E08E010F5F8A
S11339E01F4FB8014AE050E00E94A037F80101904F
S11339F00020E9F7AF0141505040401B510BC70173
S1133A00B8010E947E1C0F900F900F900F90DF91D1
S1133A10CF911F910F91FF90EF900895EF92FF9235
S1133A200F931F93CF93DF93CDB7DEB728970FB6CD
S1133A30F894DEBF0FBECDBF7C01CB018E010F5FBA
S1133A401F4FB8014AE050E00E94A037F8010190EE
S1133A500020E9F7AF0141505040401B510BC70112
S1133A60B8010E947E1C28960FB6F894DEBF0FBEE4
S1133A70CDBFDF91CF911F910F91FF90EF900895EB
S1133A80EF92FF920F931F93CF93DF93CDB7DEB7DF
S1133A9027970FB6F894DEBF0FBECDBF7C01CB01D4
S1133AA08E010F5F1F4FB8014AE050E00E942F388B
S1133AB0F80101900020E9F7AF0141505040401B4C
S1133AC0510BC701B8010E947E1C27960FB6F894CB
S1133AD0DEBF0FBECDBFDF91CF911F910F91FF903D
S1133AE0EF900895EF92FF920F931F93CF93DF937C
S1133AF0CDB7DEB72E970FB6F894DEBF0FBECDBF9D
S1133B007C01CB01BA018E010F5F1F4FA8012AE08F
S1133B1030E00E94C137F80101900020E9F7AF01BD
S1133B2041505040401B510BC701B8010E947E1CFC
S1133B302E960FB6F894DEBF0FBECDBFDF91CF91A6
S1133B401F910F91FF90EF900895EF92FF920F93C2
S1133B501F93CF93DF93CDB7DEB72D970FB6F894AD
S1133B60DEBF0FBECDBF7C01CB01BA018E010F5F5A
S1133B701F4FA8012AE030E00E940A38F8010190A2
S1133B800020E9F7AF0141505040401B510BC701E1
S1133B90B8010E947E1C2D960FB6F894DEBF0FBEAE
S1133BA0CDBFDF91CF911F910F91FF90EF900895BA
S1133BB0EF92FF920F931F93CF93DF93CDB7DEB7AE
S1133BC064970FB6F894DEBF0FBECDBF7C01CB0166
S1133BD0BA0144E022E08E010F5F1F4F0E943A3683
S1133BE0682F792FE82FF92FDF010D900020E9F7D6
S1133BF0AD01415050404E1B5F0BC7010E947E1C1B
S1133C0064960FB6F894DEBF0FBECDBFDF91CF919F
S1133C101F910F91FF90EF900895EF92FF920F93F1
S1133C201F93CF93DF93CDB7DEB764970FB6F894A5
S1133C30DEBF0FBECDBF7C01CB01BA0144E022E060
S1133C408E010F5F1F4F0E943A36682F792FE82F9D
S1133C50F92FDF010D900020E9F7AD0141505040EC
S1133C604E1B5F0BC7010E947E1C64960FB6F8942E
S1133C70DEBF0FBECDBFDF91CF911F910F91FF909B
S1133C80EF900895EF92FF920F931F93CF93DF93DA
S1133C907C018B0161157105F9F0CB010E9412378B
S1133CA00097E1F0F701C481D581C80FD91FC7017E
S1133CB0BE010E943A1A882399F0F701808191810C
S1133CC024813581820F931FB8010E940B37F701BD
S1133CD0D583C48381E005C080E003C081E001C0D6
S1133CE080E0DF91CF911F910F91FF90EF900895A5
S1133CF0CF93DF93C82FD92FFB01208131814481D9
S1133D005581B9010E947E1C882321F48C2F9D2F9C
S1133D100E940B1A8C2F9D2FDF91CF910895CF9382
S1133D20DF93C82FD92F6115710579F0E62FF72F8E
S1133D30DF010D900020E9F7AD01415050404E1BCA
S1133D405F0B0E947E1C882321F48C2F9D2F0E94E0
S1133D500B1A8C2F9D2FDF91CF910895CF93DF9372
S1133D60D82FC92F0E94CD1C882321F48D2F9C2F7E
S1133D700E940B1A8D2F9C2FDF91CF910895CF9322
S1133D80DF93D82FC92F0E94E11C882321F48D2FA3
S1133D909C2F0E940B1A8D2F9C2FDF91CF91089599
S1133DA0CF93DF93D82FC92F0E940E1D882321F4AF
S1133DB08D2F9C2F0E940B1A8D2F9C2FDF91CF915A
S1133DC00895CF93DF93D82FC92F0E94401D8823D5
S1133DD021F48D2F9C2F0E940B1A8D2F9C2FDF9185
S1133DE0CF910895CF93DF93D82FC92F0E94721DCE
S1133DF0882321F48D2F9C2F0E940B1A8D2F9C2F2A
S1133E00DF91CF910895CF93DF93D82FC92F0E94CC
S1133E10A51D882321F48D2F9C2F0E940B1A8D2F12
S1133E209C2FDF91CF910895CF93DF93D82FC92F83
S1133E300E94D81D882321F48D2F9C2F0E940B1AD9
S1133E408D2F9C2FDF91CF910895CF93DF93D82F9F
S1133E50C92F0E940D1E882321F48D2F9C2F0E94B0
S1133E600B1A8D2F9C2FDF91CF910895CF93DF9361
S1133E70D82FC92F0E94421E882321F48D2F9C2FF6
S1133E800E940B1A8D2F9C2FDF91CF910895DC0196
S1133E90FB018D919C911197009731F060817181A4
S1133EA061157105D1F40EC0A081B1811097D1F0D4
S1133EB0848195810097C9F02C9130E0309521954B
S1133EC03F4F18C014962D913C911597211531053B
S1133ED079F0FC01208130E00DC00E944E37282F7C
S1133EE0392F08C020E030E005C020E030E002C0F7
S1133EF020E030E0822F932F0895FC012481358146
S1133F00FB01448155812417350739F40E94471F6A
S1133F1021E0009719F020E001C020E0822F0895ED
S1133F20FC0184819581009761F46115710539F074
S1133F3081E0FB0190819923D9F080E0089581E02C
S1133F4008956115710549F40190F081E02D81E037
S1133F509081992369F080E00895808191810E9485
S1133F604E37282F392F81E02115310509F080E0E3
S1133F7008950E94471F892F881F8827881F089546
S1133F800E94471F21E0181619060CF020E0822F2A
S1133F9008950E94471F21E0181619060CF420E02A
S1133FA0822F08950E94471F892F8095881F882794
S1133FB0881F0895EF92FF920F931F93CF93DF937F
S1133FC0DC01FB018617970729F114968D919C91CA
S1133FD015972481358182179307F1F40097F1F046
S1133FE0E080F1800D911C9111970DC090E00E942A
S1133FF0FB36EC01F70181917F0190E00E94FB36D2
S1134000C817D90769F4F80181918F01882371F7E2
S113401081E007C081E005C080E003C081E001C009
S113402080E0DF91CF911F910F91FF90EF90089561
S1134030FC01DB0114962D913C91159784819581A7
S1134040821B930B84179507B8F0808191810097A8
S1134050A9F06D917C9111976115710589F0840F18
S1134060951FA9010E945E37282F392F81E0211561
S1134070310539F080E0089580E0089580E00895E6
S113408080E00895FC0124813581FB014481558140
S11340902417350728F040E050E00E9418200895C6
S11340A080E00895FC01DB018481958114962D91B3
S11340B03C91159782179307C8F0408151814115AF
S11340C05105B1F06D917C9111976115710591F0D5
S11340D0821B930B840F951F0E944E37282F392F74
S11340E081E02115310539F080E0089580E00895DC
S11340F080E0089580E00895FC018481958168172B
S1134100790730F480819181680F791FFB01408326
S11341100895FC01848195816817790720F48081D2
S11341209181009729F410925F058FE595E0089539
S1134130860F971F0895FC0184819581681779077C
S113414048F480819181009739F0680F791FFB0151
S11341508081089580E0089580E008950E949B2066
S113416008950F931F93CF93DF93FC01EB01411547
S11341705105E9F02097D9F08481958128173907F2
S113418010F0188214C0415050408C01021B130BD4
S11341904017510708F48A0160817181620F731F0F
S11341A0CE01A8010E946C37C00FD11F1882DF9185
S11341B0CF911F910F910895CF93DF93FC018481D8
S11341C095814817590768F4C081D181CE01840FC5
S11341D0951F70E00E944337009731F08C1B9D0BB4
S11341E005C08FEF9FEF02C08FEF9FEFDF91CF915C
S11341F0089540E050E00E94DC200895CF93DF93BF
S1134200FC01848195814817590778F4C081D181D4
S1134210FB0160817181CE01840F951F0E94863756
S1134220009731F08C1B9D0B05C08FEF9FEF02C0F0
S11342308FEF9FEFDF91CF91089540E050E00E940F
S1134240FE200895DF92EF92FF920F931F93CF9376
S1134250DF938C01DC0114968D919C91159748177E
S11342605907E0F47A010894E11CF11CED91FC91EA
S11342701197EE0DFF1DD0801082CD91DC91CE01FF
S113428070E00E947B37CE0DDF1DD882009749F085
S1134290F80120813181821B930B05C08FEF9FEFC2
S11342A002C08FEF9FEFDF91CF911F910F91FF908D
S11342B0EF90DF900895FC014481558141505040B6
S11342C00E9422210895AF92BF92CF92DF92EF9283
S11342D0FF920F931F93CF93DF93FC016B017A013D
S11342E0DB0114962D913C9115972115310571F13F
S11342F084819581009771F18217930778F14817AB
S1134300590720F07C010894E108F108C081D181AB
S11343108E010E0D1F1D0C171D0720F1CE01AA24BE
S1134320AA94BA2CF601608171810E9486379C019F
S11343300097D9F08C1B9D0BE816F90608F05C0178
S1134340C90101960817190768F70FC0AA24AA948F
S1134350BA2C0BC0AA24AA94BA2C07C0AA24AA94E3
S1134360BA2C03C0AA24AA94BA2C8A2D9B2DDF91BF
S1134370CF911F910F91FF90EF90DF90CF90BF905E
S1134380AF900895FC0144815581DB0114968D9111
S11343909C911597481B590BCF010E9463210895E6
S11343A0BF92CF92DF92EF92FF920F931F93CF931E
S11343B0DF937C016B018A01E9012417350720F49E
S11343C0812F8901C42FD82FC7016BE472E00E94AA
S11343D07E1AD60114968D919C911597801791079A
S11343E0C8F08C179D0708F4EC01D601ED91FC91FF
S11343F01197EC0FFD1FB08010826D917C91600FBE
S1134400711FC7010E94E41AF60180819181C80FCF
S1134410D91FB882C701DF91CF911F910F91FF90EF
S1134420EF90DF90CF90BF900895DC01ED91FC9167
S11344301197309761F08081882349F0319686176F
S113444019F4DF0111974C9381918823C1F70895E2
S11344504F925F926F927F928F929F92AF92BF9290
S1134460CF92DF92EF92FF920F931F93CF93DF933C
S11344703C014B017A01FC01A480B580A114B10474
S113448009F4CAC0FB01C480D580C114D10409F465
S1134490C3C0FA01848195812C014C185D08C201C6
S11344A0F301008111814114510479F018C0F7011E
S11344B060817181448155818C2F9D2F0E94283702
S11344C0F701048115810C0F1D1FF40160817181B6
S11344D0C8010E948637EC01009749F79DC09923D3
S11344E064F1E5013EC0E601C01BD10B8A2D9B2D72
S11344F0602F712F4C2F5D2F0E942837CA0DDB1DB2
S1134500F70160817181448155818C2F9D2F0E9418
S11345102837F701848195815E01A80EB91EF40144
S1134520848195818601080F191FF3018481958187
S1134530840D951D9583848301C05801F401608125
S11345407181C8010E9486376C01009761F6C5012C
S1134550B8010E94573760C08C010C0D1D1DC40D9D
S1134560D51DF40160817181C8010E9486370097CE
S113457099F7CA15DB0509F44FC0F30182819381D1
S11345808C179D0708F042C0C301BE010E941D1A8A
S1134590882309F441C03AC05523F4F1C301B4019E
S11345A00E946321EC019923BCF1F30160817181C4
S11345B0F401848195818C0F9D1F680F791FF3018D
S11345C044815581481B590BCB01840D951D0E94D4
S11345D03137F30184819581840D951D95838483FE
S11345E020813181820F931FFC011082F3018081AD
S11345F091818C0F9D1FF7016081718144815581E8
S11346000E942837AE0141505040C6CFF301448187
S1134610558141505040C0CFDF91CF911F910F91F0
S1134620FF90EF90DF90CF90BF90AF909F908F90CE
S11346307F906F905F904F900895CF93DF93EC013C
S11346402C813D816217730740F54115510529F10D
S1134650CA01860F971F2817390718F4A901461BAA
S1134660570BE881F981C901841B950B9D838C83C9
S1134670460F571F9F01240F351FAC01461B570BD4
S1134680CF01860F971FB9010E946C37E881F98129
S11346908C819D81E80FF91F1082DF91CF910895DD
S11346A0FC01448155816417750720F4461B570BA0
S11346B00E941D2308950F931F93CF93DF93FC0152
S11346C0C081D181209779F08881882361F08E019F
S11346D00F5F1F4F90E00E94FB368993F801819190
S11346E08F018823B9F7DF91CF911F910F9108951E
S11346F00F931F93CF93DF93FC01C081D181209747
S113470079F08881882361F08E010F5F1F4F90E05C
S11347100E9403378993F80181918F018823B9F7A7
S1134720DF91CF911F910F910895AF92BF92CF92D5
S1134730DF92EF92FF920F931F93CF93DF937C014D
S1134740DC01CD90DC901197C114D104F1F11496E1
S1134750AD90BC901597A114B104B9F1E6018E0196
S11347602196F801808190E00E94F3360097B9F712
S1134770E5012197CC0DDD1D888190E00E94F33680
S11347800097C9F0C017D107B0F02197F5CF8C2D51
S11347909D2D602F712F4C2F5D2F0E942837D7013C
S11347A0ED91FC91119714968D919C911597E80FBA
S11347B0F91F10820AC02196C01BD10BF701D583C3
S11347C0C483C016D10658F7E2CFDF91CF911F9171
S11347D00F91FF90EF90DF90CF90BF90AF9008952E
S11347E00F931F93FC0180819181009729F00E940F
S11347F0CC368B019C0103C000E010E09801602FCF
S1134800712F822F932F1F910F910895FC018081A6
S11348109181009719F00E94C83604C060E070E0EE
S113482080E090E0382F292F862F972FA32FB22FC7
S1134830BC01CD01089580917D0690917E0601967C
S113484090937E0680937D060895259A2D9A269A44
S11348502E9A279A2F9AE1E0F1E080818860808384
S1134860E2E0F1E0808188608083089587B1876FFA
S113487087B988B1807888B90895E0E8F0E01082BB
S11348808FEF93E090938700809386002CEF209322
S1134890850021E020938400909389008093880010
S11348A090938B0080938A0090938D0080938C006A
S11348B08BEA80838CE0809381000895E0EAF0E045
S11348C010828FEF93E09093A7008093A6002CEFC3
S11348D02093A50021E02093A4009093A900809345
S11348E0A8009093AB008093AA009093AD008093AE
S11348F0AC008BEA80838CE08093A1000895682F3C
S113490070E080E090E00E9496342FE632E143E0CC
S11349105FE30E944C3521E73DE34AE052E40E9404
S113492095330E946A34DC01CB0190938900809313
S113493088000895682F70E080E090E00E9496342B
S11349402FE632E143E05FE30E944C3521E73DE38B
S11349504AE052E40E9495330E946A34DC01CB01A0
S113496090938B0080938A000895682F70E080E014
S113497090E00E9496342FE632E143E05FE30E9428
S11349804C3521E73DE34AE052E40E9495330E940E
S11349906A34DC01CB0190938D0080938C000895E0
S11349A0682F70E080E090E00E9496342FE632E1B8
S11349B043E05FE30E944C3521E73DE34AE052E4E3
S11349C00E9495330E946A34DC01CB019093A900C4
S11349D08093A80008958FEF93E0909389008093CB
S11349E0880008958FEF93E090938B0080938A0062
S11349F008958FEF93E090938D0080938C00089539
S1134A008FEF93E09093A9008093A80008951092EB
S1134A107E0610927D06E2E0F1E021E020838091A1
S1134A207D0690917E068F319105C4F3089510920E
S1134A307E0610927D06E2E0F1E022E02083809180
S1134A407D0690917E0680329105C4F308951092FC
S1134A5002019C01B901882777FD8095982F0E9457
S1134A602D1508950F931F93CF93DF938B01EB01C3
S1134A70C81BD90B1C161D069CF410926E051092CF
S1134A806D050E94072580916D0590916E05019634
S1134A9090936E0580936D058C179D0794F324C045
S1134AA0DD23F4F410926E0510926D05CE01DD2322
S1134AB024F4882799278C1B9D0BEC0118161906E2
S1134AC09CF40E94172580916D0590916E050196C6
S1134AD090936E0580936D058C179D0794F304C025
S1134AE088E893E10E942725802F912FDF91CF91B1
S1134AF01F910F91089583E190E090938406809331
S1134B0083060E947F2465E070E080E090E00E94CC
S1134B102D158091830690918406039790938406C3
S1134B20809383068A30910564F768E572E080E03B
S1134B3090E00E942D158AE090E090938406809383
S1134B4083060E947F2465E070E080E090E00E948C
S1134B502D15809183069091840603969093840684
S1134B60809383068431910564F30895E1ECF0E0C9
S1134B7010821092C000A2ECB0E086E08C939FE516
S1134B809093C4001092C50098E990838C9388E1B7
S1134B9080830895E0ECF0E0908195FFFDCF809351
S1134BA0C60008951F920F920FB60F9211248F938F
S1134BB08091C60080938B068F910F900FBE0F904B
S1134BC01F901895E0ECF0E080818823ECF7809149
S1134BD0C6000895EF92FF920F931F93CF93DF9334
S1134BE00E94B6250DE316E0E801609678010E9464
S1134BF0E225F70181937F01EC17FD07C1F7F80166
S1134C0081918F010E94CA250C171D07C1F70BEF74
S1134C1015E0E801A89678010E94E225F701819346
S1134C207F01EC17FD07C1F7F80181918F010E9404
S1134C30CA250C171D07C1F70DE216E0E8016096BE
S1134C4078010E94E225F70181937F01EC17FD07AB
S1134C50C1F7F80181918F010E94CA250C171D0725
S1134C60C1F712B881E090E090938806809387069C
S1134C70DF91CF911F910F91FF90EF9008958F9244
S1134C809F92AF92BF92CF92DF92EF92FF924B012D
S1134C905C01609164057091650580916605909151
S1134CA0670528EE33E040E050E00E94E535CA0194
S1134CB0B9010E9496346B017C01A50194010E9404
S1134CC0F93388230CF049C0C501B401A70196014A
S1134CD00E949433C62ED72EE82EF92E462F572F36
S1134CE0682F792FCB01BA0120E030E0A9010E949E
S1134CF0483518168CF4C701B60120E030E04AE7C5
S1134D0054E40E944C3520E030E84BEB54E40E941C
S1134D1094330E94653411C0C701B601905820E055
S1134D2030E04AE754E40E944C3520E030E84BEB95
S1134D3054E40E9494330E94653470937205609326
S1134D407105772324F410927205109271058091F5
S1134D507105909172050E942725FF90EF90DF90D6
S1134D60CF90BF90AF909F908F900895CF93DF9393
S1134D70C62FD72F833409F4ACC0843448F481346B
S1134D80A1F0823408F05BC0813309F05EC213C223
S1134D90853409F432C1853408F4E5C0863409F455
S1134DA076C1873409F051C2BCC160915802709138
S1134DB0590270937405609373058C2F9D2F0E9484
S1134DC03225C82FD92F0E94EC14DC01CB0140916D
S1134DD06005509161056091620570916305841BC3
S1134DE0950BA60BB70B8093640590936505A09370
S1134DF06605B093670582E390E00E942725E09161
S1134E006B05F0916C05EE0FFF1FEE0FFF1FE755CA
S1134E10FA4F60817181828193810E943F260E94B2
S1134E207B2580916B0590916C05019690936C05A0
S1134E3080936B0582E390E00E94272508C260916D
S1134E4056027091570270937405609373058C2F0A
S1134E509D2F0E943225C82FD92F0E94EC14DC010B
S1134E60CB0140916005509161056091620570919C
S1134E706305841B950BA60BB70B80936405909375
S1134E806505A0936605B093670582E390E00E94F0
S1134E902725E0916B05F0916C05EE0FFF1FEE0FD7
S1134EA0FF1FE755FA4F60817181828193810E94CF
S1134EB03F260E947B2580916B0590916C0501969D
S1134EC090936C0580936B0582E390E00E94272504
S1134ED0BEC1609162027091630270937405609325
S1134EE073058C2F9D2F0E943225C82FD92F0E9425
S1134EF0EC14DC01CB014091600550916105609197
S1134F00620570916305841B950BA60BB70B809308
S1134F10640590936505A0936605B093670582E3E5
S1134F2090E00E942725E0916B05F0916C05EE0F4F
S1134F30FF1FEE0FFF1FE755FA4F608171818281D9
S1134F4093810E943F260E947B2580916B0590915E
S1134F506C05019690936C0580936B0582E390E059
S1134F600E94272574C16091600270916102709360
S1134F707405609373058C2F9D2F0E943225C82FD2
S1134F80D92F0E94EC14DC01CB01409160055091B3
S1134F9061056091620570916305841B950BA60BF6
S1134FA0B70B8093640590936505A0936605B09351
S1134FB0670582E390E00E942725E0916B05F0915C
S1134FC06C05EE0FFF1FEE0FFF1FE755FA4F6081D0
S1134FD07181828193810E943F260E947B2580916A
S1134FE06B0590916C05019690936C0580936B050D
S1134FF082E390E00E9427252AC160915E027091AD
S11350005F0270937405609373058C2F9D2F0E942B
S11350103225C82FD92F0E94EC14DC01CB0140911A
S11350206005509161056091620570916305841B70
S1135030950BA60BB70B8093640590936505A0931D
S11350406605B093670582E390E00E942725E0910E
S11350506B05F0916C05EE0FFF1FEE0FFF1FE75578
S1135060FA4F60817181828193810E943F260E9460
S11350707B2580916B0590916C05019690936C054E
S113508080936B0582E390E00E942725E0C0609145
S11350905C0270915D0270937405609373058C2FAC
S11350A09D2F0E943225C82FD92F0E94EC14DC01B9
S11350B0CB0140916005509161056091620570914A
S11350C06305841B950BA60BB70B80936405909323
S11350D06505A0936605B093670582E390E00E949E
S11350E02725E0916B05F0916C05EE0FFF1FEE0F85
S11350F0FF1FE755FA4F60817181828193810E947D
S11351003F260E947B2580916B0590916C0501964A
S113511090936C0580936B0582E390E00E942725B1
S113512096C060915A0270915B027093740560930B
S113513073058C2F9D2F0E943225C82FD92F0E94D2
S1135140EC14DC01CB014091600550916105609144
S1135150620570916305841B950BA60BB70B8093B6
S1135160640590936505A0936605B093670582E393
S113517090E00E942725E0916B05F0916C05EE0FFD
S1135180FF1FEE0FFF1FE755FA4F60817181828187
S113519093810E943F260E947B2580916B0590910C
S11351A06C05019690936C0580936B0582E390E007
S11351B00E9427254CC060918106709182067093ED
S11351C07405609373058C2F9D2F0E943225C82F80
S11351D0D92F0E94EC14DC01CB0140916005509161
S11351E061056091620570916305841B950BA60BA4
S11351F0B70B8093640590936505A0936605B093FF
S1135200670582E390E00E942725E0916B05F09109
S11352106C05EE0FFF1FEE0FFF1FE755FA4F60817D
S11352207181828193810E943F260E947B25809117
S11352306B0590916C05019690936C0580936B05BA
S113524080E395E70E94272502C0109202018C2F6B
S11352509D2FDF91CF9108958F929F92AF92BF922D
S1135260CF92DF92EF92FF924B015C016091640553
S113527070916505809166059091670528EE33E08D
S113528040E050E00E94E535CA01B9010E9496341D
S11352906B017C01A50194010E94F93388230CF071
S11352A049C0C501B401A70196010E949433C62EDA
S11352B0D72EE82EF92E462F572F682F792FCB01A2
S11352C0BA0120E030E0A9010E94483518168CF498
S11352D0C701B60120E030E04AE754E40E944C35AF
S11352E020E030E04AEF53E40E9494330E94653496
S11352F011C0C701B601905820E030E04AE754E4F9
S11353000E944C3520E030E04AEF53E40E9494338D
S11353100E9465347093720560937105772324F4B9
S11353201092720510927105809171059091720529
S11353300E942725FF90EF90DF90CF90BF90AF9011
S11353409F908F9008952F923F924F925F926F9209
S11353507F928F929F92AF92BF92CF92DF92EF9201
S1135360FF920F931F93CF93DF9300D00F920F926E
S1135370CDB7DEB70F2EFDE3CF2EF6E0DF2EF02DF6
S1135380AA24BB2400E010E076010F2EFDE68F2E48
S1135390F6E09F2EF02D10C0D6018D916D018C3258
S11353A049F0F401EA0DFB1D80830E94CA2508948C
S11353B0A11CB11C0F5F1F4FC801F7010190002011
S11353C0E9F73197EE19FF090E171F0728F305C0F7
S11353D0F8014081F901408307C0ADE6B6E09801C9
S11353E0235B394F0A0F1B1FFD0101900020E9F7D1
S11353F03197EA1BFB0B8E179F0750F34DE256E0E3
S113540020E030E080E090E0DA016DE576E00CC069
S1135410FA010191AF010C3231F0FB01E20FF31FED
S113542000832F5F3F4F0196FD0101900020E9F7B3
S11354303197EA1BFB0B8E179F0750F31BC0D80153
S1135440A550BA4F9E012F5F3F4F8D918C3209F4C6
S1135450D1C0F70101900020E9F73197EE19FF0957
S11354600E171F0708F0C6C0F90181939F010F5F53
S11354701F4FEBCF0F2EFBEDAF2EF5E0BF2EF02D1F
S1135480650100E010E00F2EFBEFEF2EF5E0FF2E9C
S1135490F02DF70101900020E9F73197EE19FF098B
S11354A00E171F0760F20DE416E0EE24FF24689443
S11354B0E3F8E00EF11ED8018D918D010E94CA25FA
S11354C00E151F05C1F70DE616E00F2EFDE5CF2ED4
S11354D0F6E0DF2EF02D88249924689484F8800E59
S11354E0911E44245524662477240F2EF1ED2F2E8B
S11354F0F5E03F2EF02D7801F80180818035F1F43C
S113550080E70E94CA25F101E60DF71DD6018C91B2
S11355108083C301880F991F880F991F87559A4F5D
S1135520F5014081518162817381DC014D935D936A
S11355306D937C9313970894611C711C0F5F1F4F2C
S1135540F70180818435F9F484E70E94CA25EFE9E4
S1135550F5E0E40DF51DD6018C918083C201880F1E
S1135560991F880F991F89589A4FF50140815181DD
S113557062817381DC014D935D936D937C931397EA
S11355800894411C511C0894C11CD11CE4E0F0E0B7
S1135590AE0EBF1E0815190509F0ADCFF301EE0FCD
S11355A0FF1FEE0FFF1FE755FA4F80E090E0A0E4E5
S11355B0B1E480839183A283B383F301EF52FA4F62
S11355C081E380830F900F900F900F900F90DF91E5
S11355D0CF911F910F91FF90EF90DF90CF90BF90EC
S11355E0AF909F908F907F906F905F904F903F907F
S11355F02F9008950F5F1F4FCE0101960E94C83669
S1135600DC01CB01F60181939193A193B1936F01D6
S113561040CF56985E9A08954E9B05C010928A0614
S113562010928906089581E090E090938A06809311
S113563089060895CF92DF92EF92FF920F931F9302
S1135640CF93DF938130910509F08EC06115710508
S113565009F08AC04115510509F086C02091500215
S113566030915102309384062093830680914E0238
S113567090914F028217930784F104E612E0C8E682
S1135680D2E00F2EF6E6EF2EF2E0FF2EF02D822F61
S11356900E949A24F80180819881891B0E94B52474
S11356A08881F7019081891B0E94D0246AE070E010
S11356B080E090E00E942D152091830630918406AD
S11356C02E5F3F4F309384062093830680914E02D1
S11356D090914F0282179307D4F66EE571E080E053
S11356E090E00E942D1520914E0230914F0230938C
S11356F084062093830680915002909151022817CA
S113570039070CF4C7C304E612E0C8E6D2E00F2E52
S1135710F6E6EF2EF2E0FF2EF02D822F0E949A245F
S1135720F80180819881891B0E94B5248881F70142
S11357309081891B0E94D0246AE070E080E090E0B0
S11357400E942D152091830630918406225030400A
S113575030938406209383068091500290915102E5
S113576028173907D4F696C3009709F034C161307D
S1135770710509F096C04115510509F092C0809158
S11357805002909151029093840680938306209155
S11357904E0230914F0228173907B4F1C8E6D2E01F
S11357A004E612E00F2EF3E8EF2EF6E0FF2EF02DC4
S11357B00F2EF6E6CF2EF2E0DF2EF02D88810E9428
S11357C09A24F8018081F7019081891B0E94B524F5
S11357D08881F6019081891B0E94D0246AE070E0E0
S11357E080E090E00E942D158091830690918406BC
S11357F00296909384068093830620914E02309102
S11358004F0228173907D4F660E971E080E090E090
S11358100E942D1580914E0290914F029093840620
S1135820809383062091500230915102821793078E
S11358300CF430C3C8E6D2E004E612E00F2EF3E81D
S1135840EF2EF6E0FF2EF02D0F2EF6E6CF2EF2E02F
S1135850DF2EF02D88810E949A24F8018081F701BF
S11358609081891B0E94B5248881F6019081891B4F
S11358700E94D0246AE070E080E090E00E942D1540
S11358808091830690918406029790938406809376
S11358908306209150023091510282179307D4F667
S11358A0F9C26115710509F096C04130510509F03E
S11358B092C08091500290915102909384068093FB
S11358C0830620914E0230914F0228173907B4F114
S11358D0C8E6D2E004E612E00F2EF3E8EF2EF6E07D
S11358E0FF2EF02D0F2EF6E6CF2EF2E0DF2EF02D58
S11358F088810E949A24F80180819881891B0E94E2
S1135900B524F7018081F6019081891B0E94D0247F
S11359106AE070E080E090E00E942D15809183069B
S11359209091840602969093840680938306209136
S11359304E0230914F0228173907D4F66EE571E014
S113594080E090E00E942D1580914E0290914F02CC
S113595090938406809383062091500230915102E3
S1135960821793070CF496C2C8E6D2E004E612E06C
S11359700F2EF3E8EF2EF6E0FF2EF02D0F2EF6E6B5
S1135980CF2EF2E0DF2EF02D88810E949A24F801B8
S113599080819881891B0E94B524F7018081F601DA
S11359A09081891B0E94D0246AE070E080E090E03E
S11359B00E942D15809183069091840602979093FE
S11359C084068093830620915002309151028217FD
S11359D09307D4F65FC28130910509F09CC0613011
S11359E0710509F098C04115510509F094C0209142
S11359F050023091510230938406209383068091A3
S1135A004E0290914F0282179307BCF1C4E6D2E094
S1135A1003E816E00F2EF8E6EF2EF2E0FF2EF02D4D
S1135A200F2EF6E6CF2EF2E0DF2EF02D822F0E940D
S1135A309A248881F8019081891B0E94B524F7017A
S1135A408081F6019081891B0E94D0246AE070E075
S1135A5080E090E00E942D15209183063091840609
S1135A602E5F3F4F309384062093830680914E022D
S1135A7090914F0282179307CCF66EE571E080E0B7
S1135A8090E00E942D1520914E0230914F023093E8
S1135A908406209383068091500290915102281726
S1135AA039070CF4F7C1C4E6D2E003E816E00F2E80
S1135AB0F8E6EF2EF2E0FF2EF02D0F2EF6E6CF2EB5
S1135AC0F2E0DF2EF02D822F0E949A248881F801C3
S1135AD09081891B0E94B524F7018081F601908191
S1135AE0891B0E94D0246AE070E080E090E00E946C
S1135AF02D15209183063091840622503040309336
S1135B0084062093830680915002909151022817B5
S1135B103907CCF6BFC1009709F09AC0613071050E
S1135B2009F096C04130510509F092C080915002AD
S1135B3090915102909384068093830620914E02A3
S1135B4030914F0228173907B4F108E612E00F2EFE
S1135B50F4E6EF2EF2E0FF2EF02DC3E8D6E00F2E90
S1135B60F6E6CF2EF2E0DF2EF02DF80180810E94C0
S1135B709A24F70180819881891B0E94B524888129
S1135B80F6019081891B0E94D0246AE070E080E0D5
S1135B9090E00E942D1580918306909184060296D0
S1135BA0909384068093830620914E0230914F0295
S1135BB028173907D4F66EE571E080E090E00E9482
S1135BC02D1580914E0290914F02909384068093FC
S1135BD083062091500230915102821793070CF4EE
S1135BE059C108E612E00F2EF4E6EF2EF2E0FF2E84
S1135BF0F02DC3E8D6E00F2EF6E6CF2EF2E0DF2E2E
S1135C00F02DF80180810E949A24F7018081988107
S1135C10891B0E94B5248881F6019081891B0E940A
S1135C20D0246AE070E080E090E00E942D1580911D
S1135C30830690918406029790938406809383064A
S1135C40209150023091510282179307D4F622C159
S1135C508130910509F01EC16115710509F098C0E4
S1135C604130510509F094C0209150023091510205
S1135C70309384062093830680914E0290914F02C4
S1135C8082179307BCF1C4E6D2E008E612E00F2EB7
S1135C90F3E8EF2EF6E0FF2EF02D0F2EF6E6CF2ED2
S1135CA0F2E0DF2EF02D822F0E949A248881F801E1
S1135CB09081891B0E94B524F7018081F6019081AF
S1135CC0891B0E94D0246AE070E080E090E00E948A
S1135CD02D1520918306309184062E5F3F4F30931B
S1135CE084062093830680914E0290914F0282177E
