:100000000C94AC010C9427130C9458130C94891382
:100010000C94BA130C94EB130C941C140C944D1404
:100020000C947E140C94DF010C94DF010C94DF011E
:100030000C94DF010C9415120C94DF010C94DF0179
:100040000C9457470C94DF010C94DF010C94DF01F2
:100050000C9409480C94DF010C94DF010C94AF144C
:100060000C94DF010C94DF010C9465030C94DF0108
:100070000C94DF010C94DF010C94DF010C945747C2
:100080000C94DF010C94DF010C94DF010C940948FF
:100090000C9490020C94A4030C94DF010C94DF01E7
:1000A0000C94DF010C9457470C94DF010C94DF0192
:1000B0000C94DF010C9409480C9457470C94DF0111
:1000C0000C94DF010C94DF010C9409480C94CF02CE
:1000D0000C94E3030C94DF010C940E030C942204A3
:1000E0000C94DF01020000090A02080B0C0D070640
:1000F00003040100000000000000000000000000F8
:1001000000000000000000000000000000000000EF
:100110000011100F000000000000000000000000AF
:10012000000000000000000000000001021020207C
:10013000080810204010204080020102010804023B
:1001400001010204081020408080402010080402B1
:10015000018004020180402010080402010804020A
:100160000101020408102040800102040810204010
:100170008005050505070508080808020202020AAD
:100180000A0808040404040101010101010101033A
:1001900003030303030303040707070C0C0C0C0CF5
:1001A0000C0C0C0202020206060606060606060BE8
:1001B0000B0B0B0B0B0B0B00002000230026002960
:1001C000002C002F0032000001000003010601098D
:1001D0000100002200250028002B002E00310034F1
:1001E0000002010000050108010B010000210024AC
:1001F0000027002A002D0030003300010100000418
:100200000107010A017C3C3E5E2B3D3F2F5B5D3BBD
:100210002C2A225C00494E46494E4954594E414EC3
:10022000000020410000C84200401C4620BCBE4CDB
:10023000CA1B0E5AAEC59D74CDCCCC3D0AD7233C0B
:1002400017B7D13877CC2B329595E6241FB14F0ADA
:1002500000407A10F35A00A0724E18090010A5D47D
:10026000E80000E87648170000E40B54020000CADA
:100270009A3B000000E1F505000080969800000020
:1002800040420F000000A08601000000102700007F
:100290000000E803000000006400000000000A0005
:1002A000000000000100000000002C76D888DC6708
:1002B0004F0823DFC1DFAE59E1B1B796E5E3E45360
:1002C000C63AE651997696E8E6C28426EB898C9B7D
:1002D00062ED407C6FFCEFBC9C9F40F2BAA56FA51D
:1002E000F490055A2AF75C936B6CF9676DC11BFC9F
:1002F000E0E40D47FEF520E6B500D0ED902E0300BA
:10030000943577050080841E080000204E0A000006
:1003100000C80C333333330F986E12831141EF8DC5
:100320002114893BE65516CFFEE6DB18D1844B3805
:100330001BF77C1D901DA4BBE424203284725E2236
:100340008100C9F124ECA1E53D27AE062A08D62A92
:100350009E3066512254295411241FBECFEFD1E2A2
:10036000DEBFCDBF00E00CBF13E0A0E0B2E0E6E6E8
:10037000FEEB00E00BBF02C007900D92AC33B1075B
:10038000D9F71BBE1AE0ACE3B3E001C01D92A23E58
:10039000B107E1F713E0C6E5D3E000E006C022971D
:1003A0000109FE010BBF0E941959CA34D10780E030
:1003B0000807A9F71BBE0E9439080C94205F0C9413
:1003C0000000FC0124853585F901E05CFF4F808148
:1003D00091812E5B3F4FF90120813181805C9F4FDD
:1003E000821B930B60E470E00E94B5580895FC01F5
:1003F00084859585FC01E05CFF4F20813181FC0103
:10040000EE5BFF4F408151812417350759F0FC0105
:10041000EE5BFF4F20813181820F931FFC018081B1
:1004200090E008958FEF9FEF0895DC011C968D9169
:100430009C911D97FC01E05CFF4F20813181FC0104
:10044000EE5BFF4F408151812417350799F0FC0185
:10045000EE5BFF4F20813181820F931FDC018C9175
:10046000208131812F5F3F4F2F7330703183208384
:1004700090E008958FEF9FEF0895FC0181A18823FC
:1004800029F0A489B5898C9186FFFBCF11A208952C
:10049000DC011E964D915C911F97FA01E05CFF4FC5
:1004A000208131812F5F3F4F2F733070FA01EE5B57
:1004B000FF4F8081918128173907D9F3FA01E05C59
:1004C000FF4F80819181840F951FFC0160831E96F0
:1004D000ED91FC911F97E05CFF4F3183208356968E
:1004E000ED91FC915797408121E030E0C9015F9682
:1004F0000C905F9702C0880F991F0A94E2F7842B33
:10050000808381E091968C9391975496ED91FC9124
:10051000559780818064808381E090E008950895FC
:100520001F920F920FB60F920BB60F9211242F93BA
:100530003F934F938F939F93EF93FF938091C800C6
:1005400082FD1CC04091CE008091580590915905C4
:1005500001968F73907020915A0530915B05821738
:10056000930771F0E0915805F0915905E85EFA4F54
:100570004083909359058093580502C08091CE0026
:10058000FF91EF919F918F914F913F912F910F90FC
:100590000BBE0F900FBE0F901F90189508951F92DD
:1005A0000F920FB60F920BB60F9211242F933F9319
:1005B0004F938F939F93EF93FF938091D00082FD91
:1005C0001CC04091D6008091D0049091D104019636
:1005D0008F7390702091D2043091D30482179307C7
:1005E00071F0E091D004F091D104E057FB4F4083CB
:1005F0009093D1048093D00402C08091D600FF91E3
:10060000EF919F918F914F913F912F910F900BBE42
:100610000F900FBE0F901F90189508951F920F9284
:100620000FB60F920BB60F9211242F933F934F9357
:100630008F939F93EF93FF938091300182FD1CC0B5
:1006400040913601809148049091490401968F733E
:10065000907020914A0430914B048217930771F0F7
:10066000E0914804F0914904E85FFB4F4083909388
:1006700049048093480402C080913601FF91EF91B4
:100680009F918F914F913F912F910F900BBE0F90A3
:100690000FBE0F901F90189580E893E00E94E10133
:1006A000009711F00E948F028EE593E00E94E10115
:1006B000009711F00E94CE028CE393E00E94E101CA
:1006C000009711F00E940D0308951F920F920FB62C
:1006D0000F920BB60F9211242F933F938F939F93FA
:1006E000EF93FF9320919C0530919D0580919E058D
:1006F00090919F052817390731F4E1ECF0E08081F3
:100700008F7D808314C0E0919E05F0919F05E45A8F
:10071000FA4F208180919E0590919F0501968F73DD
:10072000907090939F0580939E052093C600FF9143
:10073000EF919F918F913F912F910F900BBE0F9052
:100740000FBE0F901F9018951F920F920FB60F9229
:100750000BB60F9211242F933F938F939F93EF9398
:10076000FF93209114053091150580911605909105
:1007700017052817390731F4E9ECF0E080818F7D07
:10078000808314C0E0911605F0911705EC52FB4FE1
:100790002081809116059091170501968F739070B6
:1007A00090931705809316052093CE00FF91EF914B
:1007B0009F918F913F912F910F900BBE0F900FBE85
:1007C0000F901F9018951F920F920FB60F920BB6B5
:1007D0000F9211242F933F938F939F93EF93FF9347
:1007E00020918C0430918D0480918E0490918F041F
:1007F0002817390731F4E1EDF0E080818F7D8083A7
:1008000014C0E0918E04F0918F04E45BFB4F2081D3
:1008100080918E0490918F0401968F7390709093C5
:100820008F0480938E042093D600FF91EF919F91C7
:100830008F913F912F910F900BBE0F900FBE0F9095
:100840001F9018951F920F920FB60F920BB60F9232
:1008500011242F933F938F939F93EF93FF932091B6
:100860000404309105048091060490910704281730
:10087000390731F4E1E3F1E080818F7D808314C09A
:10088000E0910604F0910704EC53FC4F2081809125
:1008900006049091070401968F739070909307045B
:1008A0008093060420933601FF91EF919F918F91E1
:1008B0003F912F910F900BBE0F900FBE0F901F9086
:1008C00018958F929F92AF92BF92CF92DF92EF9244
:1008D000FF920F931F93CF93DF93CDB7DEB7FC0149
:1008E0001382128288EE93E0A0E0B0E084839583C7
:1008F000A683B7838AE092E09183808375876487BB
:1009000057874687318B208B138B028BF58AE48ABD
:10091000D78AC68AB18EA08E938E828E8889848F64
:100920008989858F8A89868F8B89878F8C8980A317
:10093000DF91CF911F910F91FF90EF90DF90CF90BB
:10094000BF90AF909F908F9008952F923F924F92BB
:100950005F926F927F928F929F92AF92BF92CF924F
:10096000DF92EF92FF920F931F93CF93DF938C014F
:100970006A017B01C1E0403021EE520720E06207AE
:1009800020E0720721F4C0E002C0CD2F18C022245D
:10099000332423940F2EF0E08F2EF9E09F2EFDE3F9
:1009A000AF2EF0E0BF2EF02D0F2EF0E84F2EF4E822
:1009B0005F2EFEE16F2EF0E07F2EF02DD0E0CC23F5
:1009C000F1F0D8015496ED91FC915597C1019096A4
:1009D0000C9002C0880F991F0A94E2F78083C5012A
:1009E000B401A70196010E94C858DA01C901019714
:1009F000A109B109B695A7959795879515C0D80116
:100A00005496ED91FC9155971082C301B201A70154
:100A100096010E94C858DA01C9010197A109B109DC
:100A2000B695A79597958795B0E180309B0718F00C
:100A3000CC2309F0AACFD8015096ED91FC915197A3
:100A400090835296ED91FC915397808391961C92DE
:100A500091975696ED91FC915797408121E030E0B7
:100A6000C9015C960C905C9702C0880F991F0A948C
:100A7000E2F7842B80835696ED91FC915797408145
:100A8000C9015D960C905D9702C0880F991F0A946A
:100A9000E2F7842B80835696ED91FC915797408125
:100AA000C9015E960C905E9702C0880F991F0A9448
:100AB000E2F7842B80835696ED91FC9157978081C5
:100AC0005F960C905F9702C0220F331F0A94E2F7E3
:100AD000209528232083DF91CF911F910F91FF90C4
:100AE000EF90DF90CF90BF90AF909F908F907F90CE
:100AF0006F905F904F903F902F9008953F924F924C
:100B00005F926F927F928F929F92AF92BF92CF929D
:100B1000DF92EF92FF920F931F93CF93DF938C019D
:100B20006A017B01322EC1E0403021EE520720E005
:100B3000620720E0720721F4C0E002C0CD2F15C08B
:100B40000F2EF0E08F2EF9E09F2EFDE3AF2EF0E0A8
:100B5000BF2EF02D0F2EF0E84F2EF4E85F2EFEE1B1
:100B60006F2EF0E07F2EF02DD0E0CC23F9F0D801ED
:100B70005496ED91FC91559781E090E090960C9001
:100B800002C0880F991F0A94E2F78083C501B4015F
:100B9000A70196010E94C858DA01C9010197A1096D
:100BA000B109B695A7959795879515C0D801549624
:100BB000ED91FC9155971082C301B201A7019601F6
:100BC0000E94C858DA01C9010197A109B109B69577
:100BD000A79597958795B0E180309B0718F0CC23B7
:100BE00009F0ACCFD8015096ED91FC9151979083CC
:100BF0005296ED91FC91539780835896ED91FC911C
:100C0000599730825696ED91FC915797408121E09B
:100C100030E0C9015C960C905C9702C0880F991F68
:100C20000A94E2F7842B80835696ED91FC915797B6
:100C30004081C9015D960C905D9702C0880F991F95
:100C40000A94E2F7842B80835696ED91FC91579796
:100C50004081C9015E960C905E9702C0880F991F73
:100C60000A94E2F7842B80835696ED91FC91579776
:100C700080815F960C905F9702C0220F331F0A9409
:100C8000E2F7209528232083DF91CF911F910F91C8
:100C9000FF90EF90DF90CF90BF90AF909F908F909C
:100CA0007F906F905F904F903F900895CF93DF9328
:100CB000EC01EE85FF85DF01A05CBF4FEE5BFF4FCF
:100CC0008D919C9111972081318182179307C1F7F3
:100CD000EE89FF89408121E030E0C9010C8C02C01F
:100CE000880F991F0A94E2F7809584238083EE8908
:100CF000FF894081C9010D8C02C0880F991F0A9499
:100D0000E2F7809584238083EE89FF894081C901C1
:100D10000E8C02C0880F991F0A94E2F780958423F5
:100D20008083EE89FF8980810F8C02C0220F331FE0
:100D30000A94E2F72095282320838C859D85FC0169
:100D4000EE5BFF4F20813181805C9F4FFC0131833E
:100D50002083DF91CF91089581E008955F926F9293
:100D60007F928F929F92AF92BF92CF92DF92EF923B
:100D7000FF920F931F93CF93DF9300D00F920F92A8
:100D8000EDB7FEB73196C4E0ADB7BEB71196CC93C0
:100D9000D3E0D1830F2EF7E07F2EF02D72820F2E3D
:100DA000F5E06F2EF02D638255245394548282EA2D
:100DB00093E060EA75E04CE555E025EC30E004ECAA
:100DC00010E00F2EF0ECEF2EFF24F02D0F2EF1ECA3
:100DD000CF2EDD24F02D0F2EF2ECAF2EBB24F02D04
:100DE0000F2EF6EC8F2E9924F02D0E946104EDB7A2
:100DF000FEB73196ADB7BEB71196CC93D183728250
:100E00006382548280E893E068E175E044ED54E049
:100E10002DEC30E00CEC10E00F2EF8ECEF2EFF2460
:100E2000F02D0F2EF9ECCF2EDD24F02D0F2EFAEC45
:100E3000AF2EBB24F02D0F2EFEEC8F2E9924F02D1B
:100E40000E946104EDB7FEB73196ADB7BEB71196FB
:100E5000CC93D1837282638254828EE593E060E901
:100E600074E04CE454E025ED30E004ED10E00F2E8A
:100E7000F0EDEF2EFF24F02D0F2EF1EDCF2EDD241F
:100E8000F02D0F2EF2EDAF2EBB24F02D0F2EF6ED30
:100E90008F2E9924F02D0E946104EDB7FEB7319694
:100EA000ADB7BEB71196CC93D18372826382548260
:100EB0008CE393E068E074E044EC53E025E331E038
:100EC00004E311E00F2EF0E3EF2EF1E0FF2EF02D02
:100ED0000F2EF1E3CF2EF1E0DF2EF02D0F2EF2E3F7
:100EE000AF2EF1E0BF2EF02D0F2EF6E38F2EF1E0A6
:100EF0009F2EF02D0E9461040F900F900F900F9085
:100F00000F90DF91CF911F910F91FF90EF90DF90A5
:100F1000CF90BF90AF909F908F907F906F905F9099
:100F200008958F929F92AF92BF92CF92DF92EF92ED
:100F3000FF920F931F93CF93DF934C017B01AA2461
:100F4000BB246894A1F8A80EB91E00E010E0CC24E0
:100F5000DD24F50161915F01C7014AE050E00E9484
:100F6000220AEC01C7016EE20E94E9088C0F9D1F66
:100F7000C80ED91E0F5F1F4F0330110551F7C7016F
:100F8000F40165814AE050E00E94220A8C0D9D1D0B
:100F9000DF91CF911F910F91FF90EF90DF90CF9055
:100FA000BF90AF909F908F900895FC018AE292E0ED
:100FB00091838083128213821482158208950F9385
:100FC000FC018AE292E091838083628343832483DD
:100FD00005830F910895FC018AE292E0918380835A
:100FE00042835383648375830895CF93DF93FC0119
:100FF0008AE292E091838083EB0188819981AA81C2
:10100000BB8182839383A483B583DF91CF910895BD
:10101000FB014081518162817381FC0142835383D2
:10102000648375830895FC014283538364837583CD
:1010300008959C012E5F3F4FCB01B90144E050E081
:101040000E94FE59282F392F81E02115310509F022
:1010500080E008950F9384EE95E060E040E020E0AA
:1010600000E00E94DF070F91089580E090E008956E
:1010700008950E946F150E9438080E9484530E94B0
:10108000B3538CE493E0009729F00E944C030E9434
:10109000B353FBCF0E94B353FDCF0E943054089549
:1010A0000E94305408950E94DD5408950E94DD543A
:1010B000089521E030E0FC018081882311F020E0D8
:1010C00030E0822F932F089521E0FC0120830895C2
:1010D00008950895CF92DF92EF92FF920F931F939E
:1010E000CF93DF936C017B01EA01209791F000E040
:1010F00010E0D7016D917D01D601ED91FC91019039
:10110000F081E02DC6011995080F191F219789F765
:1011100002C000E010E0802F912FDF91CF911F914E
:101120000F91FF90EF90DF90CF900895EF92FF9294
:101130000F931F93CF93DF937C01EB01FB0164912D
:10114000662391F0219600E010E0F701A081B181C3
:10115000ED91FC91C7011995080F191FFE01219609
:101160006491662391F702C000E010E0802F912F78
:10117000DF91CF911F910F91FF90EF900895CF9342
:10118000DF93FB01EC01A881B98160817181448109
:1011900055811296ED91FC9113971995DF91CF919E
:1011A00008956115710591F0E62FF72FDF010D907D
:1011B0000020E9F71197AD014E1B5F0BDC01ED91AB
:1011C000FC910280F381E02D1995089580E090E074
:1011D0000895DC01ED91FC910190F081E02D1995CD
:1011E00008959C01CB01DB01ED91FC910190F08110
:1011F000E02DB901199508950F931F93CF93DF93B5
:101200008C016DE00E94E908EC01C8016AE00E94CF
:10121000E9088C0F9D1FDF91CF911F910F910895C9
:101220000F931F93CF93DF938C010E949608EC01DC
:10123000C8010E94FC088C0F9D1FDF91CF911F9168
:101240000F9108950F931F93CF93DF938C010E940A
:10125000BF08EC01C8010E94FC088C0F9D1FDF91A4
:10126000CF911F910F9108950F931F93CF93DF9309
:101270008C010E94D108EC01C8010E94FC088C0F6F
:101280009D1FDF91CF911F910F9108950F931F9391
:10129000CF93DF938C010E94E908EC01C8010E9402
:1012A000FC088C0F9D1FDF91CF911F910F91089526
:1012B0000F931F93CF93DF938C010E94F108EC01F1
:1012C000C8010E94FC088C0F9D1FDF91CF911F91D8
:1012D0000F9108954F925F926F927F928F929F929B
:1012E000AF92BF92CF92DF92EF92FF920F931F9334
:1012F000CF93DF93CDB7DEB7A1970FB6F894DEBFDB
:101300000FBECDBF4C01142F352F862F972F022FE4
:1013100019A2223008F40AE00F2EF1E2AF2EBB240E
:10132000F02DAC0EBD1E402E55246624772403C03C
:10133000122F842F952F612F732FA30192010E94EA
:10134000C858C22ED32EE42EF52E029F802D1124D4
:10135000181B0894A108B1081A3010F4105D01C0E0
:10136000195CD5011C93C114D104E104F10401F707
:10137000A114B104A1F0EA2DFB2DDF010D90002096
:10138000E9F71197AD014E1B5F0BD401ED91FC9174
:101390000280F381E02DC401B501199502C080E0FF
:1013A00090E0A1960FB6F894DEBF0FBECDBFDF91DF
:1013B000CF911F910F91FF90EF90DF90CF90BF9052
:1013C000AF909F908F907F906F905F904F90089517
:1013D0002115310549F4DC01ED91FC910190F0817A
:1013E000E02D642F199508950E946A0908950F93BE
:1013F0001F93CF93DF938C010E94E809EC01C80191
:101400000E94FC088C0F9D1FDF91CF911F910F91BF
:1014100008959A01AB0160E070E00E94E809089528
:101420000F931F93CF93DF938C010E94090AEC0165
:10143000C8010E94FC088C0F9D1FDF91CF911F9166
:101440000F9108959A01462F50E060E070E00E94ED
:10145000E80908950F931F93CF93DF938C010E94A7
:10146000220AEC01C8010E94FC088C0F9D1FDF912D
:10147000CF911F910F910895CF92DF92EF92FF923B
:101480000F931F93CF93DF93EC016A017B0121152A
:10149000310541F4E881F9810190F081E02D642F5C
:1014A00019951DC02A303105C1F4772394F46DE2FB
:1014B0000E94E9088C0144275527BA014C195D099F
:1014C0006E097F09CE012AE00E946A09800F911FF0
:1014D00006C02AE00E946A0902C00E946A09DF91E0
:1014E000CF911F910F91FF90EF90DF90CF900895D3
:1014F0000F931F93CF93DF938C010E943C0AEC0162
:10150000C8010E94FC088C0F9D1FDF91CF911F9195
:101510000F9108959A01FB01AF01662757FD609571
:10152000762F0E943C0A08950F931F93CF93DF9369
:101530008C010E948A0AEC01C8010E94FC088C0FF1
:101540009D1FDF91CF911F910F9108952F923F9290
:101550004F925F926F927F928F929F92BF92CF92A3
:10156000DF92EF92FF920F931F93CF93DF934C0183
:101570002A013B01B22ECB01BA01A30192010E94C4
:101580008658882339F0C40162E372E00E94D108D2
:101590002C01EEC073016201E894F7F8C1E0C701C5
:1015A000B6012FEF3FEF4FE75FE70E948658882391
:1015B00059F4C701B6012FEF3FEF4FE75FE70E94F5
:1015C000D05618160CF4C0E0CC2339F4C40166E3FD
:1015D00072E00E94D1082C01CBC0C301B2012FEFF1
:1015E0003FEF4FE75FE40E941F5818163CF4C40118
:1015F0006AE372E00E94D1082C01BAC0C301B201B3
:101600002FEF3FEF4FE75FEC0E94D05688233CF46A
:10161000C4016AE372E00E94D1082C01A9C0C30191
:10162000B20120E030E0A9010E94D056882354F492
:10163000C4016DE20E94E9081C0177FA709477F802
:10164000709402C022243324BB2009F4A5C0C0E05A
:1016500050E040E030E02FE3852F942FA32FB22FEE
:10166000BC01CD0120E030E040E251E40E94D456BC
:10167000562F472F382F292FCF5FCB1569F7C3017E
:10168000B201E22F052F142F232F3E2FA90198011D
:101690000E946C56162F072FF82EC92E862F902FDA
:1016A000AF2DBC2DBC01CD010E944157C62F472E46
:1016B000D82FE92E0E946D579B01AC01812F902FEE
:1016C000AF2DBC2DBC01CD010E946B56062FF72E0D
:1016D000C82E192FC4014C2F542D6D2F7E2D2AE0BA
:1016E00030E00E94E809EC01C4016EE372E00E9460
:1016F000D108C80FD91F2E01420C531C802F9F2DDB
:10170000AC2DB12FBC01CD0120E030E040E251E42E
:101710000E942358162FC72E082FF92E862F9C2D96
:10172000A02FBF2DBC01CD010E943C57AB01BC01D5
:10173000EA01C401BA014AE050E00E948A0A480E58
:10174000591EBE01882777FD8095982F0E946F57FC
:101750009B01AC01812F9C2DA02FBF2DBC01CD0181
:101760000E946B56062FF72EC82E192FBA9431F609
:10177000842D952DDF91CF911F910F91FF90EF90C8
:10178000DF90CF90BF909F908F907F906F905F90F1
:101790004F903F902F900895C301B20120E030E0B8
:1017A00040E05FE30E946C560E944157AB01BC01D0
:1017B000C4012AE030E00E94E8092C01420C531CCD
:1017C000D7CF0E94A60A08950F931F93CF93DF935C
:1017D0008C010E94E10BEC01C8010E94FC088C0FF7
:1017E0009D1FDF91CF911F910F910895CF93DF93AC
:1017F000EC010E94F914DC01CB0188879987AA8744
:10180000BB87E881F9810680F781E02DCE0119952B
:101810009923BCF40E94F914AB01BC018885998519
:10182000AA85BB85481B590B6A0B7B0B8C819D815C
:10183000AE81BF81481759076A077B0710F38FEF06
:101840009FEFDF91CF910895CF93DF93EC010E943A
:10185000F914DC01CB0188879987AA87BB87E881C7
:10186000F9810084F185E02DCE0119959923BCF40E
:101870000E94F914AB01BC0188859985AA85BB85B6
:10188000481B590B6A0B7B0B8C819D81AE81BF81FC
:10189000481759076A077B0710F38FEF9FEFDF9117
:1018A000CF910895CF93DF93EC01CE010E94240CD9
:1018B00099238CF08D32910571F09C0120533040BA
:1018C0002A30310540F0E881F9810680F781E02D6A
:1018D000CE011995EACFDF91CF910895FC014483A1
:1018E00055836683778308954F925F926F927F92BC
:1018F0008F929F92AF92BF92CF92DF92EF92FF9220
:101900000F931F93CF93DF934C017B012A01390181
:101910005801FB0180818823C9F100E010E0C0E09C
:10192000D0E0CC24DD2429C0F701EC0FFD1F80811D
:1019300090E08217930739F0F701808190E08217D9
:10194000930731F4E6012196C415D50510F020C0A7
:10195000E601A114B10471F0F301E00FF11F8081E1
:1019600090E08217930741F40F5F1F4F0A151B0584
:1019700020F010C0860101C08601C4010E94F60B50
:101980009C011816190684F280E005C081E003C0AE
:1019900081E001C080E0DF91CF911F910F91FF9016
:1019A000EF90DF90CF90BF90AF909F908F907F90FF
:1019B0006F905F904F9008950F931F93242F352FB2
:1019C000E62FF72FDF010D900020E9F71197AD0109
:1019D0004E1B5F0BE22FF32FDF010D900020E9F784
:1019E00011978D010E1B1F0B0E94740C1F910F91FC
:1019F000089540E050E00E94DC0C08950F931F937F
:101A000020E030E000E010E00E94740C1F910F9184
:101A100008958F929F92AF92BF92CF92DF92EF92F2
:101A2000FF920F931F93CF93DF937C01C62F0E94E9
:101A3000520C8C0199230CF453C08824992454012E
:101A4000DD24D0E0CC24C394C017D10751F10D326E
:101A5000110531F1C801C0978A30910510F5C50113
:101A6000B4012AE030E040E050E00E948A58DC01F6
:101A7000CB01222717FD2095322F080F191F2A1F8F
:101A80003B1F0F2EF0ED8F2EFFEF9F2EFFEFAF2E9F
:101A9000FFEFBF2EF02D800E911EA21EB31E01C0BF
:101AA000DC2CD701ED91FC910680F781E02DC70178
:101AB0001995C7010E94240C8C01C0978A309105AA
:101AC00018F2C017D10709F4BFCFDD2061F0B09440
:101AD000A09490948094811C911CA11CB11C03C003
:101AE000882499245401682D792D8A2D9B2DDF910E
:101AF000CF911F910F91FF90EF90DF90CF90BF900B
:101B0000AF909F908F90089561E00E94090D089515
:101B10005F926F927F928F929F92AF92BF92CF927D
:101B2000DF92EF92FF920F931F93CF93DF93EC011D
:101B3000162F0E94520C082F882477240F2EF0E8CD
:101B40006F2EF02D0F2EFFE35F2EF02DCC24DD2421
:101B50007601BB249924AA24A3940117A1F10D3284
:101B600079F10E3279F1802F80538A3060F5C70108
:101B7000B6012AE030E040E050E00E948A586B0154
:101B80007C01C00ED11CE11CF11C80ED9FEFAFEF7A
:101B9000BFEFC80ED91EEA1EFB1EBB20A1F0882D88
:101BA000972DA62DB52DBC01CD012DEC3CEC4CECB8
:101BB0005DE30E942358862E772E682E592E03C08F
:101BC0009A2C01C0BA2CE881F9810680F781E02DBA
:101BD000CE011995CE010E94240C082F80538A3023
:101BE00008F4BBCF0E3209F4B8CF101709F4B5CF03
:101BF000992041F0F094E094D094C094C11CD11C81
:101C0000E11CF11CBB2069F0C701B6010E946F57AF
:101C1000082D172D262D352DA90198010E94235836
:101C200004C0C701B6010E946F57382F292F862F95
:101C3000972FA32FB22FBC01CD01DF91CF911F9120
:101C40000F91FF90EF90DF90CF90BF90AF909F905B
:101C50008F907F906F905F90089561E00E94880D53
:101C6000462F572F682F792FCB01BA010895CF92B5
:101C7000DF92EF92FF920F931F93CF93DF936C014C
:101C80007B01EA01209781F000E010E0C6010E948C
:101C9000F60B99235CF0F70181937F010F5F1F4FD3
:101CA0000C171D0799F702C000E010E0802F912F5C
:101CB000DF91CF911F910F91FF90EF90DF90CF9028
:101CC0000895AF92BF92CF92DF92EF92FF920F935F
:101CD0001F93CF93DF935C016A01E9012097B1F074
:101CE000EE24FF24062F10E0C5010E94F60B992375
:101CF0007CF00817190761F0F60181936F010894D1
:101D0000E11CF11CEC16FD0679F702C0EE24FF245D
:101D10008E2D9F2DDF91CF911F910F91FF90EF900E
:101D2000DF90CF90BF90AF9008950F931F93CF9304
:101D3000DF93EC018B0168E472E00E948B1AC8010A
:101D40000E94F60BBC0199234CF0CE010E94DA1CD4
:101D5000C8010E94F60BBC019923BCF7CE01DF91AC
:101D6000CF911F910F910895EF92FF920F931F93C0
:101D7000CF93DF938C017B01C42F68E472E00E9453
:101D80008B1AC7010E94F60BBC01D0E077235CF0F0
:101D9000C617D70741F0C8010E94DA1CC7010E948C
:101DA000F60BBC01F3CFC801DF91CF911F910F91CA
:101DB000FF90EF9008953F924F925F926F927F92C3
:101DC0008F929F92AF92BF92CF92DF92EF92FF924B
:101DD0000F931F93CF93DF9300D00F92CDB7DEB751
:101DE000A82F8B0129833A834B835C83809149021E
:101DF000A81721F4E4EEF0E03490F8C08F3F09F02A
:101E0000B5C2A0934902E4EEF0E03490381609F42C
:101E1000ADC292E0391609F458C093153CF0332056
:101E200089F0B1E03B1609F0E1C02CC0E4E03E16B9
:101E300009F496C03E160CF470C0F5E03F1609F0A8
:101E4000D5C0B1C014BC15BC84B5826084BD85B555
:101E5000816085BD2A2F30E0F901EF58FE4FE491F3
:101E6000F0E0EE0FFF1FEF52FE4F859194918093AB
:101E70000E0690930F06F901E55DFE4FE491E093A5
:101E80000D06B7C010928000E1E8F0E0108280817A
:101E9000886080838081816080832A2F30E0F9010F
:101EA000EF58FE4FE491F0E0EE0FFF1FEF52FE4FB0
:101EB000859194918093070690930806F901E55D5A
:101EC000FE4FE491E093060694C080EB90E0FC01A5
:101ED000108241EB50E0FA011082FC012081226067
:101EE0002083FA018081816080832A2F30E0F9010C
:101EF000EF58FE4FE491F0E0EE0FFF1FEF52FE4F60
:101F0000859194918093000690930106F901E55D17
:101F1000FE4FE491E093FF056CC010929000E1E960
:101F2000F0E010828081886080838081816080837E
:101F30002A2F30E0F901EF58FE4FE491F0E0EE0F68
:101F4000FF1FEF52FE4F859194918093F905909376
:101F5000FA05F901E55DFE4FE491E093F80549C00B
:101F60001092A000E1EAF0E0108280818860808316
:101F70008081816080832A2F30E0F901EF58FE4F85
:101F8000E491F0E0EE0FFF1FEF52FE4F8591949128
:101F90008093F2059093F305F901E55DFE4FE4911E
:101FA000E093F10526C010922001E1E2F1E01082F9
:101FB0008081886080838081816080832A2F30E0E7
:101FC000F901EF58FE4FE491F0E0EE0FFF1FEF52E2
:101FD000FE4F859194918093EB059093EC05F90168
:101FE000E55DFE4FE491E093EA0503C033200CF475
:101FF000BDC18A2F61E00E947417332021F0F2E006
:102000003F1609F0C3C06801EE24FF2460E072E1CE
:102010008AE790E0A70196010E94C85829013A0179
:1020200049015A01089481089108A108B1088FEF6D
:1020300088169104A104B10409F008F49AC060E480
:1020400072E48FE090E0A70196010E94C858490110
:102050005A01089481089108A108B10892E0391644
:10206000C9F4AFEF8A169104A104B10409F008F491
:1020700082C060E970ED83E090E0A70196010E94C4
:10208000C85849015A01089481089108A108B1086B
:1020900083E001C082E0BFEF8B169104A104B1047C
:1020A00009F008F469C068E478EE81E090E0A701E7
:1020B00096010E94C85849015A0108948108910864
:1020C000A108B1083320E1F0E2E03E16D9F4FFEFB9
:1020D0008F169104A104B10409F008F453C064E21E
:1020E00074EF80E090E0A70196010E94C858490172
:1020F0005A01089481089108A108B10885E003C03D
:1021000083E001C084E09FEF89169104A104B1042B
:1021100099F190F162E17AE780E090E0A701960101
:102120000E94C85849015A01089481089108A108E1
:10213000B108332011F484E001C086E0AFEF8A16C5
:102140009104A104B104C1F0B8F053014201072E7B
:102150007AE0B694A794979487947A95D1F7702DE6
:10216000089481089108A108B108332041F087E064
:102170000AC081E001C082E0332011F004C085E094
:1021800085BD58C084E08093B10054C06801EE243E
:10219000FF2460E072E18AE790E0A70196010E94C7
:1021A000C85849015A01089481089108A108B1084A
:1021B000B0E08B16B0E09B06B1E0AB06B0E0BB062A
:1021C00088F068E478EE81E090E0A70196010E9433
:1021D000C85849015A01089481089108A108B1081A
:1021E00083E001C081E0E1E03E1639F4E1E8F0E08F
:1021F0009081987F892B80831DC0F3E03F1639F4CE
:10220000E1E9F0E09081987F892B808313C094E00E
:10221000391639F4E1EAF0E09081987F892B8083C8
:1022200009C0A5E03A1631F4E1E2F1E09081987F2F
:10223000892B808389819A81AB81BC810097A1051C
:10224000B105A1F0B801660F771F80E090E0298109
:102250003A814B815C810E948A5828EE33E040E04D
:1022600050E00E94C85889019A0103C00FEF1FEF88
:10227000980192E03916A9F193153CF0332081F0D2
:10228000A1E03A1609F072C01AC0B4E03B1609F496
:102290004AC03B16B4F1E5E03E1609F067C055C0F0
:1022A00087BC0093100610931106209312063093FA
:1022B0001306EEE6F0E080818260808357C0909242
:1022C0008900809288000093090610930A062093E3
:1022D0000B0630930C06EFE6F0E08081826080838D
:1022E00045C08092B300009302061093030620932A
:1022F000040630930506E0E7F0E080818260808389
:1023000035C090929900809298000093FB0510933D
:10231000FC052093FD053093FE05E1E7F0E08081A8
:102320008260808323C09092A9008092A8000093CD
:10233000F4051093F5052093F6053093F705E2E7D1
:10234000F0E080818260808311C0909229018092A8
:1023500028010093ED051093EE052093EF053093CF
:10236000F005E3E7F0E08081826080830F900F90BA
:102370000F900F90DF91CF911F910F91FF90EF90F1
:10238000DF90CF90BF90AF909F908F907F906F9095
:102390005F904F903F9008958230B9F0833028F4D9
:1023A000882351F0813051F50AC0843011F1843016
:1023B000E8F0853019F520C010926E000895EFE620
:1023C000F0E080818D7F80830895E0E7F0E08081F8
:1023D0008D7F808381E08093B000E1EBF0E080812D
:1023E000887F846080831092B300089510927100FA
:1023F0000895109272000895109273000895CF937B
:10240000C82F809149028C1739F4E4EEF0E08491F2
:102410009FEF9093490201C08FEF0E94CC118C2F47
:1024200060E00E94B217CF9108951F920F920FB6ED
:102430000F920BB60F9211242F933F934F935F93FC
:102440006F937F938F939F93AF93BF93EF93FF937C
:102450008091020690910306A0910406B0910506B2
:102460000097A105B10551F1E0910006F091010638
:1024700090818091FF058927808380910206909149
:102480000306A0910406B0910506181619061A064F
:102490001B06C4F48091020690910306A0910406E5
:1024A000B09105060197A109B109809302069093A6
:1024B0000306A0930406B093050604C08091490268
:1024C0000E94FF11FF91EF91BF91AF919F918F916A
:1024D0007F916F915F914F913F912F910F900BBE24
:1024E0000F900FBE0F901F901895883008F082C093
:1024F000E82FF0E0EE0FFF1FEC5EF94F7183608371
:102500008330D9F0843030F4813009F449C082300E
:1025100060F43EC0853059F18530D8F0863009F43A
:102520004BC0873009F066C055C0E9E6F0E0808115
:102530008C7F482B4083E89A0895E9E6F0E080819B
:10254000440F551F440F551F837F482B4083E99A42
:102550000895E9E6F0E0808142955295507F542736
:10256000407F54278F7C482B4083EA9A0895E9E600
:10257000F0E080810024569547950794569547953D
:102580000794542F402D8F73482B4083EB9A089566
:10259000EAE6F0E080818C7F482B4083EC9A089536
:1025A000EAE6F0E08081440F551F440F551F837FFA
:1025B000482B4083ED9A0895EAE6F0E08081429549
:1025C0005295507F5427407F54278F7C482B40835F
:1025D000EE9A0895EAE6F0E080810024569547954A
:1025E0000794569547950794542F402D8F73482B89
:1025F0004083EF9A0895883048F5833091F0843015
:1026000028F48130B1F0823050F411C0853069F087
:10261000853048F0863079F0873081F40EC0E89834
:102620000DC0E9980BC0EA9809C0EB9807C0EC9878
:1026300005C0ED9803C0EE9801C0EF98E82FF0E0D8
:10264000EE0FFF1FEC5EF94F1182108208951F926A
:102650000F920FB60F920BB60F9211242F933F9348
:102660004F935F936F937F938F939F93AF93BF939A
:10267000EF93FF938091180690911906009729F027
:10268000E0911806F09119061995FF91EF91BF910D
:10269000AF919F918F917F916F915F914F913F91FA
:1026A0002F910F900BBE0F900FBE0F901F9018959B
:1026B0001F920F920FB60F920BB60F9211242F9309
:1026C0003F934F935F936F937F938F939F93AF93BA
:1026D000BF93EF93FF9380911A0690911B0600978A
:1026E00029F0E0911A06F0911B061995FF91EF91E0
:1026F000BF91AF919F918F917F916F915F914F911A
:102700003F912F910F900BBE0F900FBE0F901F9017
:1027100018951F920F920FB60F920BB60F921124BD
:102720002F933F934F935F936F937F938F939F93D9
:10273000AF93BF93EF93FF9380911C0690911D067A
:10274000009729F0E0911C06F0911D061995FF9164
:10275000EF91BF91AF919F918F917F916F915F9119
:102760004F913F912F910F900BBE0F900FBE0F9086
:102770001F9018951F920F920FB60F920BB60F92E3
:1027800011242F933F934F935F936F937F938F9376
:102790009F93AF93BF93EF93FF9380911E06909109
:1027A0001F06009729F0E0911E06F0911F0619956B
:1027B000FF91EF91BF91AF919F918F917F916F9119
:1027C0005F914F913F912F910F900BBE0F900FBED5
:1027D0000F901F9018951F920F920FB60F920BB685
:1027E0000F9211242F933F934F935F936F937F9397
:1027F0008F939F93AF93BF93EF93FF9380911406B2
:1028000090911506009729F0E0911406F0911506B5
:102810001995FF91EF91BF91AF919F918F917F910A
:102820006F915F914F913F912F910F900BBE0F9041
:102830000FBE0F901F9018951F920F920FB60F9218
:102840000BB60F9211242F933F934F935F936F9387
:102850007F938F939F93AF93BF93EF93FF93809159
:10286000160690911706009729F0E0911606F09150
:1028700017061995FF91EF91BF91AF919F918F919D
:102880007F916F915F914F913F912F910F900BBE70
:102890000F900FBE0F901F9018951F920F920FB6BA
:1028A0000F920BB60F9211242F933F934F935F9388
:1028B0006F937F938F939F93AF93BF93EF93FF9308
:1028C0008091200690912106009729F0E091200642
:1028D000F09121061995FF91EF91BF91AF919F91D2
:1028E0008F917F916F915F914F913F912F910F90B9
:1028F0000BBE0F900FBE0F901F9018951F920F9256
:102900000FB60F920BB60F9211242F933F934F9354
:102910005F936F937F938F939F93AF93BF93EF9347
:10292000FF938091220690912306009729F0E09171
:102930002206F09123061995FF91EF91BF91AF9177
:102940009F918F917F916F915F914F913F912F91C7
:102950000F900BBE0F900FBE0F901F9018951F92F7
:102960000F920FB60F9211242F933F938F939F9343
:10297000AF93BF938091240690912506A0912606DF
:10298000B091270630912C06232F2D5F2D3720F490
:102990000196A11DB11D05C0232F2A570296A11D26
:1029A000B11D20932C068093240690932506A093B6
:1029B0002606B09327068091280690912906A091BB
:1029C0002A06B0912B060196A11DB11D8093280601
:1029D00090932906A0932A06B0932B06BF91AF913E
:1029E0009F918F913F912F910F900FBE0F901F904D
:1029F00018950F931F938FB7F894009124061091A8
:102A0000250620912606309127068FBF602F712F53
:102A1000822F932F1F910F9108950F931F939FB7AC
:102A2000F894009128061091290620912A063091E9
:102A30002B0686B5A89B06C08F3F21F00F5F1F4F66
:102A40002F4F3F4F9FBF322F212F102F0027080FEE
:102A5000111D211D311D000F111F221F331F000FDB
:102A6000111F221F331F602F712F822F932F1F9151
:102A70000F910895CF92DF92EF92FF92CF93DF9361
:102A80006B017C010E940D15C114D104E104F10415
:102A9000A9F0EB010E940D156C1B7D0B83E0683ED5
:102AA000780738F00894C108D108E108F108C85146
:102AB000DC4FC114D104E104F10461F7DF91CF913F
:102AC000FF90EF90DF90CF900895019739F0880F35
:102AD000991F880F991F02970197F1F7089578942D
:102AE00084B5826084BD84B5816084BD85B5826013
:102AF00085BD85B5816085BDEEE6F0E080818160B1
:102B00008083E1E8F0E010828081826080838081B0
:102B100081608083E0E8F0E0808181608083E1EB88
:102B2000F0E0808184608083E0EBF0E08081816070
:102B30008083E1E9F0E08081826080838081816030
:102B40008083E0E9F0E0808181608083E1EAF0E069
:102B5000808182608083808181608083E0EAF0E010
:102B6000808181608083E1E2F1E080818260808306
:102B7000808181608083E0E2F1E0808181608083F8
:102B8000EAE7F0E0808184608083808182608083D6
:102B90008081816080838081806880831092C10001
:102BA000089580934A020895863308F08653EBE730
:102BB000F0E09081282F26952695269530E021700B
:102BC0003070220F331F220F331F220F331F977FC6
:102BD000292B2083877090914A029295990F990F23
:102BE000907C892B80937C00EAE7F0E08081806410
:102BF0008083808186FDFDCF80917800909179005F
:102C0000392F20E090E0822B932B08950F931F9390
:102C1000CF93C82F8B0161E00E9474170115110535
:102C200029F48C2F60E00E94B217D5C00F3F110528
:102C300029F48C2F61E00E94B217CDC0EC2FF0E098
:102C4000EB51FF4FE491E93009F466C0EA30B0F48B
:102C5000E430F1F1E53040F4E23059F1E33070F561
:102C6000E13009F0ACC020C0E73009F443C0E830DF
:102C700008F048C0E63009F0A2C034C0ED3009F4D5
:102C800076C0EE3038F4EB3009F45AC0EC3008F07E
:102C900064C04CC0E03109F47EC0E13109F485C064
:102CA000EF3009F08CC06DC084B5806884BD07BD6D
:102CB00092C084B5806284BD08BD8DC0E0E8F0E0BC
:102CC000808180688083109389000093880083C08E
:102CD000E0E8F0E080818062808310938B000093B5
:102CE0008A0079C0E0EBF0E0808180688083009307
:102CF000B30071C0E0EBF0E08081806280830093DC
:102D0000B40069C0E0E9F0E08081806880831093BE
:102D10009900009398005FC0E0E9F0E08081806254
:102D2000808310939B0000939A0055C0E0E9F0E087
:102D300080818860808310939D0000939C004BC02D
:102D4000E0EAF0E080818068808380818F7B8083EF
:102D50001093A9000093A8003EC0E0EAF0E0808153
:102D6000806280831093AB000093AA0034C0E0EA35
:102D7000F0E08081886080831093AD000093AC0008
:102D80002AC0E0E2F1E0808180688083109329010D
:102D90000093280120C0E0E2F1E08081806280831E
:102DA00010932B0100932A0116C0E0E2F1E080812C
:102DB0008860808310932D0100932C010CC0003893
:102DC00011052CF48C2F60E00E94B21704C08C2FE8
:102DD00061E00E94B217CF911F910F910895893041
:102DE00009F452C08A30A0F4843071F1853040F487
:102DF0008230A1F1833010F5813009F074C02AC00F
:102E00008730B1F18830D0F5863009F06CC02AC027
:102E10008D3009F451C08E3038F48B3009F440C045
:102E20008C3008F043C036C0803109F451C0813184
:102E300009F454C08F3009F056C044C0E0E8F0E017
:102E400080818F7780830895E0E8F0E080818F7D36
:102E50008083089584B58F7784BD089584B58F7D70
:102E600084BD0895E0EBF0E080818F778083089542
:102E7000E0EBF0E080818F7D80830895E0E9F0E071
:102E800080818F7780830895E0E9F0E080818F7DF5
:102E900080830895E0E9F0E08081877F8083089552
:102EA000E0EAF0E080818F7780830895E0EAF0E047
:102EB00080818F7D80830895E0EAF0E08081877FC4
:102EC00080830895E0E2F1E080818F778083089528
:102ED000E0E2F1E080818F7D80830895E0E2F1E01F
:102EE0008081877F8083089590E0FC01E55DFE4F3F
:102EF00044918F589E4FFC018491882391F190E07A
:102F0000880F991FFC01E551FE4F25913491A22FA6
:102F1000B32F8F529E4FFC0125913491E22FF32F56
:102F2000662359F48FB7F8949C91409594239C9311
:102F30009081492340838FBF0895623061F48FB739
:102F4000F8942C91942F909592239C939081492BE7
:102F500040838FBF08958FB7F8949C91492B4C9371
:102F60008FBF08951F93CF93DF93C62F282F30E094
:102F7000F901EB51FF4F8491F901E55DFE4FD491CA
:102F80002F583E4FF90114911123D9F0882311F0E5
:102F90000E94EF16E12FF0E0EE0FFF1FEF52FE4F01
:102FA00085919491E82FF92F8FB7F894CC2329F4C9
:102FB0009081D095D923D08303C09081D92BD08321
:102FC0008FBFDF91CF911F910895CF93DF93282F6B
:102FD00030E0F901EB51FF4F8491F901E55DFE4FBF
:102FE000C4912F583E4FF901D491DD23B1F08823CD
:102FF00011F00E94EF16ED2FF0E0EE0FFF1FE954E5
:10300000FE4F85919491E82FF92F8081C82381E0AC
:1030100090E029F480E090E002C080E090E0DF9151
:10302000CF9108956F927F928F929F92AF92BF92AD
:10303000CF92DF92EF92FF920F931F93CF93DF9384
:1030400090E0FC01E55DFE4FB4908F589E4FFC016F
:10305000C491662311F4AA2401C0AB2C0F2EFFEFFC
:10306000CF2EFFEFDF2EFFEFEF2EFFE0FF2EF02D34
:10307000C222D322E422F52240E050E0BA01D0E09F
:10308000CC0FDD1FC954DE4F3C2F2D2FFE010591C3
:1030900014910DC0DB01CA010196A11DB11D4C1593
:1030A0005D056E057F0509F469C0AC01BD014E01E7
:1030B000632E722EE02FF12F80818B21A81651F301
:1030C0000EC0DB01CA010196A11DB11D4C155D05A5
:1030D0006E057F0509F456C0AC01BD0103C0F301C4
:1030E00025913491E22FF32F80818B21A81649F787
:1030F000F40185919491E82FF92F80818B21A816F6
:1031000019F5C416D506E606F70609F43FC000E037
:1031100010E09801F301C591D4910BC0D901C80109
:10312000840F951FA61FB71FC816D906EA06FB060F
:1031300089F10F5F1F4F2F4F3F4FEC2FFD2F8081E5
:103140008B21A81659F303C000E010E09801C901D3
:10315000B80125E130E040E050E00E948A588B0140
:103160009C01005F1F4F2F4F3F4F689413F8369517
:103170002795179507951694D1F70FC000E010E03A
:1031800098010BC000E010E0980107C000E010E0DB
:10319000980103C000E010E09801602F712F822F8A
:1031A000932FDF91CF911F910F91FF90EF90DF90C0
:1031B000CF90BF90AF909F908F907F906F90089529
:1031C000CF92DF92EF92FF920F931F93CF93DF93F3
:1031D000F82E062FE42EC7E0D0E010E00F2EF7E027
:1031E000CF2EDD24F02D802F61E00E94B217EE205B
:1031F00071F48F2D0E94E51796012C1B3D0BAC013D
:1032000002C0440F551F2A95E2F7142B0AC08F2DD8
:103210000E94E5170C2E02C0880F991F0A94E2F74E
:10322000182B802F60E00E94B21721978FEFCF3FBD
:10323000D807C9F6812FDF91CF911F910F91FF9091
:10324000EF90DF90CF900895AF92BF92CF92DF9230
:10325000FF920F931F93CF93DF93082F162FF42E17
:10326000C7E0D0E0C22EDD240F2EF7E0AF2EBB2446
:10327000F02DFF2079F4B5016C1B7D0BC60102C057
:10328000959587956A95E2F7BC016170802F0E9441
:10329000B2170BC0B6010C2E02C0759567950A9443
:1032A000E2F76170802F0E94B217812F61E00E94C7
:1032B000B217812F60E00E94B21721978FEFCF3FA6
:1032C000D807B9F6DF91CF911F910F91FF90DF9052
:1032D000CF90BF90AF900895009729F0BC0180E097
:1032E00090E00E94A0590895CF92DF92EF92FF9252
:1032F0000F931F936B017C01611571058105910589
:1033000049F00E949B59A70196010E94EA588B013F
:103310009C0103C000E010E09801602F712F822F04
:10332000932F1F910F91FF90EF90DF90CF90089512
:10333000CF92DF92EF92FF926B017C01DA01C9011B
:10334000C216D306E406F50674F48C199D09AE097D
:10335000BF09BC01CD010E947419DC01CB01C80E6C
:10336000D91EEA1EFB1E6C2D7D2D8E2D9F2DFF90EC
:10337000EF90DF90CF9008954F925F926F927F927F
:10338000AF92BF92CF92DF92EF92FF920F931F9373
:10339000CF93DF9300D00F92CDB7DEB729013A016A
:1033A000E982FA820B831C8376016501621B730B31
:1033B000840B950B2E893F89488D598D2C193D0919
:1033C0004E095F090E948A5829813A814B815C81AC
:1033D00024193509460957090E94EA58C20ED31E1E
:1033E000E41EF51E6C2D7D2D8E2D9F2D0F900F90C0
:1033F0000F900F90DF91CF911F910F91FF90EF9061
:10340000DF90CF90BF90AF907F906F905F904F9084
:103410000895089570E0382F20E0262B372B822F57
:10342000932F0895FC01808191810E94DD540895BD
:10343000CF93DF93EC0188819981009711F00E946E
:10344000DD54198218821D821C821B821A82DF9130
:10345000CF9108950F931F93CF93DF93EC018B01CE
:103460006F5F7F4F888199810E948355282F392F64
:103470002115310531F0398328831B830A8381E0CC
:1034800001C080E0DF91CF911F910F910895CF93FC
:10349000DF93EC0188819981009729F08A819B81D3
:1034A0008617970770F4CE010E942A1A882359F0D4
:1034B0008C819D81009749F4E881F981108281E037
:1034C00005C081E003C080E001C081E0DF91CF91C1
:1034D0000895EF92FF920F931F93CF93DF93EC0128
:1034E0007B018A01BA010E94471A882321F4CE0188
:1034F0000E94181A07C01D830C8388819981B70127
:103500000E943A5A8C2F9D2FDF91CF911F910F91DE
:10351000FF90EF900895CF93DF93DC0111961C92FA
:103520001E9213961C921E92129715961C921E9232
:1035300014976115710569F0E62FF72FEF010990D7
:103540000020E9F7AE01415050404E1B5F0B0E9436
:10355000691ADF91CF910895EF92FF920F931F9315
:10356000CF93DF93EC017B018A01BA010E94471AD5
:10357000882321F4CE010E94181A07C01D830C83F2
:1035800088819981B7010E94EE598C2F9D2FDF9180
:10359000CF911F910F91FF90EF900895CF93DF93FC
:1035A000EC01FB018617970769F020813181211515
:1035B000310531F044815581B9010E94691A02C078
:1035C0000E94181A8C2F9D2FDF91CF910895FC0136
:1035D0001182108213821282158214820E94CE1AE6
:1035E0000895CF93DF93C82FD92F6115710571F01E
:1035F000E62FF72FDF010D900020E9F7AD014150D4
:1036000050404E1B5F0B0E94691A02C00E94181A9C
:103610008C2F9D2FDF91CF910895EF92FF920F9302
:103620001F93CF93DF93CDB7DEB7A1970FB6F89472
:10363000DEBF0FBECDBF7C01CB01BA01F701118205
:1036400010821382128215821482422F4E5F8E01E5
:103650000F5F1F4F0E941D59BC01C7010E94F11A44
:10366000A1960FB6F894DEBF0FBECDBFDF91CF910C
:103670001F910F91FF90EF900895EF92FF920F939B
:103680001F93CF93DF93CDB7DEB7A1970FB6F89412
:10369000DEBF0FBECDBF7C01CB01BA01F7011182A5
:1036A00010821382128215821482422F4E5F8E0185
:1036B0000F5F1F4F0E941D59BC01C7010E94F11AE4
:1036C000A1960FB6F894DEBF0FBECDBFDF91CF91AC
:1036D0001F910F91FF90EF9008950F931F93CF9339
:1036E000DF93CDB7DEB7A1970FB6F894DEBF0FBE5C
:1036F000CDBF8C01FC0111821082138212821582CF
:103700001482CB01BA01AE014F5F5F4F30E00E94DF
:10371000ED5AC801BE016F5F7F4F0E94F11AA1965A
:103720000FB6F894DEBF0FBECDBFDF91CF911F91D2
:103730000F9108950F931F93CF93DF93CDB7DEB70B
:10374000A2970FB6F894DEBF0FBECDBF8C01FC016F
:10375000118210821382128215821482CB01BA0167
:10376000AE014F5F5F4F30E00E94A45AC801BE0116
:103770006F5F7F4F0E94F11AA2960FB6F894DEBFDA
:103780000FBECDBFDF91CF911F910F9108950F9381
:103790001F93CF93DF93CDB7DEB761970FB6F89441
:1037A000DEBF0FBECDBF8C01CB01F80111821082AC
:1037B0001382128215821482BE016F5F7F4F50E028
:1037C0000E94125BC801BE016F5F7F4F0E94F11A19
:1037D00061960FB6F894DEBF0FBECDBFDF91CF91DB
:1037E0001F910F9108950F931F93CF93DF93CDB740
:1037F000DEB762970FB6F894DEBF0FBECDBF8C0167
:10380000CB01F80111821082138212821582148278
:10381000BE016F5F7F4F50E00E94835AC801BE0116
:103820006F5F7F4F0E94F11A62960FB6F894DEBF69
:103830000FBECDBFDF91CF911F910F9108950F93D0
:103840001F93CF93DF93CDB7DEB729970FB6F894C8
:10385000DEBF0FBECDBF8C01862FF8011182108212
:10386000138212821582148290E0BE016F5F7F4F37
:1038700050E00E94125BC801BE016F5F7F4F0E9443
:10388000F11A29960FB6F894DEBF0FBECDBFDF91B7
:10389000CF911F910F910895CF93DF930F920F92C5
:1038A000CDB7DEB7FC01118210821382128215821D
:1038B000148269831A82BE016F5F7F4F0E94F11AE2
:1038C0000F900F90DF91CF9108950F931F93CF9397
:1038D000DF93182F092FEB01209751F0CB010E94A5
:1038E000F559AC01812F902FBE010E94AC1A02C085
:1038F0000E94181A812F902FDF91CF911F910F9165
:103900000895FC01118210821382128215821482A2
:103910000E94651C0895EF92FF920F931F93CF931F
:10392000DF938C017B01FC01C481D5816115710598
:10393000C9F041155105C1F0C40FD51FBE010E9449
:10394000471A882399F0F80180819181248135817B
:10395000820F931FB7010E943A5AF801D583C4839E
:1039600081E005C080E003C081E001C080E0DF911C
:10397000CF911F910F91FF90EF900895FB0120814F
:10398000318144815581B9010E948B1C08956115D4
:10399000710571F0E62FF72FDF010D900020E9F798
:1039A000AD01415050404E1B5F0B0E948B1C08958F
:1039B00080E00895CF93DF930F920F92CDB7DEB7DB
:1039C00069831A82BE016F5F7F4F41E050E00E9421
:1039D0008B1C0F900F90DF91CF910895EF92FF9283
:1039E0000F931F93CF93DF9300D00F92CDB7DEB725
:1039F0007C01862F90E08E010F5F1F4FB8014AE0D7
:103A000050E00E94835AF80101900020E9F7AF01CD
:103A100041505040401B510BC701B8010E948B1C04
:103A20000F900F900F900F90DF91CF911F910F91FA
:103A3000FF90EF900895EF92FF920F931F93CF9313
:103A4000DF93CDB7DEB728970FB6F894DEBF0FBE71
:103A5000CDBF7C01CB018E010F5F1F4FB8014AE043
:103A600050E00E94835AF80101900020E9F7AF016D
:103A700041505040401B510BC701B8010E948B1CA4
:103A800028960FB6F894DEBF0FBECDBFDF91CF9161
:103A90001F910F91FF90EF900895EF92FF920F9377
:103AA0001F93CF93DF93CDB7DEB727970FB6F89468
:103AB000DEBF0FBECDBF7C01CB018E010F5F1F4F5C
:103AC000B8014AE050E00E94125BF801019000202A
:103AD000E9F7AF0141505040401B510BC701B801FD
:103AE0000E948B1C27960FB6F894DEBF0FBECDBF89
:103AF000DF91CF911F910F91FF90EF900895EF927A
:103B0000FF920F931F93CF93DF93CDB7DEB72E971E
:103B10000FB6F894DEBF0FBECDBF7C01CB01BA015A
:103B20008E010F5F1F4FA8012AE030E00E94A45AC7
:103B3000F80101900020E9F7AF0141505040401BCF
:103B4000510BC701B8010E948B1C2E960FB6F8943A
:103B5000DEBF0FBECDBFDF91CF911F910F91FF90C0
:103B6000EF900895EF92FF920F931F93CF93DF93FF
:103B7000CDB7DEB72D970FB6F894DEBF0FBECDBF21
:103B80007C01CB01BA018E010F5F1F4FA8012AE013
:103B900030E00E94ED5AF80101900020E9F7AF01F2
:103BA00041505040401B510BC701B8010E948B1C73
:103BB0002D960FB6F894DEBF0FBECDBFDF91CF912B
:103BC0001F910F91FF90EF900895EF92FF920F9346
:103BD0001F93CF93DF93CDB7DEB764970FB6F894FA
:103BE000DEBF0FBECDBF7C01CB01BA0144E022E0B5
:103BF0008E010F5F1F4F0E941D59682F792FE82FEC
:103C0000F92FDF010D900020E9F7AD014150504040
:103C10004E1B5F0BC7010E948B1C64960FB6F89475
:103C2000DEBF0FBECDBFDF91CF911F910F91FF90EF
:103C3000EF900895EF92FF920F931F93CF93DF932E
:103C4000CDB7DEB764970FB6F894DEBF0FBECDBF19
:103C50007C01CB01BA0144E022E08E010F5F1F4FCF
:103C60000E941D59682F792FE82FF92FDF010D9041
:103C70000020E9F7AD01415050404E1B5F0BC701DA
:103C80000E948B1C64960FB6F894DEBF0FBECDBFAA
:103C9000DF91CF911F910F91FF90EF900895EF92D8
:103CA000FF920F931F93CF93DF937C018B016115DC
:103CB0007105F9F0CB010E94F5590097E1F0F70189
:103CC000C481D581C80FD91FC701BE010E94471A00
:103CD000882399F0F7018081918124813581820FB9
:103CE000931FB8010E94EE59F701D583C48381E088
:103CF00005C080E003C081E001C080E0DF91CF918A
:103D00001F910F91FF90EF900895CF93DF93C82FED
:103D1000D92FFB012081318144815581B9010E9455
:103D20008B1C882321F48C2F9D2F0E94181A8C2F16
:103D30009D2FDF91CF910895CF93DF93C82FD92F77
:103D40006115710579F0E62FF72FDF010D90002046
:103D5000E9F7AD01415050404E1B5F0B0E948B1C98
:103D6000882321F48C2F9D2F0E94181A8C2F9D2FB1
:103D7000DF91CF910895CF93DF93D82FC92F0E9461
:103D8000DA1C882321F48D2F9C2F0E94181A8D2F66
:103D90009C2FDF91CF910895CF93DF93D82FC92F18
:103DA0000E94EE1C882321F48D2F9C2F0E94181A4C
:103DB0008D2F9C2FDF91CF910895CF93DF93D82F34
:103DC000C92F0E941B1D882321F48D2F9C2F0E9438
:103DD000181A8D2F9C2FDF91CF910895CF93DF93E9
:103DE000D82FC92F0E944D1D882321F48D2F9C2F81
:103DF0000E94181A8D2F9C2FDF91CF910895CF9399
:103E0000DF93D82FC92F0E947F1D882321F48D2F87
:103E10009C2F0E94181A8D2F9C2FDF91CF9108950F
:103E2000CF93DF93D82FC92F0E94B21D882321F48E
:103E30008D2F9C2F0E94181A8D2F9C2FDF91CF91D0
:103E40000895CF93DF93D82FC92F0E94E51D8823B3
:103E500021F48D2F9C2F0E94181A8D2F9C2FDF91FB
:103E6000CF910895CF93DF93D82FC92F0E941A1EA8
:103E7000882321F48D2F9C2F0E94181A8D2F9C2FA0
:103E8000DF91CF910895CF93DF93D82FC92F0E9450
:103E90004F1E882321F48D2F9C2F0E94181A8D2FDE
:103EA0009C2FDF91CF910895DC01FB018D919C91B6
:103EB0001197009731F06081718161157105D1F41E
:103EC0000EC0A081B1811097D1F0848195810097B7
:103ED000C9F02C9130E0309521953F4F18C01496D1
:103EE0002D913C9115972115310579F0FC01208128
:103EF00030E00DC00E94315A282F392F08C020E031
:103F000030E005C020E030E002C020E030E0822F49
:103F1000932F0895FC0124813581FB014481558153
:103F20002417350739F40E94541F21E0009719F037
:103F300020E001C020E0822F0895FC01848195815A
:103F4000009761F46115710539F081E0FB01908102
:103F50009923D9F080E0089581E0089561157105F5
:103F600049F40190F081E02D81E09081992369F07E
:103F700080E00895808191810E94315A282F392F45
:103F800081E02115310509F080E008950E94541F59
:103F9000892F881F8827881F08950E94541F21E0B9
:103FA000181619060CF020E0822F08950E94541F65
:103FB00021E0181619060CF420E0822F08950E94C3
:103FC000541F892F8095881F8827881F0895EF9296
:103FD000FF920F931F93CF93DF93DC01FB018617B2
:103FE000970729F114968D919C911597248135811D
:103FF00082179307F1F40097F1F0E080F1800D91C2
:104000001C9111970DC090E00E94DE59EC01F70160
:1040100081917F0190E00E94DE59C817D90769F4A9
:10402000F80181918F01882371F781E007C081E059
:1040300005C080E003C081E001C080E0DF91CF9146
:104040001F910F91FF90EF900895FC01DB011496F2
:104050002D913C91159784819581821B930B841738
:104060009507B8F0808191810097A9F06D917C91BE
:1040700011976115710589F0840F951FA9010E94A0
:10408000415A282F392F81E02115310539F080E080
:10409000089580E0089580E0089580E00895FC018F
:1040A00024813581FB01448155812417350728F08F
:1040B00040E050E00E942520089580E00895FC0132
:1040C000DB018481958114962D913C91159782177F
:1040D0009307C8F04081518141155105B1F06D91B0
:1040E0007C9111976115710591F0821B930B840FE0
:1040F000951F0E94315A282F392F81E02115310553
:1041000039F080E0089580E0089580E0089580E02F
:104110000895FC01848195816817790730F48081C6
:104120009181680F791FFB0140830895FC01848110
:1041300095816817790720F480819181009729F48F
:1041400010922D068DE296E00895860F971F089530
:10415000FC01848195816817790748F480819181F9
:10416000009739F0680F791FFB018081089580E086
:10417000089580E008950E94A82008950F931F934A
:10418000CF93DF93FC01EB0141155105E9F0209736
:10419000D9F0848195812817390710F0188214C04E
:1041A000415050408C01021B130B4017510708F47B
:1041B0008A0160817181620F731FCE01A8010E9484
:1041C0004F5AC00FD11F1882DF91CF911F910F91CD
:1041D0000895CF93DF93FC01848195814817590797
:1041E00068F4C081D181CE01840F951F70E00E94D8
:1041F000265A009731F08C1B9D0B05C08FEF9FEF67
:1042000002C08FEF9FEFDF91CF91089540E050E023
:104210000E94E9200895CF93DF93FC01848195816A
:104220004817590778F4C081D181FB016081718101
:10423000CE01840F951F0E94695A009731F08C1BA4
:104240009D0B05C08FEF9FEF02C08FEF9FEFDF91B7
:10425000CF91089540E050E00E940B210895DF9235
:10426000EF92FF920F931F93CF93DF938C01DC01AA
:1042700014968D919C91159748175907E0F47A018F
:104280000894E11CF11CED91FC911197EE0DFF1DBE
:10429000D0801082CD91DC91CE0170E00E945E5AF8
:1042A000CE0DDF1DD882009749F0F80120813181C1
:1042B000821B930B05C08FEF9FEF02C08FEF9FEF24
:1042C000DF91CF911F910F91FF90EF90DF900895B4
:1042D000FC0144815581415050400E942F21089596
:1042E000AF92BF92CF92DF92EF92FF920F931F9304
:1042F000CF93DF93FC016B017A01DB0114962D91C2
:104300003C9115972115310571F1848195810097B4
:1043100071F18217930778F14817590720F07C0153
:104320000894E108F108C081D1818E010E0D1F1D96
:104330000C171D0720F1CE01AA24AA94BA2CF6016D
:10434000608171810E94695A9C010097D9F08C1B91
:104350009D0BE816F90608F05C01C90101960817E3
:10436000190768F70FC0AA24AA94BA2C0BC0AA2474
:10437000AA94BA2C07C0AA24AA94BA2C03C0AA24CF
:10438000AA94BA2C8A2D9B2DDF91CF911F910F916A
:10439000FF90EF90DF90CF90BF90AF900895FC0119
:1043A00044815581DB0114968D919C911597481B92
:1043B000590BCF010E9470210895BF92CF92DF92D6
:1043C000EF92FF920F931F93CF93DF937C016B01CA
:1043D0008A01E9012417350720F4812F8901C42FB0
:1043E000D82FC7016BE472E00E948B1AD601149695
:1043F0008D919C91159780179107C8F08C179D0798
:1044000008F4EC01D601ED91FC911197EC0FFD1F22
:10441000B08010826D917C91600F711FC7010E9466
:10442000F11AF60180819181C80FD91FB882C701A6
:10443000DF91CF911F910F91FF90EF90DF90CF9080
:10444000BF900895DC01ED91FC911197309761F0D8
:104450008081882349F03196861719F4DF0111977E
:104460004C9381918823C1F708954F925F926F9288
:104470007F928F929F92AF92BF92CF92DF92EF92F4
:10448000FF920F931F93CF93DF933C014B017A016F
:10449000FC01A480B580A114B10409F4CAC0FB01D9
:1044A000C480D580C114D10409F4C3C0FA01848149
:1044B00095812C014C185D08C201F3010081118126
:1044C0004114510479F018C0F70160817181448171
:1044D00055818C2F9D2F0E940B5AF7010481158165
:1044E0000C0F1D1FF40160817181C8010E94695A7F
:1044F000EC01009749F79DC0992364F1E5013EC0A6
:10450000E601C01BD10B8A2D9B2D602F712F4C2FE4
:104510005D2F0E940B5ACA0DDB1DF701608171816E
:10452000448155818C2F9D2F0E940B5AF701848165
:1045300095815E01A80EB91EF401848195818601E2
:10454000080F191FF30184819581840D951D9583B2
:10455000848301C05801F40160817181C8010E9407
:10456000695A6C01009761F6C501B8010E943A5A78
:1045700060C08C010C0D1D1DC40DD51DF4016081A2
:104580007181C8010E94695A009799F7CA15DB0525
:1045900009F44FC0F301828193818C179D0708F0C5
:1045A00042C0C301BE010E942A1A882309F441C0F7
:1045B0003AC05523F4F1C301B4010E947021EC010B
:1045C0009923BCF1F30160817181F40184819581AB
:1045D0008C0F9D1F680F791FF30144815581481B83
:1045E000590BCB01840D951D0E94145AF30184814F
:1045F0009581840D951D9583848320813181820F5F
:10460000931FFC011082F301808191818C0F9D1F0B
:10461000F70160817181448155810E940B5AAE017E
:1046200041505040C6CFF301448155814150504024
:10463000C0CFDF91CF911F910F91FF90EF90DF904E
:10464000CF90BF90AF909F908F907F906F905F9032
:104650004F900895CF93DF93EC012C813D81621739
:10466000730740F54115510529F1CA01860F971FBF
:104670002817390718F4A901461B570BE881F9815F
:10468000C901841B950B9D838C83460F571F9F0187
:10469000240F351FAC01461B570BCF01860F971F08
:1046A000B9010E944F5AE881F9818C819D81E80F00
:1046B000F91F1082DF91CF910895FC01448155814B
:1046C0006417750720F4461B570B0E942A23089590
:1046D0000F931F93CF93DF93FC01C081D18120976B
:1046E00079F08881882361F08E010F5F1F4F90E081
:1046F0000E94DE598993F80181918F018823B9F7CF
:10470000DF91CF911F910F9108950F931F93CF9336
:10471000DF93FC01C081D181209779F088818823C3
:1047200061F08E010F5F1F4F90E00E94E659899360
:10473000F80181918F018823B9F7DF91CF911F9103
:104740000F910895AF92BF92CF92DF92EF92FF92B6
:104750000F931F93CF93DF937C01DC01CD90DC900E
:104760001197C114D104F1F11496AD90BC90159736
:10477000A114B104B9F1E6018E012196F8018081FE
:1047800090E00E94D6590097B9F7E5012197CC0D2A
:10479000DD1D888190E00E94D6590097C9F0C017AE
:1047A000D107B0F02197F5CF8C2D9D2D602F712F63
:1047B0004C2F5D2F0E940B5AD701ED91FC91119760
:1047C00014968D919C911597E80FF91F10820AC0DD
:1047D0002196C01BD10BF701D583C483C016D10627
:1047E00058F7E2CFDF91CF911F910F91FF90EF909B
:1047F000DF90CF90BF90AF9008950F931F93FC016F
:1048000080819181009729F00E94AF598B019C0112
:1048100003C000E010E09801602F712F822F932FCA
:104820001F910F910895FC0180819181009719F0EB
:104830000E94AB5904C060E070E080E090E0382F47
:10484000292F862F972FA32FB22FBC01CD010895BA
:10485000CF93DF930F92CDB7DEB76983DC01ED9183
:10486000FC910280F381E02DBE016F5F7F4F41E03C
:1048700050E019950F90DF91CF910895FC01818D43
:10488000928D009711F00E9437360895EF92FF92B3
:104890000F931F93CF93DF930F92CDB7DEB78C01A9
:1048A000FC01818D928D0097D9F0BE016F5F7F4F23
:1048B00041E050E00E94A03381309105A1F4E980ED
:1048C000FF24F801818D928DFC014285538564851A
:1048D000758541505040604070400E94943506C03C
:1048E000EE24FF2403C0EE24EA94FE2C8E2D9F2D8F
:1048F0000F90DF91CF911F910F91FF90EF9008954E
:10490000CF93DF93EC01E98DFA8D309739F481E094
:1049100090E09B838A8380E090E013C01382128230
:10492000898D9A8D0E94903DE98DFA8D2281338187
:104930002115310531F081E090E09B838A8380E08E
:1049400090E0DF91CF910895CF93DF930F92CDB791
:10495000DEB7FC01818D928D009781F0BE016F5F03
:104960007F4F41E050E00E94A0338130910519F45F
:10497000898190E005C08FEF9FEF02C08FEF9FEF1E
:104980000F90DF91CF910895EF92FF920F931F93B5
:10499000CF93DF93EC01162F072F7A011B821A8227
:1049A00088EE93E0A0E0B0E08C839D83AE83BF836C
:1049B00080E592E0998388838DE190E00E943054F5
:1049C000A82FB92FBA8FA98F109779F0E12FF02F68
:1049D0008DE101900D928150E1F7CE010C96B70167
:1049E0004CE050E00E944F5A188EDF91CF911F91FA
:1049F0000F91FF90EF900895FC011382128248EE10
:104A000053E060E070E0448355836683778380E5FC
:104A100092E091838083128E118E148608950C96F5
:104A20000895DC015996ED91FC915A97309731F039
:104A300081E09581923018F480E0089580E0089537
:104A4000FC01818D928D009719F00E94A03308958A
:104A500080E090E00895FC01818D928D009719F01F
:104A60000E949435089580E008950F931F93DC0110
:104A70005996ED91FC915A97309729F0028513854C
:104A80002485358503C00FEF1FEF9801602F712F2C
:104A9000822F932F1F910F9108950F931F93DC0185
:104AA0005996ED91FC915A97309729F00389148912
:104AB0002589368903C000E010E09801602F712F2E
:104AC000822F932F1F910F910895CF92DF92EF9233
:104AD000FF92CF93DF93EC01898D9A8D009711F1AE
:104AE000CE010E944D256B017C01CE010E9435252F
:104AF000DC01CB01C81AD90AEA0AFB0A80E0C81611
:104B000080E8D80680E0E80680E0F80668F00F2E1E
:104B1000FFEFCF2EFFE7DF2EF0E0EF2EF0E0FF2ECD
:104B2000F02D02C0CC24DD248C2D9D2DDF91CF9162
:104B3000FF90EF90DF90CF900895CF93DF93EC013B
:104B4000898D9A8D009741F00E94A236898D9A8DA9
:104B50000E94DD541A8E198EDF91CF910895DC01E9
:104B60005996ED91FC915A97309731F081E09581FB
:104B7000992319F480E0089580E008951F93CF935E
:104B8000DF93CDB7DEB76D970FB6F894DEBF0FBEDB
:104B9000CDBF9C01AB011C821B8282E792E09A830D
:104BA00089831E82CE010196B90121E00E94133B48
:104BB000182F882321F0CE0101960E94A236812F62
:104BC0006D960FB6F894DEBF0FBECDBFDF91CF91CB
:104BD0001F910895CF93DF93CDB7DEB76D970FB6D2
:104BE000F894DEBF0FBECDBF9C01FB014423A9F0AA
:104BF0001C821B8282E792E09A8389831E82CE0107
:104C00000196B901AF0121E00E94133B882339F0DE
:104C1000CE0101960E94593803C081E001C080E0B6
:104C20006D960FB6F894DEBF0FBECDBFDF91CF916A
:104C30000895442319F00E94323C089581E00895BC
:104C4000EF92FF920F931F93CF93DF93CDB7DEB711
:104C50006D970FB6F894DEBF0FBECDBF8C017B0100
:104C60001C821B8282E792E09A8389831E82C8019C
:104C70000E94BE25882331F4CE010196B801A70118
:104C80000E945C3C6D960FB6F894DEBF0FBECDBFA0
:104C9000DF91CF911F910F91FF90EF900895EF92C8
:104CA000FF920F931F93CF93DF93EC017B01FB01E6
:104CB00020813181FC01E20FF31F80818F3211F4DA
:104CC0002F5F3F4FDE01A20FB31F8A0180E090E00B
:104CD0006C916F3201F16623F1F01196F801619346
:104CE0008F0101962F5F3F4F8C309105A1F0F0CFDF
:104CF0002F5F3F4FF70131832083C20FD31F81E025
:104D00009881992309F480E0DF91CF911F910F9151
:104D1000FF90EF900895840F951FFC011082FE0113
:104D2000E20FF31F80818F3229F7E2CF3F924F923B
:104D30005F926F927F928F929F92AF92BF92CF922B
:104D4000DF92EF92FF920F931F93CF93DF93CDB734
:104D5000DEB7CD54D0400FB6F894DEBF0FBECDBF46
:104D60003C014B012E965FAF4EAF2E97290118AA3A
:104D70001FA682E792E09EA78DA71AAA1B8A1A8A0D
:104D8000998B888B1D8A1A8219827B010F2EFDE276
:104D9000AF2EBB24F02DAC0EBD1E0F2EF3E0CF2E98
:104DA000DD24F02DCC0EDD1E01E03324CE01409633
:104DB0002C969FAF8EAF2C970CC09E2D8F2D06C0CA
:104DC0002B969FAD2B972C968FAD2C977501A92E06
:104DD000B82EC301BE016F5F7F4FA6010E944F2610
:104DE000182F6C2D7D2D402F8111432DC70192016D
:104DF0002E96EEADFFAD2E971995882341F4E81459
:104E0000F90411F1C7010E94A23680E022C01123EB
:104E100099F0C501B701A601202F0E94133B182F5E
:104E2000E814F90419F0C7010E94A236112371F0A9
:104E3000E814F90411F6C4CFE814F90449F0C701E5
:104E40000E94A23681E005C080E003C080E001C07E
:104E500081E0C35BDF4F0FB6F894DEBF0FBECDBF5E
:104E6000DF91CF911F910F91FF90EF90DF90CF9046
:104E7000BF90AF909F908F907F906F905F904F907A
:104E80003F900895EF92FF920F931F93CF93DF937C
:104E90008C01C62FFC0187A5882321F0C8018A96C2
:104EA0000E94A236802F912F61E04C2F0E945A2C35
:104EB0008823E1F0E8012C96CE01602F712F41E0AC
:104EC0000E94A943882341F4CE01602F712F40E056
:104ED0000E94A943882361F0C8018A96BE010E94FE
:104EE0007C3291E0882329F490E003C090E001C077
:104EF00090E0892FDF91CF911F910F91FF90EF905C
:104F00000895AF92BF92CF92DF92EF92FF920F93EC
:104F10001F93CF93DF938C016A017B01C22FFC01A9
:104F200087A5882321F0C8018A960E94A236802F87
:104F3000912F61E04C2F0E945A2C882321F1802F61
:104F4000912FB701A6010E94C92B8823F1F0E80137
:104F50002C96CE01602F712F41E00E94A943882337
:104F600041F4CE01602F712F40E00E94A9438823B5
:104F700071F0C8018A96BE010E947C3291E08823BC
:104F800039F490E005C090E003C090E001C090E0EB
:104F9000892FDF91CF911F910F91FF90EF90DF90BC
:104FA000CF90BF90AF9008958A960E94A236089540
:104FB0002F923F924F925F927F928F929F92AF92E9
:104FC000BF92CF92DF92EF92FF920F931F93CF93F6
:104FD000DF93CDB7DEB7C754D0400FB6F894DEBF2D
:104FE0000FBECDBF4C012A0119011EA61DA682E7E6
:104FF00092E09CA78BA718AA198A188A9F878E8788
:105000001B8A645F7F4FCE018B960E947C327201B7
:105010000F2EFEE0AF2EBB24F02DAC0EBD1E0F2ECA
:10502000FBE2CF2EDD24F02DCC0EDD1E0F2EFCE09A
:105030007F2EF02D3BC0F70120812F3221F4089400
:10504000E11CF11C33C08E198D3008F0872D082F1C
:1050500010E0CE010196B701A8010E944F5AE1E08D
:10506000F0E0EC0FFD1FE00FF11F1082C5010E9460
:10507000A236C501B601AE014F5F5F4F21E00E942D
:10508000133B882349F4F4011382128282E792E0F1
:1050900091838083158265C0E00EF11EC6010E94D7
:1050A000A2369C2D8D2D6501A92EB82EC7016FE269
:1050B00070E00E94265A009709F0BDCFE418F50869
:1050C000F101F182E082F60182819381F401938300
:1050D000828382E792E091838083F6018481F401E8
:1050E0008483F6018581F4018583F60186819781A9
:1050F000A085B185F40186839783A087B187F601E7
:1051000082859385A485B585F40182879387A487DA
:10511000B587F60186859785A089B189F4018687D0
:105120009787A08BB18BF6018289F401828BF601FF
:1051300083899489A589B689F401838B948BA58B87
:10514000B68BF6018789908DA18DB28DF401878B86
:10515000908FA18FB28FF601838D948DF401948F7F
:10516000838FC401C95BDF4F0FB6F894DEBF0FBE5B
:10517000CDBFDF91CF911F910F91FF90EF90DF9006
:10518000CF90BF90AF909F908F907F905F904F9007
:105190003F902F900895DF92EF92FF920F931F930D
:1051A000CF93DF93CDB7DEB7C657D0400FB6F89494
:1051B000DEBF0FBECDBF7C018A01D22ECE01865A42
:1051C0009F4F9E01255C3F4F0E94D8278BAD9CAD21
:1051D000080F191FF8018081882309F057C06E96C7
:1051E0008EAD9FAD6E9799A388A382E792E09F8FC3
:1051F0008E8F6F968FAD6F978AA3A0968FADA09775
:105200008BA3A4968CAD9DADAEADBFADA4978CA382
:105210009DA3AEA3BFA3A8968CAD9DADAEADBFAD13
:10522000A89788A799A7AAA7BBA7AC968CAD9DAD58
:10523000AEADBFADAC978CA79DA7AEA7BFA7AD96EF
:105240008FADAD9788ABE1968CAD9DADAEADBFADEA
:10525000E19789AB9AABABABBCABE5968CAD9DADA2
:10526000AEADBFADE5978DAB9EABAFABB8AFE7963C
:105270008EAD9FADE7979AAF89AFC701BE01625E61
:105280007F4F4CE652E00E94C4248BC021961FAE93
:105290001EAE219782E792E09EAF8DAF23961FAEA0
:1052A0002397A0968FADA097882321F4C7010E9471
:1052B000FC2477C0CE01CD96BE01665A7F4FA8016F
:1052C0002D2D0E94133B882321F4C7010E94FC244A
:1052D00068C0CE01865A9F4F0E94A2368D2D8670DF
:1052E000863051F464964CAD5DAD6EAD7FAD649784
:1052F000CE01CD960E94943521968EAD9FAD21971B
:105300009C838B8382E792E09A83898322968FAD78
:1053100022978D8323968FAD23978E8327968CAD0E
:105320009DADAEADBFAD27978F839887A987BA870C
:105330002B968CAD9DADAEADBFAD2B978B879C876B
:10534000AD87BE872F968CAD9DADAEADBFAD2F970F
:105350008F87988BA98BBA8B60968FAD60978B8B5C
:1053600064968CAD9DADAEADBFAD64978C8B9D8BBF
:10537000AE8BBF8B68968CAD9DADAEADBFAD689763
:10538000888F998FAA8FBB8F6A968EAD9FAD6A97D3
:105390009D8F8C8FC701BE016F5F7F4FA8010E9458
:1053A000C424C701CA58DF4F0FB6F894DEBF0FBE42
:1053B000CDBFDF91CF911F910F91FF90EF90DF90C4
:1053C00008959C01265D3F4FCB01B9014EEB55E29C
:1053D00020E030E00E94962608959C01265D3F4F14
:1053E000CB01B90140E256E220E030E00E9496266F
:1053F00008959C01265D3F4FCB01B9014AEE55E26D
:1054000020E030E00E94962608959C01265D3F4FE3
:10541000CB01B90149E156E220E030E00E94962636
:105420000895DF92EF92FF920F931F93CF93DF9334
:10543000CDB7DEB7C756D0400FB6F894DEBF0FBE6B
:10544000CDBF7C018B01D42E7FC029968FAD2997CB
:10545000882321F4C7010E94FC2484C0853E09F4FE
:1054600073C08E3209F470C064968FAD649783FD6B
:105470006BC01EA61DA682E792E09CA78BA718AA68
:10548000CE01885B9F4FBE01625E7F4F0E9411324A
:10549000F801618D728DCE018B96AE01425E5F4F39
:1054A0002D2D0E94133B882309F44AC08DA59EA58B
:1054B0009C838B8382E792E09A8389838FA58D8377
:1054C00088A98E8389A99AA9ABA9BCA98F8398873B
:1054D000A987BA878DA99EA9AFA9B8AD8B879C87EC
:1054E000AD87BE8789AD9AADABADBCAD8F87988BCC
:1054F000A98BBA8B8DAD8B8B22968CAD9DADAEAD4D
:10550000BFAD22978C8B9D8BAE8BBF8B26968CADBF
:105510009DADAEADBFAD2697888F998FAA8FBB8FFB
:1055200028968EAD9FAD28979D8F8C8FC701BE01A9
:105530006F5F7F4FAE01425E5F4F0E94C42412C076
:10554000C7010E94FC240EC0F801818D928DBE011E
:10555000685B7F4F0E940D3518160CF476CFC7019B
:105560000E94FC24C701C959DF4F0FB6F894DEBF73
:105570000FBECDBFDF91CF911F910F91FF90EF90A4
:10558000DF900895CF93DF93EC010E9411258823CB
:1055900051F0E98DFA8D16821782108611861286D7
:1055A000138614861586DF91CF91089510923306E5
:1055B00010923406109237061092390682E090E07D
:1055C000A0E0B0E080933A0690933B06A0933C069F
:1055D000B0933D061092510610925B0610925A0647
:1055E00082E792E0909359068093580610925D06E8
:1055F00008958EBD00000DB407FEFDCF8EB5089551
:105600008FEF8EBD00000DB407FEFDCF8EB508955F
:10561000FC01848161E00E94B217809177068823A3
:10562000A1F01092770680918708882371F09FB7C8
:10563000F89480918708813029F4809185088DBB8A
:105640009FBF0895809185088FBF089520917706A8
:10565000222301F521E020937706309178062091EE
:10566000790640918708442399F04FB7F8945091F8
:105670008708513059F45DB3509385086DB350914C
:105680008608509556235DBB4FBF02C040938508E6
:105690003CBD2DBDFC01848160E00E94B2170895DD
:1056A000CF93DF93EC018E818823E1F08F81988581
:1056B0009C012F5F3F4F38872F8322E08230920773
:1056C00068F40E94002B8F8198859C012F5F3F4FCB
:1056D00038872F8322E08230920798F3CE010E9410
:1056E000082B1E82DF91CF9108951F93CF93DF93F4
:1056F000EC01162F0E94502B1987DF91CF911F913B
:105700000895673028F026E1FC01258380E00895A4
:105710006230E1F0633028F4662351F0613091F596
:105720000EC0643009F16430C0F0653059F523C013
:1057300080E58093780681E080937906089580E57E
:10574000809378061092790681E0089581E5809330
:10575000780681E080937906089581E58093780644
:105760001092790681E0089582E58093780681E0C1
:1057700080937906089582E58093780610927906E1
:1057800081E0089583E5809378061092790681E0A0
:10579000089520E080E092E1AAE7B0E048175907B9
:1057A0006A077B07C8F4B695A795979587952F5FED
:1057B0002630A1F727E001C027E081E02827822FCB
:1057C00090E0959587958370806580937806217029
:1057D0002093790681E00895263079F7EDCF0F9375
:1057E0001F93CF93DF93EB010E94F9148B019C016F
:1057F0000E94002B8F3F49F00E94F914601B710B2F
:105800006C177D07A8F380E001C081E0DF91CF91A4
:105810001F910F910895BF92CF92DF92EF92FF9266
:105820000F931F93CF93DF93EC01B62E69017A019A
:105830000E94502BCE010E94262BCE016CE271E01B
:105840000E94EF2B8B2D80640E94F92A08E110E062
:10585000D701C601002E04C0B695A79597958795E8
:105860000A94D2F70E94F92A085010408FEF083F9F
:10587000180771F7BB2029F088E0B81621F08FEFE8
:1058800003C085E901C087E80E94F92A00E00E9470
:10589000002B8A87882324F40F3F11F00F5FF7CF86
:1058A000DF91CF911F910F91FF90EF90DF90CF90FC
:1058B000BF9008958F929F92AF92BF92EF92FF9206
:1058C0000F931F93CF93DF938C01D62FFC01138688
:1058D00011861682158244830E94F914DC01CB01E3
:1058E0007C01F801848161E00E947417F8018481D1
:1058F00061E00E94B2170E94074582E58093780616
:105900001092790680918708882399F08FB7F894D0
:1059100090918708913059F49DB3909385082DB3E9
:1059200090918608909592239DBB8FBF02C0809373
:10593000850882E58CBD1DBCCAE08FEF0E94F92A64
:10594000C150D9F780918708882371F09FB7F894E8
:1059500080918708813029F4809185088DBB9FBF95
:1059600003C0809185088FBFC8010E94262B0CC000
:105970000E94F9146E197F09F7E0613D7F0720F05E
:1059800081E0F801858379C0C80160E020E030E063
:10599000A9010E940B2CF8018287813049F7C801C8
:1059A00068E02AEA31E040E050E00E940B2C82FFE0
:1059B00004C081E0F80183870FC0C4E00E94002B7F
:1059C000F8018287C150D1F78A3A19F082E08583C5
:1059D00054C082E0F8018387F8018385823031F476
:1059E0008824992454016894B6F810C08824992416
:1059F00054010CC00E94F9146E197F09F7E0613D53
:105A00007F0720F088E0F801858337C0C80167E38D
:105A100020E030E0A9010E940B2CC80169E2A50139
:105A200094010E940B2CF8018287882319F7838543
:105A30008230D9F4C8016AE320E030E0A9010E9475
:105A40000B2C882321F086E0F801858316C00E9484
:105A5000002B807C803C19F483E0F80183870E944E
:105A6000002B0E94002B0E94002BC8010E94082BD3
:105A7000C8016D2F0E94812B04C0C8010E94082B11
:105A800080E0DF91CF911F910F91FF90EF90BF9039
:105A9000AF909F908F9008950F931F93CF93DF93B4
:105AA000EC010E94F9148B019C010BC00E94F914B7
:105AB000601B710B81E06D32780718F08FE08D83E9
:105AC00009C00E94002B8A878F3F81F38E3F39F0F7
:105AD0008DE08D83CE010E94082B80E001C081E023
